{
  "contractName": "PrivateCompany",
  "abi": [
    {
      "inputs": [
        {
          "internalType": "address",
          "name": "intendedOwner",
          "type": "address"
        },
        {
          "internalType": "string",
          "name": "name",
          "type": "string"
        },
        {
          "internalType": "string",
          "name": "symbol",
          "type": "string"
        }
      ],
      "payable": false,
      "stateMutability": "nonpayable",
      "type": "constructor"
    },
    {
      "anonymous": false,
      "inputs": [
        {
          "indexed": true,
          "internalType": "address",
          "name": "owner",
          "type": "address"
        },
        {
          "indexed": true,
          "internalType": "address",
          "name": "spender",
          "type": "address"
        },
        {
          "indexed": false,
          "internalType": "uint256",
          "name": "value",
          "type": "uint256"
        }
      ],
      "name": "Approval",
      "type": "event"
    },
    {
      "anonymous": false,
      "inputs": [
        {
          "indexed": true,
          "internalType": "address",
          "name": "previousOwner",
          "type": "address"
        },
        {
          "indexed": true,
          "internalType": "address",
          "name": "newOwner",
          "type": "address"
        }
      ],
      "name": "OwnershipTransferred",
      "type": "event"
    },
    {
      "anonymous": false,
      "inputs": [
        {
          "indexed": true,
          "internalType": "address",
          "name": "from",
          "type": "address"
        },
        {
          "indexed": true,
          "internalType": "address",
          "name": "to",
          "type": "address"
        },
        {
          "indexed": false,
          "internalType": "uint256",
          "name": "value",
          "type": "uint256"
        }
      ],
      "name": "Transfer",
      "type": "event"
    },
    {
      "constant": true,
      "inputs": [
        {
          "internalType": "address",
          "name": "owner",
          "type": "address"
        },
        {
          "internalType": "address",
          "name": "spender",
          "type": "address"
        }
      ],
      "name": "allowance",
      "outputs": [
        {
          "internalType": "uint256",
          "name": "",
          "type": "uint256"
        }
      ],
      "payable": false,
      "stateMutability": "view",
      "type": "function"
    },
    {
      "constant": false,
      "inputs": [
        {
          "internalType": "address",
          "name": "spender",
          "type": "address"
        },
        {
          "internalType": "uint256",
          "name": "value",
          "type": "uint256"
        }
      ],
      "name": "approve",
      "outputs": [
        {
          "internalType": "bool",
          "name": "",
          "type": "bool"
        }
      ],
      "payable": false,
      "stateMutability": "nonpayable",
      "type": "function"
    },
    {
      "constant": true,
      "inputs": [
        {
          "internalType": "address",
          "name": "account",
          "type": "address"
        }
      ],
      "name": "balanceOf",
      "outputs": [
        {
          "internalType": "uint256",
          "name": "",
          "type": "uint256"
        }
      ],
      "payable": false,
      "stateMutability": "view",
      "type": "function"
    },
    {
      "constant": true,
      "inputs": [],
      "name": "decimals",
      "outputs": [
        {
          "internalType": "uint8",
          "name": "",
          "type": "uint8"
        }
      ],
      "payable": false,
      "stateMutability": "view",
      "type": "function"
    },
    {
      "constant": false,
      "inputs": [
        {
          "internalType": "address",
          "name": "spender",
          "type": "address"
        },
        {
          "internalType": "uint256",
          "name": "subtractedValue",
          "type": "uint256"
        }
      ],
      "name": "decreaseAllowance",
      "outputs": [
        {
          "internalType": "bool",
          "name": "",
          "type": "bool"
        }
      ],
      "payable": false,
      "stateMutability": "nonpayable",
      "type": "function"
    },
    {
      "constant": false,
      "inputs": [
        {
          "internalType": "address",
          "name": "spender",
          "type": "address"
        },
        {
          "internalType": "uint256",
          "name": "addedValue",
          "type": "uint256"
        }
      ],
      "name": "increaseAllowance",
      "outputs": [
        {
          "internalType": "bool",
          "name": "",
          "type": "bool"
        }
      ],
      "payable": false,
      "stateMutability": "nonpayable",
      "type": "function"
    },
    {
      "constant": true,
      "inputs": [],
      "name": "isOwner",
      "outputs": [
        {
          "internalType": "bool",
          "name": "",
          "type": "bool"
        }
      ],
      "payable": false,
      "stateMutability": "view",
      "type": "function"
    },
    {
      "constant": true,
      "inputs": [],
      "name": "name",
      "outputs": [
        {
          "internalType": "string",
          "name": "",
          "type": "string"
        }
      ],
      "payable": false,
      "stateMutability": "view",
      "type": "function"
    },
    {
      "constant": true,
      "inputs": [],
      "name": "owner",
      "outputs": [
        {
          "internalType": "address",
          "name": "",
          "type": "address"
        }
      ],
      "payable": false,
      "stateMutability": "view",
      "type": "function"
    },
    {
      "constant": false,
      "inputs": [],
      "name": "renounceOwnership",
      "outputs": [],
      "payable": false,
      "stateMutability": "nonpayable",
      "type": "function"
    },
    {
      "constant": true,
      "inputs": [],
      "name": "symbol",
      "outputs": [
        {
          "internalType": "string",
          "name": "",
          "type": "string"
        }
      ],
      "payable": false,
      "stateMutability": "view",
      "type": "function"
    },
    {
      "constant": true,
      "inputs": [],
      "name": "totalSupply",
      "outputs": [
        {
          "internalType": "uint256",
          "name": "",
          "type": "uint256"
        }
      ],
      "payable": false,
      "stateMutability": "view",
      "type": "function"
    },
    {
      "constant": false,
      "inputs": [
        {
          "internalType": "address",
          "name": "recipient",
          "type": "address"
        },
        {
          "internalType": "uint256",
          "name": "amount",
          "type": "uint256"
        }
      ],
      "name": "transfer",
      "outputs": [
        {
          "internalType": "bool",
          "name": "",
          "type": "bool"
        }
      ],
      "payable": false,
      "stateMutability": "nonpayable",
      "type": "function"
    },
    {
      "constant": false,
      "inputs": [
        {
          "internalType": "address",
          "name": "sender",
          "type": "address"
        },
        {
          "internalType": "address",
          "name": "recipient",
          "type": "address"
        },
        {
          "internalType": "uint256",
          "name": "amount",
          "type": "uint256"
        }
      ],
      "name": "transferFrom",
      "outputs": [
        {
          "internalType": "bool",
          "name": "",
          "type": "bool"
        }
      ],
      "payable": false,
      "stateMutability": "nonpayable",
      "type": "function"
    },
    {
      "constant": false,
      "inputs": [
        {
          "internalType": "address",
          "name": "newOwner",
          "type": "address"
        }
      ],
      "name": "transferOwnership",
      "outputs": [],
      "payable": false,
      "stateMutability": "nonpayable",
      "type": "function"
    },
    {
      "constant": false,
      "inputs": [
        {
          "internalType": "uint256",
          "name": "value",
          "type": "uint256"
        }
      ],
      "name": "mint",
      "outputs": [],
      "payable": false,
      "stateMutability": "nonpayable",
      "type": "function"
    }
  ],
  "bytecode": "0x60806040523480156200001157600080fd5b50604051620010aa380380620010aa833981810160405260608110156200003757600080fd5b8151602083018051604051929492938301929190846401000000008211156200005f57600080fd5b9083019060208201858111156200007557600080fd5b82516401000000008111828201881017156200009057600080fd5b82525081516020918201929091019080838360005b83811015620000bf578181015183820152602001620000a5565b50505050905090810190601f168015620000ed5780820380516001836020036101000a031916815260200191505b50604052602001805160405193929190846401000000008211156200011157600080fd5b9083019060208201858111156200012757600080fd5b82516401000000008111828201881017156200014257600080fd5b82525081516020918201929091019080838360005b838110156200017157818101518382015260200162000157565b50505050905090810190601f1680156200019f5780820380516001836020036101000a031916815260200191505b50604052505050818160128260009080519060200190620001c2929190620002f4565b508151620001d8906001906020850190620002f4565b506002805460ff90921660ff199092169190911790555050600680546001600160a01b0319163317908190556040516001600160a01b0391909116906000906000805160206200108a833981519152908290a36200023f836001600160e01b036200024816565b50505062000399565b6001600160a01b038116620002a9576040517f08c379a0000000000000000000000000000000000000000000000000000000008152600401808060200182810382526026815260200180620010646026913960400191505060405180910390fd5b6006546040516001600160a01b038084169216906000805160206200108a83398151915290600090a3600680546001600160a01b0319166001600160a01b0392909216919091179055565b828054600181600116156101000203166002900490600052602060002090601f016020900481019282601f106200033757805160ff191683800117855562000367565b8280016001018555821562000367579182015b82811115620003675782518255916020019190600101906200034a565b506200037592915062000379565b5090565b6200039691905b8082111562000375576000815560010162000380565b90565b610cbb80620003a96000396000f3fe608060405234801561001057600080fd5b50600436106101005760003560e01c80638da5cb5b11610097578063a457c2d711610066578063a457c2d7146102dd578063a9059cbb14610309578063dd62ed3e14610335578063f2fde38b1461036357610100565b80638da5cb5b1461028c5780638f32d59b146102b057806395d89b41146102b8578063a0712d68146102c057610100565b8063313ce567116100d3578063313ce56714610212578063395093511461023057806370a082311461025c578063715018a61461028257610100565b806306fdde0314610105578063095ea7b31461018257806318160ddd146101c257806323b872dd146101dc575b600080fd5b61010d610389565b6040805160208082528351818301528351919283929083019185019080838360005b8381101561014757818101518382015260200161012f565b50505050905090810190601f1680156101745780820380516001836020036101000a031916815260200191505b509250505060405180910390f35b6101ae6004803603604081101561019857600080fd5b506001600160a01b03813516906020013561041f565b604080519115158252519081900360200190f35b6101ca610435565b60408051918252519081900360200190f35b6101ae600480360360608110156101f257600080fd5b506001600160a01b0381358116916020810135909116906040013561043b565b61021a610492565b6040805160ff9092168252519081900360200190f35b6101ae6004803603604081101561024657600080fd5b506001600160a01b03813516906020013561049b565b6101ca6004803603602081101561027257600080fd5b50356001600160a01b03166104d7565b61028a6104f2565b005b610294610595565b604080516001600160a01b039092168252519081900360200190f35b6101ae6105a4565b61010d6105b5565b61028a600480360360208110156102d657600080fd5b5035610615565b6101ae600480360360408110156102f357600080fd5b506001600160a01b03813516906020013561067b565b6101ae6004803603604081101561031f57600080fd5b506001600160a01b0381351690602001356106b7565b6101ca6004803603604081101561034b57600080fd5b506001600160a01b03813581169160200135166106c4565b61028a6004803603602081101561037957600080fd5b50356001600160a01b03166106ef565b60008054604080516020601f60026000196101006001881615020190951694909404938401819004810282018101909252828152606093909290918301828280156104155780601f106103ea57610100808354040283529160200191610415565b820191906000526020600020905b8154815290600101906020018083116103f857829003601f168201915b5050505050905090565b600061042c338484610751565b50600192915050565b60055490565b600061044884848461083d565b6001600160a01b038416600090815260046020908152604080832033808552925290912054610488918691610483908663ffffffff61098116565b610751565b5060019392505050565b60025460ff1690565b3360008181526004602090815260408083206001600160a01b0387168452909152812054909161042c918590610483908663ffffffff6109de16565b6001600160a01b031660009081526003602052604090205490565b6104fa6105a4565b61054b576040805162461bcd60e51b815260206004820181905260248201527f4f776e61626c653a2063616c6c6572206973206e6f7420746865206f776e6572604482015290519081900360640190fd5b6006546040516000916001600160a01b0316907f8be0079c531659141344cd1fd0a4f28419497f9722a3daafe3b4186f6b6457e0908390a3600680546001600160a01b0319169055565b6006546001600160a01b031690565b6006546001600160a01b0316331490565b60018054604080516020601f600260001961010087891615020190951694909404938401819004810282018101909252828152606093909290918301828280156104155780601f106103ea57610100808354040283529160200191610415565b61061d6105a4565b61066e576040805162461bcd60e51b815260206004820181905260248201527f4f776e61626c653a2063616c6c6572206973206e6f7420746865206f776e6572604482015290519081900360640190fd5b6106783382610a3f565b50565b3360008181526004602090815260408083206001600160a01b0387168452909152812054909161042c918590610483908663ffffffff61098116565b600061042c33848461083d565b6001600160a01b03918216600090815260046020908152604080832093909416825291909152205490565b6106f76105a4565b610748576040805162461bcd60e51b815260206004820181905260248201527f4f776e61626c653a2063616c6c6572206973206e6f7420746865206f776e6572604482015290519081900360640190fd5b61067881610b31565b6001600160a01b0383166107965760405162461bcd60e51b8152600401808060200182810382526024815260200180610c636024913960400191505060405180910390fd5b6001600160a01b0382166107db5760405162461bcd60e51b8152600401808060200182810382526022815260200180610c1c6022913960400191505060405180910390fd5b6001600160a01b03808416600081815260046020908152604080832094871680845294825291829020859055815185815291517f8c5be1e5ebec7d5bd14f71427d1e84f3dd0314c0f7b2291e5b200ac8c7c3b9259281900390910190a3505050565b6001600160a01b0383166108825760405162461bcd60e51b8152600401808060200182810382526025815260200180610c3e6025913960400191505060405180910390fd5b6001600160a01b0382166108c75760405162461bcd60e51b8152600401808060200182810382526023815260200180610bd36023913960400191505060405180910390fd5b6001600160a01b0383166000908152600360205260409020546108f0908263ffffffff61098116565b6001600160a01b038085166000908152600360205260408082209390935590841681522054610925908263ffffffff6109de16565b6001600160a01b0380841660008181526003602090815260409182902094909455805185815290519193928716927fddf252ad1be2c89b69c2b068fc378daa952ba7f163c4a11628f55a4df523b3ef92918290030190a3505050565b6000828211156109d8576040805162461bcd60e51b815260206004820152601e60248201527f536166654d6174683a207375627472616374696f6e206f766572666c6f770000604482015290519081900360640190fd5b50900390565b600082820183811015610a38576040805162461bcd60e51b815260206004820152601b60248201527f536166654d6174683a206164646974696f6e206f766572666c6f770000000000604482015290519081900360640190fd5b9392505050565b6001600160a01b038216610a9a576040805162461bcd60e51b815260206004820152601f60248201527f45524332303a206d696e7420746f20746865207a65726f206164647265737300604482015290519081900360640190fd5b600554610aad908263ffffffff6109de16565b6005556001600160a01b038216600090815260036020526040902054610ad9908263ffffffff6109de16565b6001600160a01b03831660008181526003602090815260408083209490945583518581529351929391927fddf252ad1be2c89b69c2b068fc378daa952ba7f163c4a11628f55a4df523b3ef9281900390910190a35050565b6001600160a01b038116610b765760405162461bcd60e51b8152600401808060200182810382526026815260200180610bf66026913960400191505060405180910390fd5b6006546040516001600160a01b038084169216907f8be0079c531659141344cd1fd0a4f28419497f9722a3daafe3b4186f6b6457e090600090a3600680546001600160a01b0319166001600160a01b039290921691909117905556fe45524332303a207472616e7366657220746f20746865207a65726f20616464726573734f776e61626c653a206e6577206f776e657220697320746865207a65726f206164647265737345524332303a20617070726f766520746f20746865207a65726f206164647265737345524332303a207472616e736665722066726f6d20746865207a65726f206164647265737345524332303a20617070726f76652066726f6d20746865207a65726f2061646472657373a265627a7a72315820a4f40eabaab1f1b965dfd3e3e86a5cb862e1303f77e2eab02a7b9f9b1a33dcae64736f6c634300050c00324f776e61626c653a206e6577206f776e657220697320746865207a65726f20616464726573738be0079c531659141344cd1fd0a4f28419497f9722a3daafe3b4186f6b6457e0",
  "source": "pragma solidity 0.5.12;\nimport \"@openzeppelin/contracts/token/ERC20/ERC20.sol\";\nimport \"@openzeppelin/contracts/token/ERC20/ERC20Detailed.sol\";\nimport \"@openzeppelin/contracts/ownership/Ownable.sol\";\nimport \"./IPrivateCompany.sol\";\n\ncontract PrivateCompany is ERC20Detailed, ERC20, Ownable {\n    constructor(address intendedOwner, string memory name, string memory symbol)\n    //for simplicity, all company share tokens have 18 decimals (wei)\n    ERC20Detailed(name, symbol, 18)\n    public { \n        //Ownable by default sets msg.sender(Factory) as owner which we might not want\n        _transferOwnership(intendedOwner);\n    }\n\n    function mint(uint256 value) public onlyOwner{\n        _mint(msg.sender, value);\n    }\n\n}",
  "sourcePath": "/home/shups/Code/consensys_bdp_project_smartcontracts/contracts/PrivateCompany.sol",
  "compiler": {
    "name": "solc",
    "version": "0.5.12+commit.7709ece9.Emscripten.clang"
  },
  "schemaVersion": "3.0.16",
  "updatedAt": "2019-10-22T12:14:20.888Z",
  "devdoc": {
    "methods": {
      "allowance(address,address)": {
        "details": "See `IERC20.allowance`."
      },
      "approve(address,uint256)": {
        "details": "See `IERC20.approve`.     * Requirements:     * - `spender` cannot be the zero address."
      },
      "balanceOf(address)": {
        "details": "See `IERC20.balanceOf`."
      },
      "decimals()": {
        "details": "Returns the number of decimals used to get its user representation. For example, if `decimals` equals `2`, a balance of `505` tokens should be displayed to a user as `5,05` (`505 / 10 ** 2`).     * Tokens usually opt for a value of 18, imitating the relationship between Ether and Wei.     * > Note that this information is only used for _display_ purposes: it in no way affects any of the arithmetic of the contract, including `IERC20.balanceOf` and `IERC20.transfer`."
      },
      "decreaseAllowance(address,uint256)": {
        "details": "Atomically decreases the allowance granted to `spender` by the caller.     * This is an alternative to `approve` that can be used as a mitigation for problems described in `IERC20.approve`.     * Emits an `Approval` event indicating the updated allowance.     * Requirements:     * - `spender` cannot be the zero address. - `spender` must have allowance for the caller of at least `subtractedValue`."
      },
      "increaseAllowance(address,uint256)": {
        "details": "Atomically increases the allowance granted to `spender` by the caller.     * This is an alternative to `approve` that can be used as a mitigation for problems described in `IERC20.approve`.     * Emits an `Approval` event indicating the updated allowance.     * Requirements:     * - `spender` cannot be the zero address."
      },
      "isOwner()": {
        "details": "Returns true if the caller is the current owner."
      },
      "name()": {
        "details": "Returns the name of the token."
      },
      "owner()": {
        "details": "Returns the address of the current owner."
      },
      "renounceOwnership()": {
        "details": "Leaves the contract without owner. It will not be possible to call `onlyOwner` functions anymore. Can only be called by the current owner.     * > Note: Renouncing ownership will leave the contract without an owner, thereby removing any functionality that is only available to the owner."
      },
      "symbol()": {
        "details": "Returns the symbol of the token, usually a shorter version of the name."
      },
      "totalSupply()": {
        "details": "See `IERC20.totalSupply`."
      },
      "transfer(address,uint256)": {
        "details": "See `IERC20.transfer`.     * Requirements:     * - `recipient` cannot be the zero address. - the caller must have a balance of at least `amount`."
      },
      "transferFrom(address,address,uint256)": {
        "details": "See `IERC20.transferFrom`.     * Emits an `Approval` event indicating the updated allowance. This is not required by the EIP. See the note at the beginning of `ERC20`;     * Requirements: - `sender` and `recipient` cannot be the zero address. - `sender` must have a balance of at least `value`. - the caller must have allowance for `sender`'s tokens of at least `amount`."
      },
      "transferOwnership(address)": {
        "details": "Transfers ownership of the contract to a new account (`newOwner`). Can only be called by the current owner."
      }
    }
  },
  "userdoc": {
    "methods": {}
  }
}