{
  "contractName": "PrivateCompanyFactory",
  "abi": [
    {
      "anonymous": false,
      "inputs": [
        {
          "indexed": false,
          "internalType": "string",
          "name": "fileName",
          "type": "string"
        },
        {
          "indexed": false,
          "internalType": "uint256",
          "name": "branchId",
          "type": "uint256"
        }
      ],
      "name": "__AssertPostCoverageIPrivateCompanyFactory",
      "type": "event"
    },
    {
      "anonymous": false,
      "inputs": [
        {
          "indexed": false,
          "internalType": "string",
          "name": "fileName",
          "type": "string"
        },
        {
          "indexed": false,
          "internalType": "uint256",
          "name": "branchId",
          "type": "uint256"
        }
      ],
      "name": "__AssertPostCoveragePrivateCompanyFactory",
      "type": "event"
    },
    {
      "anonymous": false,
      "inputs": [
        {
          "indexed": false,
          "internalType": "string",
          "name": "fileName",
          "type": "string"
        },
        {
          "indexed": false,
          "internalType": "uint256",
          "name": "branchId",
          "type": "uint256"
        }
      ],
      "name": "__AssertPreCoverageIPrivateCompanyFactory",
      "type": "event"
    },
    {
      "anonymous": false,
      "inputs": [
        {
          "indexed": false,
          "internalType": "string",
          "name": "fileName",
          "type": "string"
        },
        {
          "indexed": false,
          "internalType": "uint256",
          "name": "branchId",
          "type": "uint256"
        }
      ],
      "name": "__AssertPreCoveragePrivateCompanyFactory",
      "type": "event"
    },
    {
      "anonymous": false,
      "inputs": [
        {
          "indexed": false,
          "internalType": "string",
          "name": "fileName",
          "type": "string"
        },
        {
          "indexed": false,
          "internalType": "uint256",
          "name": "branchId",
          "type": "uint256"
        },
        {
          "indexed": false,
          "internalType": "uint256",
          "name": "locationIdx",
          "type": "uint256"
        }
      ],
      "name": "__BranchCoverageIPrivateCompanyFactory",
      "type": "event"
    },
    {
      "anonymous": false,
      "inputs": [
        {
          "indexed": false,
          "internalType": "string",
          "name": "fileName",
          "type": "string"
        },
        {
          "indexed": false,
          "internalType": "uint256",
          "name": "branchId",
          "type": "uint256"
        },
        {
          "indexed": false,
          "internalType": "uint256",
          "name": "locationIdx",
          "type": "uint256"
        }
      ],
      "name": "__BranchCoveragePrivateCompanyFactory",
      "type": "event"
    },
    {
      "anonymous": false,
      "inputs": [
        {
          "indexed": false,
          "internalType": "string",
          "name": "fileName",
          "type": "string"
        },
        {
          "indexed": false,
          "internalType": "uint256",
          "name": "lineNumber",
          "type": "uint256"
        }
      ],
      "name": "__CoverageIPrivateCompanyFactory",
      "type": "event"
    },
    {
      "anonymous": false,
      "inputs": [
        {
          "indexed": false,
          "internalType": "string",
          "name": "fileName",
          "type": "string"
        },
        {
          "indexed": false,
          "internalType": "uint256",
          "name": "lineNumber",
          "type": "uint256"
        }
      ],
      "name": "__CoveragePrivateCompanyFactory",
      "type": "event"
    },
    {
      "anonymous": false,
      "inputs": [
        {
          "indexed": false,
          "internalType": "string",
          "name": "fileName",
          "type": "string"
        },
        {
          "indexed": false,
          "internalType": "uint256",
          "name": "fnId",
          "type": "uint256"
        }
      ],
      "name": "__FunctionCoverageIPrivateCompanyFactory",
      "type": "event"
    },
    {
      "anonymous": false,
      "inputs": [
        {
          "indexed": false,
          "internalType": "string",
          "name": "fileName",
          "type": "string"
        },
        {
          "indexed": false,
          "internalType": "uint256",
          "name": "fnId",
          "type": "uint256"
        }
      ],
      "name": "__FunctionCoveragePrivateCompanyFactory",
      "type": "event"
    },
    {
      "anonymous": false,
      "inputs": [
        {
          "indexed": false,
          "internalType": "string",
          "name": "fileName",
          "type": "string"
        },
        {
          "indexed": false,
          "internalType": "uint256",
          "name": "statementId",
          "type": "uint256"
        }
      ],
      "name": "__StatementCoverageIPrivateCompanyFactory",
      "type": "event"
    },
    {
      "anonymous": false,
      "inputs": [
        {
          "indexed": false,
          "internalType": "string",
          "name": "fileName",
          "type": "string"
        },
        {
          "indexed": false,
          "internalType": "uint256",
          "name": "statementId",
          "type": "uint256"
        }
      ],
      "name": "__StatementCoveragePrivateCompanyFactory",
      "type": "event"
    },
    {
      "anonymous": false,
      "inputs": [
        {
          "indexed": true,
          "internalType": "address",
          "name": "owner",
          "type": "address"
        },
        {
          "indexed": true,
          "internalType": "address",
          "name": "company",
          "type": "address"
        }
      ],
      "name": "newCompanyCreated",
      "type": "event"
    },
    {
      "constant": false,
      "inputs": [
        {
          "internalType": "address",
          "name": "intendedOwner",
          "type": "address"
        },
        {
          "internalType": "string",
          "name": "name",
          "type": "string"
        },
        {
          "internalType": "string",
          "name": "symbol",
          "type": "string"
        }
      ],
      "name": "newCompany",
      "outputs": [
        {
          "internalType": "address",
          "name": "",
          "type": "address"
        }
      ],
      "payable": false,
      "stateMutability": "nonpayable",
      "type": "function"
    }
  ],
  "bytecode": "0x608060405234801561001057600080fd5b506118df806100206000396000f3fe608060405234801561001057600080fd5b506004361061002b5760003560e01c80634b3c465c14610030575b600080fd5b61016d6004803603606081101561004657600080fd5b6001600160a01b03823516919081019060408101602082013564010000000081111561007157600080fd5b82018360208201111561008357600080fd5b803590602001918460018302840111640100000000831117156100a557600080fd5b91908080601f01602080910402602001604051908101604052809392919081815260200183838082843760009201919091525092959493602081019350359150506401000000008111156100f857600080fd5b82018360208201111561010a57600080fd5b8035906020019184600183028401116401000000008311171561012c57600080fd5b91908080601f016020809104026020016040519081016040528093929190818152602001838380828437600092019190915250929550610189945050505050565b604080516001600160a01b039092168252519081900360200190f35b60007f6d38b0bb8681e01251804458c82dd6dd52ba0043fe12637eb79dba8c039fa2356001604051808060200183815260200182810382526047815260200180611864604791396060019250505060405180910390a17fae961f7c5874c410fe5d690dc2c34161915cf70db5d66528b25de15dcc837c1f600d604051808060200183815260200182810382526047815260200180611864604791396060019250505060405180910390a17f298da33fc7e8e75aadc5a9bf1f58d49b52be0f0c399788650526357d0d395c0d6001604051808060200183815260200182810382526047815260200180611864604791396060019250505060405180910390a1600084848460405161029890610531565b6001600160a01b0384168152606060208083018281528551928401929092528451604084019160808501919087019080838360005b838110156102e55781810151838201526020016102cd565b50505050905090810190601f1680156103125780820380516001836020036101000a031916815260200191505b50838103825284518152845160209182019186019080838360005b8381101561034557818101518382015260200161032d565b50505050905090810190601f1680156103725780820380516001836020036101000a031916815260200191505b5095505050505050604051809103906000f080158015610396573d6000803e3d6000fd5b5090507fae961f7c5874c410fe5d690dc2c34161915cf70db5d66528b25de15dcc837c1f600e604051808060200183815260200182810382526047815260200180611864604791396060019250505060405180910390a17f298da33fc7e8e75aadc5a9bf1f58d49b52be0f0c399788650526357d0d395c0d6002604051808060200183815260200182810382526047815260200180611864604791396060019250505060405180910390a1806001600160a01b0316856001600160a01b03167f9867161b60e306feb8dabb8f1dd2c4eb7a3e7e16b07f81a4fb625013f1b6982b60405160405180910390a37fae961f7c5874c410fe5d690dc2c34161915cf70db5d66528b25de15dcc837c1f600f604051808060200183815260200182810382526047815260200180611864604791396060019250505060405180910390a17f298da33fc7e8e75aadc5a9bf1f58d49b52be0f0c399788650526357d0d395c0d6003604051808060200183815260200182810382526047815260200180611864604791396060019250505060405180910390a1949350505050565b6113258061053f8339019056fe60806040523480156200001157600080fd5b506040516200132538038062001325833981810160405260608110156200003757600080fd5b8151602083018051604051929492938301929190846401000000008211156200005f57600080fd5b9083019060208201858111156200007557600080fd5b82516401000000008111828201881017156200009057600080fd5b82525081516020918201929091019080838360005b83811015620000bf578181015183820152602001620000a5565b50505050905090810190601f168015620000ed5780820380516001836020036101000a031916815260200191505b50604052602001805160405193929190846401000000008211156200011157600080fd5b9083019060208201858111156200012757600080fd5b82516401000000008111828201881017156200014257600080fd5b82525081516020918201929091019080838360005b838110156200017157818101518382015260200162000157565b50505050905090810190601f1680156200019f5780820380516001836020036101000a031916815260200191505b50604052505050818160128260009080519060200190620001c2929190620003f3565b508151620001d8906001906020850190620003f3565b506002805460ff90921660ff199092169190911790555050600680546001600160a01b0319163317908190556040516001600160a01b039190911690600090600080516020620012c5833981519152908290a37f8c5718817bfe722a3fe690f3c8034c0d5e173cc919c41dea9982b6857889f42e6001604051808060200183815260200182810382526040815260200180620012e5604091396040019250505060405180910390a17f97cdb74c945a33588bc1383e974f213d096082a820534fceb3ed0990cf22bc0f600d604051808060200183815260200182810382526040815260200180620012e5604091396040019250505060405180910390a17f65fe7df4009711d59a735fd5ffd8947ce5e03545e5b475b6f8b9b820d52f2e296001604051808060200183815260200182810382526040815260200180620012e5604091396040019250505060405180910390a16200033e836001600160e01b036200034716565b50505062000498565b6001600160a01b038116620003a8576040517f08c379a00000000000000000000000000000000000000000000000000000000081526004018080602001828103825260268152602001806200129f6026913960400191505060405180910390fd5b6006546040516001600160a01b03808416921690600080516020620012c583398151915290600090a3600680546001600160a01b0319166001600160a01b0392909216919091179055565b828054600181600116156101000203166002900490600052602060002090601f016020900481019282601f106200043657805160ff191683800117855562000466565b8280016001018555821562000466579182015b828111156200046657825182559160200191906001019062000449565b506200047492915062000478565b5090565b6200049591905b808211156200047457600081556001016200047f565b90565b610df780620004a86000396000f3fe608060405234801561001057600080fd5b50600436106101005760003560e01c80638da5cb5b11610097578063a457c2d711610066578063a457c2d7146102dd578063a9059cbb14610309578063dd62ed3e14610335578063f2fde38b1461036357610100565b80638da5cb5b1461028c5780638f32d59b146102b057806395d89b41146102b8578063a0712d68146102c057610100565b8063313ce567116100d3578063313ce56714610212578063395093511461023057806370a082311461025c578063715018a61461028257610100565b806306fdde0314610105578063095ea7b31461018257806318160ddd146101c257806323b872dd146101dc575b600080fd5b61010d610389565b6040805160208082528351818301528351919283929083019185019080838360005b8381101561014757818101518382015260200161012f565b50505050905090810190601f1680156101745780820380516001836020036101000a031916815260200191505b509250505060405180910390f35b6101ae6004803603604081101561019857600080fd5b506001600160a01b03813516906020013561041f565b604080519115158252519081900360200190f35b6101ca610435565b60408051918252519081900360200190f35b6101ae600480360360608110156101f257600080fd5b506001600160a01b0381358116916020810135909116906040013561043b565b61021a610492565b6040805160ff9092168252519081900360200190f35b6101ae6004803603604081101561024657600080fd5b506001600160a01b03813516906020013561049b565b6101ca6004803603602081101561027257600080fd5b50356001600160a01b03166104d7565b61028a6104f2565b005b610294610595565b604080516001600160a01b039092168252519081900360200190f35b6101ae6105a4565b61010d6105b5565b61028a600480360360208110156102d657600080fd5b5035610615565b6101ae600480360360408110156102f357600080fd5b506001600160a01b038135169060200135610777565b6101ae6004803603604081101561031f57600080fd5b506001600160a01b0381351690602001356107b3565b6101ca6004803603604081101561034b57600080fd5b506001600160a01b03813581169160200135166107c0565b61028a6004803603602081101561037957600080fd5b50356001600160a01b03166107eb565b60008054604080516020601f60026000196101006001881615020190951694909404938401819004810282018101909252828152606093909290918301828280156104155780601f106103ea57610100808354040283529160200191610415565b820191906000526020600020905b8154815290600101906020018083116103f857829003601f168201915b5050505050905090565b600061042c33848461084d565b50600192915050565b60055490565b6000610448848484610939565b6001600160a01b038416600090815260046020908152604080832033808552925290912054610488918691610483908663ffffffff610a7d16565b61084d565b5060019392505050565b60025460ff1690565b3360008181526004602090815260408083206001600160a01b0387168452909152812054909161042c918590610483908663ffffffff610ada16565b6001600160a01b031660009081526003602052604090205490565b6104fa6105a4565b61054b576040805162461bcd60e51b815260206004820181905260248201527f4f776e61626c653a2063616c6c6572206973206e6f7420746865206f776e6572604482015290519081900360640190fd5b6006546040516000916001600160a01b0316907f8be0079c531659141344cd1fd0a4f28419497f9722a3daafe3b4186f6b6457e0908390a3600680546001600160a01b0319169055565b6006546001600160a01b031690565b6006546001600160a01b0316331490565b60018054604080516020601f600260001961010087891615020190951694909404938401819004810282018101909252828152606093909290918301828280156104155780601f106103ea57610100808354040283529160200191610415565b61061d6105a4565b61066e576040805162461bcd60e51b815260206004820181905260248201527f4f776e61626c653a2063616c6c6572206973206e6f7420746865206f776e6572604482015290519081900360640190fd5b7f8c5718817bfe722a3fe690f3c8034c0d5e173cc919c41dea9982b6857889f42e6002604051808060200183815260200182810382526040815260200180610d83604091396040019250505060405180910390a17f97cdb74c945a33588bc1383e974f213d096082a820534fceb3ed0990cf22bc0f6011604051808060200183815260200182810382526040815260200180610d83604091396040019250505060405180910390a17f65fe7df4009711d59a735fd5ffd8947ce5e03545e5b475b6f8b9b820d52f2e296002604051808060200183815260200182810382526040815260200180610d83604091396040019250505060405180910390a16107743382610b3b565b50565b3360008181526004602090815260408083206001600160a01b0387168452909152812054909161042c918590610483908663ffffffff610a7d16565b600061042c338484610939565b6001600160a01b03918216600090815260046020908152604080832093909416825291909152205490565b6107f36105a4565b610844576040805162461bcd60e51b815260206004820181905260248201527f4f776e61626c653a2063616c6c6572206973206e6f7420746865206f776e6572604482015290519081900360640190fd5b61077481610c2d565b6001600160a01b0383166108925760405162461bcd60e51b8152600401808060200182810382526024815260200180610d5f6024913960400191505060405180910390fd5b6001600160a01b0382166108d75760405162461bcd60e51b8152600401808060200182810382526022815260200180610d186022913960400191505060405180910390fd5b6001600160a01b03808416600081815260046020908152604080832094871680845294825291829020859055815185815291517f8c5be1e5ebec7d5bd14f71427d1e84f3dd0314c0f7b2291e5b200ac8c7c3b9259281900390910190a3505050565b6001600160a01b03831661097e5760405162461bcd60e51b8152600401808060200182810382526025815260200180610d3a6025913960400191505060405180910390fd5b6001600160a01b0382166109c35760405162461bcd60e51b8152600401808060200182810382526023815260200180610ccf6023913960400191505060405180910390fd5b6001600160a01b0383166000908152600360205260409020546109ec908263ffffffff610a7d16565b6001600160a01b038085166000908152600360205260408082209390935590841681522054610a21908263ffffffff610ada16565b6001600160a01b0380841660008181526003602090815260409182902094909455805185815290519193928716927fddf252ad1be2c89b69c2b068fc378daa952ba7f163c4a11628f55a4df523b3ef92918290030190a3505050565b600082821115610ad4576040805162461bcd60e51b815260206004820152601e60248201527f536166654d6174683a207375627472616374696f6e206f766572666c6f770000604482015290519081900360640190fd5b50900390565b600082820183811015610b34576040805162461bcd60e51b815260206004820152601b60248201527f536166654d6174683a206164646974696f6e206f766572666c6f770000000000604482015290519081900360640190fd5b9392505050565b6001600160a01b038216610b96576040805162461bcd60e51b815260206004820152601f60248201527f45524332303a206d696e7420746f20746865207a65726f206164647265737300604482015290519081900360640190fd5b600554610ba9908263ffffffff610ada16565b6005556001600160a01b038216600090815260036020526040902054610bd5908263ffffffff610ada16565b6001600160a01b03831660008181526003602090815260408083209490945583518581529351929391927fddf252ad1be2c89b69c2b068fc378daa952ba7f163c4a11628f55a4df523b3ef9281900390910190a35050565b6001600160a01b038116610c725760405162461bcd60e51b8152600401808060200182810382526026815260200180610cf26026913960400191505060405180910390fd5b6006546040516001600160a01b038084169216907f8be0079c531659141344cd1fd0a4f28419497f9722a3daafe3b4186f6b6457e090600090a3600680546001600160a01b0319166001600160a01b039290921691909117905556fe45524332303a207472616e7366657220746f20746865207a65726f20616464726573734f776e61626c653a206e6577206f776e657220697320746865207a65726f206164647265737345524332303a20617070726f766520746f20746865207a65726f206164647265737345524332303a207472616e736665722066726f6d20746865207a65726f206164647265737345524332303a20617070726f76652066726f6d20746865207a65726f20616464726573732f686f6d652f7368756c6f682f436f64652f656e74616e676c652d65786368616e67652f636f6e7472616374732f50726976617465436f6d70616e792e736f6ca265627a7a72315820c16a9b0aa837b88f2897fa4eb3aeb3c262e4de609cb163a72a6b407cde426acd64736f6c634300050c00324f776e61626c653a206e6577206f776e657220697320746865207a65726f20616464726573738be0079c531659141344cd1fd0a4f28419497f9722a3daafe3b4186f6b6457e02f686f6d652f7368756c6f682f436f64652f656e74616e676c652d65786368616e67652f636f6e7472616374732f50726976617465436f6d70616e792e736f6c2f686f6d652f7368756c6f682f436f64652f656e74616e676c652d65786368616e67652f636f6e7472616374732f50726976617465436f6d70616e79466163746f72792e736f6ca265627a7a72315820bb60124c3337fcc2b5a2fe0561740ff401079fda4a2de6265cd0424977a6ee9964736f6c634300050c0032",
  "source": "pragma solidity 0.5.12;\nimport \"./PrivateCompany.sol\";\nimport \"./IPrivateCompanyFactory.sol\";\n\ncontract PrivateCompanyFactory is IPrivateCompanyFactory {event __CoveragePrivateCompanyFactory(string fileName, uint256 lineNumber);\nevent __FunctionCoveragePrivateCompanyFactory(string fileName, uint256 fnId);\nevent __StatementCoveragePrivateCompanyFactory(string fileName, uint256 statementId);\nevent __BranchCoveragePrivateCompanyFactory(string fileName, uint256 branchId, uint256 locationIdx);\nevent __AssertPreCoveragePrivateCompanyFactory(string fileName, uint256 branchId);\nevent __AssertPostCoveragePrivateCompanyFactory(string fileName, uint256 branchId);\n\n\n    function newCompany(\n        address intendedOwner,\n        string memory name,\n        string memory symbol\n    )\n    public returns (address) {emit __FunctionCoveragePrivateCompanyFactory('/home/shuloh/Code/entangle-exchange/contracts/PrivateCompanyFactory.sol',1);\n\nemit __CoveragePrivateCompanyFactory('/home/shuloh/Code/entangle-exchange/contracts/PrivateCompanyFactory.sol',13);\n        emit __StatementCoveragePrivateCompanyFactory('/home/shuloh/Code/entangle-exchange/contracts/PrivateCompanyFactory.sol',1);\nPrivateCompany c = new PrivateCompany(intendedOwner, name, symbol);\nemit __CoveragePrivateCompanyFactory('/home/shuloh/Code/entangle-exchange/contracts/PrivateCompanyFactory.sol',14);\n        emit __StatementCoveragePrivateCompanyFactory('/home/shuloh/Code/entangle-exchange/contracts/PrivateCompanyFactory.sol',2);\nemit newCompanyCreated(intendedOwner, address(c));\nemit __CoveragePrivateCompanyFactory('/home/shuloh/Code/entangle-exchange/contracts/PrivateCompanyFactory.sol',15);\n        emit __StatementCoveragePrivateCompanyFactory('/home/shuloh/Code/entangle-exchange/contracts/PrivateCompanyFactory.sol',3);\nreturn address(c);\n    }\n}",
  "sourcePath": "/home/shuloh/Code/entangle-exchange/coverageEnv/contracts/PrivateCompanyFactory.sol",
  "compiler": {
    "name": "solc",
    "version": "0.5.12+commit.7709ece9.Emscripten.clang"
  },
  "schemaVersion": "3.0.16",
  "updatedAt": "2019-10-27T06:16:24.824Z",
  "devdoc": {
    "methods": {}
  },
  "userdoc": {
    "methods": {}
  }
}