{
  "contractName": "PrivateExchangeLogic",
  "abi": [
    {
      "anonymous": false,
      "inputs": [
        {
          "indexed": true,
          "internalType": "address",
          "name": "owner",
          "type": "address"
        },
        {
          "indexed": true,
          "internalType": "address",
          "name": "company",
          "type": "address"
        }
      ],
      "name": "CompanyDelisted",
      "type": "event"
    },
    {
      "anonymous": false,
      "inputs": [
        {
          "indexed": true,
          "internalType": "address",
          "name": "owner",
          "type": "address"
        },
        {
          "indexed": true,
          "internalType": "address",
          "name": "company",
          "type": "address"
        }
      ],
      "name": "CompanyListed",
      "type": "event"
    },
    {
      "anonymous": false,
      "inputs": [
        {
          "indexed": true,
          "internalType": "address",
          "name": "company",
          "type": "address"
        },
        {
          "indexed": false,
          "internalType": "uint256",
          "name": "price",
          "type": "uint256"
        }
      ],
      "name": "CompanyPriceUpdated",
      "type": "event"
    },
    {
      "anonymous": false,
      "inputs": [],
      "name": "ExchangeClosed",
      "type": "event"
    },
    {
      "anonymous": false,
      "inputs": [],
      "name": "ExchangeOpened",
      "type": "event"
    },
    {
      "anonymous": false,
      "inputs": [
        {
          "indexed": true,
          "internalType": "address",
          "name": "account",
          "type": "address"
        },
        {
          "indexed": false,
          "internalType": "uint256",
          "name": "amount",
          "type": "uint256"
        }
      ],
      "name": "ExchangeTokenBought",
      "type": "event"
    },
    {
      "anonymous": false,
      "inputs": [
        {
          "indexed": true,
          "internalType": "address",
          "name": "account",
          "type": "address"
        },
        {
          "indexed": false,
          "internalType": "uint256",
          "name": "amount",
          "type": "uint256"
        }
      ],
      "name": "ExchangeTokenSold",
      "type": "event"
    },
    {
      "anonymous": false,
      "inputs": [
        {
          "indexed": true,
          "internalType": "address",
          "name": "previousOwner",
          "type": "address"
        },
        {
          "indexed": true,
          "internalType": "address",
          "name": "newOwner",
          "type": "address"
        }
      ],
      "name": "OwnershipTransferred",
      "type": "event"
    },
    {
      "anonymous": false,
      "inputs": [
        {
          "indexed": true,
          "internalType": "address",
          "name": "company",
          "type": "address"
        },
        {
          "indexed": true,
          "internalType": "address",
          "name": "buyer",
          "type": "address"
        },
        {
          "indexed": true,
          "internalType": "address",
          "name": "seller",
          "type": "address"
        },
        {
          "indexed": false,
          "internalType": "uint256",
          "name": "amount",
          "type": "uint256"
        },
        {
          "indexed": false,
          "internalType": "uint256",
          "name": "price",
          "type": "uint256"
        }
      ],
      "name": "ShareTransaction",
      "type": "event"
    },
    {
      "constant": true,
      "inputs": [],
      "name": "exchangeToken",
      "outputs": [
        {
          "internalType": "contract IPrivateCompany",
          "name": "",
          "type": "address"
        }
      ],
      "payable": false,
      "stateMutability": "view",
      "type": "function"
    },
    {
      "constant": true,
      "inputs": [],
      "name": "isOwner",
      "outputs": [
        {
          "internalType": "bool",
          "name": "",
          "type": "bool"
        }
      ],
      "payable": false,
      "stateMutability": "view",
      "type": "function"
    },
    {
      "constant": true,
      "inputs": [
        {
          "internalType": "uint256",
          "name": "",
          "type": "uint256"
        }
      ],
      "name": "listedCompanies",
      "outputs": [
        {
          "internalType": "contract IPrivateCompany",
          "name": "",
          "type": "address"
        }
      ],
      "payable": false,
      "stateMutability": "view",
      "type": "function"
    },
    {
      "constant": true,
      "inputs": [
        {
          "internalType": "address",
          "name": "",
          "type": "address"
        }
      ],
      "name": "listedCompanyPrices",
      "outputs": [
        {
          "internalType": "uint256",
          "name": "",
          "type": "uint256"
        }
      ],
      "payable": false,
      "stateMutability": "view",
      "type": "function"
    },
    {
      "constant": true,
      "inputs": [],
      "name": "owner",
      "outputs": [
        {
          "internalType": "address",
          "name": "",
          "type": "address"
        }
      ],
      "payable": false,
      "stateMutability": "view",
      "type": "function"
    },
    {
      "constant": true,
      "inputs": [
        {
          "internalType": "address",
          "name": "",
          "type": "address"
        },
        {
          "internalType": "uint256",
          "name": "",
          "type": "uint256"
        }
      ],
      "name": "ownerCompanies",
      "outputs": [
        {
          "internalType": "contract IPrivateCompany",
          "name": "",
          "type": "address"
        }
      ],
      "payable": false,
      "stateMutability": "view",
      "type": "function"
    },
    {
      "constant": false,
      "inputs": [],
      "name": "renounceOwnership",
      "outputs": [],
      "payable": false,
      "stateMutability": "nonpayable",
      "type": "function"
    },
    {
      "constant": false,
      "inputs": [
        {
          "internalType": "address",
          "name": "newOwner",
          "type": "address"
        }
      ],
      "name": "transferOwnership",
      "outputs": [],
      "payable": false,
      "stateMutability": "nonpayable",
      "type": "function"
    },
    {
      "constant": false,
      "inputs": [
        {
          "internalType": "address",
          "name": "owner",
          "type": "address"
        },
        {
          "internalType": "address",
          "name": "companyFactory",
          "type": "address"
        },
        {
          "internalType": "string",
          "name": "name",
          "type": "string"
        },
        {
          "internalType": "string",
          "name": "symbol",
          "type": "string"
        }
      ],
      "name": "initialize",
      "outputs": [],
      "payable": false,
      "stateMutability": "nonpayable",
      "type": "function"
    },
    {
      "constant": true,
      "inputs": [],
      "name": "numberOfListedCompanies",
      "outputs": [
        {
          "internalType": "uint256",
          "name": "",
          "type": "uint256"
        }
      ],
      "payable": false,
      "stateMutability": "view",
      "type": "function"
    },
    {
      "constant": true,
      "inputs": [],
      "name": "numberOfOwnedCompanies",
      "outputs": [
        {
          "internalType": "uint256",
          "name": "",
          "type": "uint256"
        }
      ],
      "payable": false,
      "stateMutability": "view",
      "type": "function"
    },
    {
      "constant": true,
      "inputs": [],
      "name": "isOpen",
      "outputs": [
        {
          "internalType": "bool",
          "name": "",
          "type": "bool"
        }
      ],
      "payable": false,
      "stateMutability": "view",
      "type": "function"
    },
    {
      "constant": true,
      "inputs": [],
      "name": "exchangeTokenStaked",
      "outputs": [
        {
          "internalType": "uint256",
          "name": "",
          "type": "uint256"
        }
      ],
      "payable": false,
      "stateMutability": "view",
      "type": "function"
    },
    {
      "constant": true,
      "inputs": [],
      "name": "exchangeTokenBalance",
      "outputs": [
        {
          "internalType": "uint256",
          "name": "",
          "type": "uint256"
        }
      ],
      "payable": false,
      "stateMutability": "view",
      "type": "function"
    },
    {
      "constant": false,
      "inputs": [],
      "name": "buyExchangeToken",
      "outputs": [],
      "payable": true,
      "stateMutability": "payable",
      "type": "function"
    },
    {
      "constant": false,
      "inputs": [
        {
          "internalType": "uint256",
          "name": "amount",
          "type": "uint256"
        }
      ],
      "name": "sellExchangeToken",
      "outputs": [],
      "payable": true,
      "stateMutability": "payable",
      "type": "function"
    },
    {
      "constant": false,
      "inputs": [
        {
          "internalType": "address",
          "name": "company",
          "type": "address"
        },
        {
          "internalType": "uint256",
          "name": "amount",
          "type": "uint256"
        }
      ],
      "name": "buyCompanyShares",
      "outputs": [],
      "payable": false,
      "stateMutability": "nonpayable",
      "type": "function"
    },
    {
      "constant": false,
      "inputs": [
        {
          "internalType": "address",
          "name": "company",
          "type": "address"
        },
        {
          "internalType": "uint256",
          "name": "price",
          "type": "uint256"
        }
      ],
      "name": "updateCompanyPrice",
      "outputs": [],
      "payable": false,
      "stateMutability": "nonpayable",
      "type": "function"
    },
    {
      "constant": false,
      "inputs": [
        {
          "internalType": "string",
          "name": "name",
          "type": "string"
        },
        {
          "internalType": "string",
          "name": "symbol",
          "type": "string"
        },
        {
          "internalType": "uint256",
          "name": "price",
          "type": "uint256"
        }
      ],
      "name": "createCompanyAndList",
      "outputs": [],
      "payable": false,
      "stateMutability": "nonpayable",
      "type": "function"
    },
    {
      "constant": false,
      "inputs": [
        {
          "internalType": "address",
          "name": "company",
          "type": "address"
        },
        {
          "internalType": "uint256",
          "name": "price",
          "type": "uint256"
        }
      ],
      "name": "listCompany",
      "outputs": [],
      "payable": false,
      "stateMutability": "nonpayable",
      "type": "function"
    },
    {
      "constant": false,
      "inputs": [
        {
          "internalType": "address",
          "name": "company",
          "type": "address"
        }
      ],
      "name": "delistCompany",
      "outputs": [],
      "payable": false,
      "stateMutability": "nonpayable",
      "type": "function"
    },
    {
      "constant": false,
      "inputs": [
        {
          "internalType": "bool",
          "name": "value",
          "type": "bool"
        }
      ],
      "name": "switchOpenMode",
      "outputs": [],
      "payable": false,
      "stateMutability": "nonpayable",
      "type": "function"
    },
    {
      "constant": false,
      "inputs": [
        {
          "internalType": "address",
          "name": "companyFactory",
          "type": "address"
        }
      ],
      "name": "upgradeCompanyFactory",
      "outputs": [],
      "payable": false,
      "stateMutability": "nonpayable",
      "type": "function"
    }
  ],
  "bytecode": "0x60806040819052603380546001600160a01b0319163317908190556001600160a01b0316906000907f8be0079c531659141344cd1fd0a4f28419497f9722a3daafe3b4186f6b6457e0908290a36120ab8061005b6000396000f3fe60806040526004361061013f5760003560e01c8063874ff685116100b6578063bbf25bdd1161006f578063bbf25bdd146105e6578063bf65a37e146105fb578063de4b6aa514610625578063ea26674f14610658578063ec79966a1461068b578063f2fde38b146106c45761013f565b8063874ff6851461054a57806389da69271461057d5780638a9ec2a9146105925780638da5cb5b146105a75780638f32d59b146105bc578063a25eb5d9146105d15761013f565b806342c31b8e1161010857806342c31b8e1461031f57806347535d7b1461034657806350e954411461036f5780635c73a9ac146104a757806368b8e6cb146104fc578063715018a6146105355761013f565b8062166d081461014457806315f2e7ec146101725780632016a0d21461017a578063330b313d146102c9578063386f6d6a146102e6575b600080fd5b34801561015057600080fd5b506101706004803603602081101561016757600080fd5b503515156106f7565b005b6101706107b0565b34801561018657600080fd5b506101706004803603608081101561019d57600080fd5b6001600160a01b038235811692602081013590911691810190606081016040820135600160201b8111156101d057600080fd5b8201836020820111156101e257600080fd5b803590602001918460018302840111600160201b8311171561020357600080fd5b91908080601f0160208091040260200160405190810160405280939291908181526020018383808284376000920191909152509295949360208101935035915050600160201b81111561025557600080fd5b82018360208201111561026757600080fd5b803590602001918460018302840111600160201b8311171561028857600080fd5b91908080601f01602080910402602001604051908101604052809392919081815260200183838082843760009201919091525092955061096c945050505050565b610170600480360360208110156102df57600080fd5b5035610a64565b3480156102f257600080fd5b506101706004803603604081101561030957600080fd5b506001600160a01b038135169060200135610bcc565b34801561032b57600080fd5b50610334610c2c565b60408051918252519081900360200190f35b34801561035257600080fd5b5061035b610c3f565b604080519115158252519081900360200190f35b34801561037b57600080fd5b506101706004803603606081101561039257600080fd5b810190602081018135600160201b8111156103ac57600080fd5b8201836020820111156103be57600080fd5b803590602001918460018302840111600160201b831117156103df57600080fd5b91908080601f0160208091040260200160405190810160405280939291908181526020018383808284376000920191909152509295949360208101935035915050600160201b81111561043157600080fd5b82018360208201111561044357600080fd5b803590602001918460018302840111600160201b8311171561046457600080fd5b91908080601f0160208091040260200160405190810160405280939291908181526020018383808284376000920191909152509295505091359250610c48915050565b3480156104b357600080fd5b506104e0600480360360408110156104ca57600080fd5b506001600160a01b038135169060200135610e3e565b604080516001600160a01b039092168252519081900360200190f35b34801561050857600080fd5b506101706004803603604081101561051f57600080fd5b506001600160a01b038135169060200135610e73565b34801561054157600080fd5b506101706112a9565b34801561055657600080fd5b506103346004803603602081101561056d57600080fd5b50356001600160a01b031661133a565b34801561058957600080fd5b5061033461134c565b34801561059e57600080fd5b50610334611352565b3480156105b357600080fd5b506104e06113d4565b3480156105c857600080fd5b5061035b6113e3565b3480156105dd57600080fd5b506104e06113f4565b3480156105f257600080fd5b50610334611403565b34801561060757600080fd5b506104e06004803603602081101561061e57600080fd5b503561144e565b34801561063157600080fd5b506101706004803603602081101561064857600080fd5b50356001600160a01b0316611475565b34801561066457600080fd5b506101706004803603602081101561067b57600080fd5b50356001600160a01b03166114e4565b34801561069757600080fd5b50610170600480360360408110156106ae57600080fd5b506001600160a01b038135169060200135611534565b3480156106d057600080fd5b50610170600480360360208110156106e757600080fd5b50356001600160a01b03166116eb565b6106ff6113e3565b61073e576040805162461bcd60e51b81526020600482018190526024820152600080516020612029833981519152604482015290519081900360640190fd5b6038805460ff19168215801591909117909155610783576040517fc2320542f27067faab4fb23c212d85b173ce523f95ed8fe6938a321d6855fee990600090a16107ad565b6040517fe3e6ecd3c9014a95ac75a3756472b14f530f21ac013840eff43cb402205fdb9c90600090a15b50565b6107b8610c3f565b6107fc576040805162461bcd60e51b815260206004820152601060248201526f6e6f7420696e206f70656e206d6f646560801b604482015290519081900360640190fd5b60003411610851576040805162461bcd60e51b815260206004820152601a60248201527f76616c7565206e6565647320746f206265206e6f6e2d7a65726f000000000000604482015290519081900360640190fd5b6034546040805163140e25ad60e31b815234600482015290516001600160a01b039092169163a0712d689160248082019260009290919082900301818387803b15801561089d57600080fd5b505af11580156108b1573d6000803e3d6000fd5b50506034546040805163a9059cbb60e01b815233600482015234602482015290516001600160a01b03909216935063a9059cbb92506044808201926020929091908290030181600087803b15801561090857600080fd5b505af115801561091c573d6000803e3d6000fd5b505050506040513d602081101561093257600080fd5b505060408051348152905133917f3239ac9c3e521589db4968fa4558c881b4d4a59208af0fd54c7b5b141fe583e4919081900360200190a2565b600054610100900460ff1680610985575061098561173b565b80610993575060005460ff16155b6109ce5760405162461bcd60e51b815260040180806020018281038252602e815260200180612049602e913960400191505060405180910390fd5b600054610100900460ff161580156109f9576000805460ff1961ff0019909116610100171660011790555b610a0285611741565b603880546001600160a81b0319166101006001600160a01b03871602179055610a2b83836117e2565b603480546001600160a01b0319166001600160a01b03929092169190911790558015610a5d576000805461ff00191690555b5050505050565b610a6c610c3f565b610ab0576040805162461bcd60e51b815260206004820152601060248201526f6e6f7420696e206f70656e206d6f646560801b604482015290519081900360640190fd5b603454604080516323b872dd60e01b81523360048201523060248201526044810184905290516001600160a01b03909216916323b872dd916064808201926020929091908290030181600087803b158015610b0a57600080fd5b505af1158015610b1e573d6000803e3d6000fd5b505050506040513d6020811015610b3457600080fd5b505060345460408051630852cd8d60e31b81526004810184905290516001600160a01b03909216916342966c689160248082019260009290919082900301818387803b158015610b8357600080fd5b505af1158015610b97573d6000803e3d6000fd5b505060405133925083156108fc02915083906000818181858888f19350505050158015610bc8573d6000803e3d6000fd5b5050565b610bd46113e3565b610c13576040805162461bcd60e51b81526020600482018190526024820152600080516020612029833981519152604482015290519081900360640190fd5b81610c1e81836117f8565b610c278161184c565b505050565b3360009081526037602052604090205490565b60385460ff1690565b610c50610c3f565b610c94576040805162461bcd60e51b815260206004820152601060248201526f6e6f7420696e206f70656e206d6f646560801b604482015290519081900360640190fd5b6040805160008152602080820180845282519020865190938493889391019182918401908083835b60208310610cdb5780518252601f199092019160209182019101610cbc565b6001836020036101000a038019825116818451168082178552505050505050905001915050604051602081830303815290604052805190602001201415610d5c576040805162461bcd60e51b815260206004820152601060248201526f32b6b83a3c903730b6b29033b4bb32b760811b604482015290519081900360640190fd5b80836040516020018082805190602001908083835b60208310610d905780518252601f199092019160209182019101610d71565b6001836020036101000a038019825116818451168082178552505050505050905001915050604051602081830303815290604052805190602001201415610e13576040805162461bcd60e51b815260206004820152601260248201527132b6b83a3c9039bcb6b137b61033b4bb32b760711b604482015290519081900360640190fd5b336000610e218287876119da565b9050610e2c8161184c565b610e3681856117f8565b505050505050565b60376020528160005260406000208181548110610e5757fe5b6000918252602090912001546001600160a01b03169150829050565b610e7b610c3f565b610ebf576040805162461bcd60e51b815260206004820152601060248201526f6e6f7420696e206f70656e206d6f646560801b604482015290519081900360640190fd5b610ec882611b3a565b610f10576040805162461bcd60e51b81526020600482015260146024820152736e6f742061206c697374656420636f6d70616e7960601b604482015290519081900360640190fd5b6001600160a01b0382166000818152603560209081526040808320548151638da5cb5b60e01b8152915190943394889490939192638da5cb5b926004808201939291829003018186803b158015610f6657600080fd5b505afa158015610f7a573d6000803e3d6000fd5b505050506040513d6020811015610f9057600080fd5b505190506000610fbe670de0b6b3a7640000610fb2888863ffffffff611b5716565b9063ffffffff611bb016565b60408051636eb1769f60e11b81526001600160a01b03858116600483015230602483015291519293506000929186169163dd62ed3e91604480820192602092909190829003018186803b15801561101457600080fd5b505afa158015611028573d6000803e3d6000fd5b505050506040513d602081101561103e57600080fd5b50519050868110156110815760405162461bcd60e51b8152600401808060200182810382526036815260200180611f496036913960400191505060405180910390fd5b60345460408051636eb1769f60e11b81526001600160a01b03888116600483015230602483015291518593929092169163dd62ed3e91604480820192602092909190829003018186803b1580156110d757600080fd5b505afa1580156110eb573d6000803e3d6000fd5b505050506040513d602081101561110157600080fd5b505110156111405760405162461bcd60e51b815260040180806020018281038252603e815260200180611f7f603e913960400191505060405180910390fd5b604080516323b872dd60e01b81526001600160a01b0385811660048301528781166024830152604482018a90529151918616916323b872dd916064808201926020929091908290030181600087803b15801561119b57600080fd5b505af11580156111af573d6000803e3d6000fd5b505050506040513d60208110156111c557600080fd5b5050603454604080516323b872dd60e01b81526001600160a01b038881166004830152868116602483015260448201869052915191909216916323b872dd9160648083019260209291908290030181600087803b15801561122557600080fd5b505af1158015611239573d6000803e3d6000fd5b505050506040513d602081101561124f57600080fd5b5050604080518881526020810188905281516001600160a01b038087169389821693918d16927f520d7599dc1568f101febb1a97b5297f877f744199a603449874ae8826f57c9e9281900390910190a45050505050505050565b6112b16113e3565b6112f0576040805162461bcd60e51b81526020600482018190526024820152600080516020612029833981519152604482015290519081900360640190fd5b6033546040516000916001600160a01b0316907f8be0079c531659141344cd1fd0a4f28419497f9722a3daafe3b4186f6b6457e0908390a3603380546001600160a01b0319169055565b60356020526000908152604090205481565b60365490565b60345460408051636eb1769f60e11b815233600482015230602482015290516000926001600160a01b03169163dd62ed3e916044808301926020929190829003018186803b1580156113a357600080fd5b505afa1580156113b7573d6000803e3d6000fd5b505050506040513d60208110156113cd57600080fd5b5051905090565b6033546001600160a01b031690565b6033546001600160a01b0316331490565b6034546001600160a01b031681565b603454604080516370a0823160e01b815233600482015290516000926001600160a01b0316916370a08231916024808301926020929190829003018186803b1580156113a357600080fd5b6036818154811061145b57fe5b6000918252602090912001546001600160a01b0316905081565b61147d6113e3565b6114bc576040805162461bcd60e51b81526020600482018190526024820152600080516020612029833981519152604482015290519081900360640190fd5b603880546001600160a01b0390921661010002610100600160a81b0319909216919091179055565b6114ec6113e3565b61152b576040805162461bcd60e51b81526020600482018190526024820152600080516020612029833981519152604482015290519081900360640190fd5b6107ad81611c1a565b61153c610c3f565b611580576040805162461bcd60e51b815260206004820152601060248201526f6e6f7420696e206f70656e206d6f646560801b604482015290519081900360640190fd5b6001600160a01b038216600090815260356020526040902054806115e3576040805162461bcd60e51b815260206004820152601560248201527418dbdb5c185b9e481a5cc81b9bdd081b1a5cdd1959605a1b604482015290519081900360640190fd5b6000839050336001600160a01b0316816001600160a01b0316638da5cb5b6040518163ffffffff1660e01b815260040160206040518083038186803b15801561162b57600080fd5b505afa15801561163f573d6000803e3d6000fd5b505050506040513d602081101561165557600080fd5b50516001600160a01b03161461169c5760405162461bcd60e51b8152600401808060200182810382526025815260200180611fbd6025913960400191505060405180910390fd5b600083116116db5760405162461bcd60e51b81526004018080602001828103825260268152602001806120036026913960400191505060405180910390fd5b6116e584846117f8565b50505050565b6116f36113e3565b611732576040805162461bcd60e51b81526020600482018190526024820152600080516020612029833981519152604482015290519081900360640190fd5b6107ad81611741565b303b1590565b6001600160a01b0381166117865760405162461bcd60e51b8152600401808060200182810382526026815260200180611f236026913960400191505060405180910390fd5b6033546040516001600160a01b038084169216907f8be0079c531659141344cd1fd0a4f28419497f9722a3daafe3b4186f6b6457e090600090a3603380546001600160a01b0319166001600160a01b0392909216919091179055565b60006117ef3084846119da565b90505b92915050565b6001600160a01b038216600081815260356020908152604091829020849055815184815291517fec8e3a2619b5eaca43073fc46aa092d4c9d58e3332506a2f6967bda9578933a09281900390910190a25050565b6036805460018101825560009182527f4a11f94e20a93c79f6ec743a1954ec4fc2c08429ae2122118bf234b2185c81b80180546001600160a01b0319166001600160a01b03841690811790915560408051638da5cb5b60e01b815290516037939291638da5cb5b916004808301926020929190829003018186803b1580156118d357600080fd5b505afa1580156118e7573d6000803e3d6000fd5b505050506040513d60208110156118fd57600080fd5b50516001600160a01b039081168252602080830193909352604091820160009081208054600181018255908252908490200180546001600160a01b03191691851691821790558151638da5cb5b60e01b8152915190928392638da5cb5b9260048083019392829003018186803b15801561197657600080fd5b505afa15801561198a573d6000803e3d6000fd5b505050506040513d60208110156119a057600080fd5b50516040516001600160a01b03909116907ff4ce8b96113eecaf9c3e4e02dc4345eb4fd136a5ba35ab5dba6c7ae82f7d5d7290600090a350565b6038546040516312cf119760e21b81526001600160a01b0385811660048301908152606060248401908152865160648501528651600095869561010090910490941693634b3c465c938a938a938a93604481019160849091019060208701908083838e5b83811015611a56578181015183820152602001611a3e565b50505050905090810190601f168015611a835780820380516001836020036101000a031916815260200191505b50838103825284518152845160209182019186019080838360005b83811015611ab6578181015183820152602001611a9e565b50505050905090810190601f168015611ae35780820380516001836020036101000a031916815260200191505b5095505050505050602060405180830381600087803b158015611b0557600080fd5b505af1158015611b19573d6000803e3d6000fd5b505050506040513d6020811015611b2f57600080fd5b505195945050505050565b6001600160a01b0316600090815260356020526040902054151590565b600082611b66575060006117f2565b82820282848281611b7357fe5b04146117ef5760405162461bcd60e51b8152600401808060200182810382526021815260200180611fe26021913960400191505060405180910390fd5b6000808211611c06576040805162461bcd60e51b815260206004820152601a60248201527f536166654d6174683a206469766973696f6e206279207a65726f000000000000604482015290519081900360640190fd5b6000828481611c1157fe5b04949350505050565b6001600160a01b03811660009081526035602052604081208190555b603654811015611d1257816001600160a01b031660368281548110611c5757fe5b6000918252602090912001546001600160a01b03161415611d0a57603680546000198101908110611c8457fe5b600091825260209091200154603680546001600160a01b039092169183908110611caa57fe5b9060005260206000200160006101000a8154816001600160a01b0302191690836001600160a01b031602179055506036805480611ce357fe5b600082815260209020810160001990810180546001600160a01b0319169055019055611d12565b600101611c36565b50600060376000836001600160a01b0316638da5cb5b6040518163ffffffff1660e01b815260040160206040518083038186803b158015611d5257600080fd5b505afa158015611d66573d6000803e3d6000fd5b505050506040513d6020811015611d7c57600080fd5b50516001600160a01b031681526020810191909152604001600090812091505b8154811015611e7957826001600160a01b0316828281548110611dbb57fe5b6000918252602090912001546001600160a01b03161415611e7157815482906000198101908110611de857fe5b9060005260206000200160009054906101000a90046001600160a01b0316828281548110611e1257fe5b9060005260206000200160006101000a8154816001600160a01b0302191690836001600160a01b0316021790555081805480611e4a57fe5b600082815260209020810160001990810180546001600160a01b0319169055019055611e79565b600101611d9c565b50816001600160a01b0316826001600160a01b0316638da5cb5b6040518163ffffffff1660e01b815260040160206040518083038186803b158015611ebd57600080fd5b505afa158015611ed1573d6000803e3d6000fd5b505050506040513d6020811015611ee757600080fd5b50516040516001600160a01b03909116907fa39712bf91bafb8d6072436e7684fba9a926b318358ebf63ef1aeeb24b9a82d190600090a3505056fe4f776e61626c653a206e6577206f776e657220697320746865207a65726f206164647265737373656c6c657220646f6573206e6f74206861766520656e6f7567682073686172657320746f2066696c6c207472616e73616374696f6e627579657220646f6573206e6f74206861766520656e6f7567682065786368616e676520746f6b656e7320746f2066696c6c207472616e73616374696f6e70726963652d736574746572206973206e6f742074686520636f6d70616e79206f776e6572536166654d6174683a206d756c7469706c69636174696f6e206f766572666c6f777072696365206973206e6f7420736574206173206120706f73697469766520696e74656765724f776e61626c653a2063616c6c6572206973206e6f7420746865206f776e6572436f6e747261637420696e7374616e63652068617320616c7265616479206265656e20696e697469616c697a6564a265627a7a723158203f2ad93903a7c6cafe5aa103b9a97852b524a643327eeaddfaa64eb4a918fafc64736f6c634300050c0032",
  "source": "pragma solidity 0.5.12;\nimport \"@openzeppelin/contracts/ownership/Ownable.sol\";\nimport \"@openzeppelin/upgrades/contracts/Initializable.sol\";\nimport \"@openzeppelin/contracts/math/SafeMath.sol\";\nimport \"./IPrivateCompany.sol\";\nimport \"./IPrivateCompanyFactory.sol\";\n\n/// @author Jordan Loh Shu Peng\n/// @title A Decentralized exchange of ERC20 Tokens (Private Securities) that\n/// uses an internal exchange Token for pricing between tokens\ncontract PrivateExchangeLogic is Initializable, Ownable {\n    using SafeMath for uint256;\n\n    /**\n    * @dev address of the exchange-token\n    */\n    IPrivateCompany public exchangeToken;\n\n    /**\n    * @dev map that keeps track of company prices\n    */\n    mapping(address => uint256) public listedCompanyPrices;\n\n    /**\n    * @dev array with addresses of listed companies\n    */\n    IPrivateCompany[] public listedCompanies;\n\n    /**\n    * @dev map with owner's owned company addresses\n    */\n    mapping(address => IPrivateCompany[]) public ownerCompanies;\n\n    /**\n    * @dev variable to store emergency stop variable\n    */\n    bool private _openMode;\n\n    /**\n    * @dev variable with company factory address\n    */\n    IPrivateCompanyFactory private _companyFactory;\n\n    event ExchangeClosed();\n\n    event ExchangeOpened();\n\n    event CompanyListed(address indexed owner, address indexed company);\n\n    event CompanyDelisted(address indexed owner, address indexed company);\n\n    event ExchangeTokenBought(address indexed account, uint256 amount);\n    event ExchangeTokenSold(address indexed account, uint256 amount);\n\n    event ShareTransaction(\n        address indexed company,\n        address indexed buyer,\n        address indexed seller,\n        uint256 amount,\n        uint256 price\n    );\n\n    event CompanyPriceUpdated(address indexed company, uint256 price);\n\n    modifier onlyOpen() {\n        require(isOpen(), \"not in open mode\");\n        _;\n    }\n\n    /**\n    * @dev this function is called by the proxy on initialization\n    * NOTE: logic owner MUST be different from proxy owner \n    * Read more at: https://blog.openzeppelin.com/proxy-patterns/\n    * @param owner logic owner of this exchange.\n    * @param companyFactory address of factory\n    * @param name token name for exchange-token\n    * @param symbol symbol name for exchange-token\n    */\n    function initialize(\n        address owner,\n        address companyFactory,\n        string memory name,\n        string memory symbol\n    ) public initializer {\n        _transferOwnership(owner);\n        _openMode = false;\n        _companyFactory = IPrivateCompanyFactory(companyFactory);\n        exchangeToken = _makeExchangeToken(name, symbol);\n    }\n\n\n    /**\n    * @return total number of listed companies\n    */\n    function numberOfListedCompanies() view public returns(uint256) {\n        return listedCompanies.length;\n    }\n\n    /**\n    * @return number of companies the msg.sender owns on exchange\n    */\n    function numberOfOwnedCompanies() view public returns(uint256) {\n        return ownerCompanies[msg.sender].length;\n    }\n\n    /**\n    * @return whether exchange is open\n    */\n    function isOpen() public view returns (bool) {\n        return _openMode;\n    }\n\n    /**\n    * @return the exchange token allowance given to the exchange\n    */\n    function exchangeTokenStaked() public view returns(uint256) {\n        return exchangeToken.allowance(msg.sender, address(this));\n    }\n\n    /**\n    * @return the exchange token balance of a user\n    */\n    function exchangeTokenBalance() public view returns(uint256) {\n        return exchangeToken.balanceOf(msg.sender);\n    }\n    \n    /**\n    * @dev allows user to use ether to exchange 1 to 1 for exchange tokens\n    * note that the ether must be carried in a msg.value \n    */\n    function buyExchangeToken() public payable onlyOpen {\n        require(msg.value>0, \"value needs to be non-zero\");\n        exchangeToken.mint(msg.value);\n        exchangeToken.transfer(msg.sender, msg.value);\n        emit ExchangeTokenBought(msg.sender, msg.value);\n    }\n\n    /**\n    * @dev allows user to exchange their exchange tokens for ether\n    * user must provide an allowance for the exchange to transferFrom\n    * @param amount amount of exchange tokens to sell\n    */\n    function sellExchangeToken(uint256 amount) public payable onlyOpen {\n        exchangeToken.transferFrom(msg.sender, address(this), amount);\n        exchangeToken.burn(amount);\n        msg.sender.transfer(amount);\n    }\n\n    /**\n    * @dev issue a buy transaction on the exchange. Note amount param!\n    * because we defined price as per ether unit of shares, \n    * we must divide the price by 1 ether unit \n    * when we calculate the cost to the buyer as amount is given in wei\n    * @param company address of company that MUST be listed in listedCompanies \n    * @param amount amount of shares to buy in wei units\n    */\n    function buyCompanyShares(address company, uint256 amount) public onlyOpen {\n        require(_isListedCompany(company), \"not a listed company\");\n        uint256 price = listedCompanyPrices[company];\n        address buyer = msg.sender;\n        IPrivateCompany pc = IPrivateCompany(company);\n        address seller = pc.owner();\n        uint256 cost = amount.mul(price).div(1 ether);\n        uint256 sharesAvailable = pc.allowance(seller, address(this));\n        require(\n            sharesAvailable >= amount,\n            \"seller does not have enough shares to fill transaction\"\n        );\n        require(\n            exchangeToken.allowance(buyer, address(this)) >= cost,\n            \"buyer does not have enough exchange tokens to fill transaction\"\n        );\n        pc.transferFrom(seller, buyer, amount);\n        exchangeToken.transferFrom(buyer, seller, cost);\n        emit ShareTransaction(company, buyer, seller, amount, price);\n    }\n\n    /**\n    * @dev updates the price of a listed company.\n    * @param company address of company that MUST be listed in listedCompanies \n    * @param price in EE$ per ONE ETH unit of shares in uint256. \n    * 1 price = 1 wei EE$ per share\n    * OR 0.000000000000000001 EE$ per ONE ETH unit of shares\n    */\n    function updateCompanyPrice(\n        address company,\n        uint256 price\n    ) public onlyOpen {\n        uint256 _price = listedCompanyPrices[company];\n        require(_price > 0, \"company is not listed\");\n        IPrivateCompany pc = IPrivateCompany(company);\n        require(\n            pc.owner() == msg.sender, \n            \"price-setter is not the company owner\"\n        );\n        require(price > 0 , \"price is not set as a positive integer\");\n        _updateCompanyPrice(company, price);\n    }\n\n    /**\n    * @dev allows user to create a company and list on exchange\n    * @param name of company cannot be empty string\n    * @param symbol of company cannot be empty string\n    * @param price in EE$ per ONE ETH unit of shares in uint256. \n    * 1 price = 1 wei EE$ per share\n    * OR 0.000000000000000001 EE$ per ONE ETH unit of shares\n    */\n    function createCompanyAndList(\n        string memory name,\n        string memory symbol,\n        uint256 price\n    ) public onlyOpen {\n        bytes32 emptyString = keccak256(abi.encodePacked(\"\"));\n        require(\n            keccak256(abi.encodePacked(name)) != emptyString,\n            \"empty name given\"\n        );\n        require(\n            keccak256(abi.encodePacked(symbol)) != emptyString,\n            \"empty symbol given\"\n        );\n        address companyOwner = msg.sender;\n        IPrivateCompany c = _createCompany(companyOwner, name, symbol);\n        _listCompany(c);\n        _updateCompanyPrice(address(c), price);\n    }\n\n    /**\n    * @dev allows owner to list an external ERC20-compliant entity on exchange\n    * @param company address of contract\n    * @param price in EE$ per ONE ETH unit of shares in uint256. \n    */\n    function listCompany(address company, uint256 price) public onlyOwner {\n        IPrivateCompany pc = IPrivateCompany(company);\n        _updateCompanyPrice(company, price);\n        _listCompany(pc);\n    }\n\n    /**\n    * @dev allows owner to delist an entity on exchange\n    * @param company address of contract\n    */\n    function delistCompany(address company) public onlyOwner {\n        _delistCompany(IPrivateCompany(company));\n    }\n\n    /**\n    * @dev emergency stop open function used by owner\n    * @param value true to open, false to close\n    */\n    function switchOpenMode(bool value) public onlyOwner {\n        _openMode = value;\n        if (value){\n            emit ExchangeOpened();\n        }\n        else {\n            emit ExchangeClosed();\n        }\n    }\n\n    /**\n    * @dev allows owner to provide a new company factory \n    * @param companyFactory address of new factory\n    */\n    function upgradeCompanyFactory(address companyFactory) public onlyOwner {\n        _companyFactory = IPrivateCompanyFactory(companyFactory);\n    }\n\n    function _isListedCompany(address company) internal view returns(bool) {\n        return listedCompanyPrices[company] > 0;\n    }\n\n    function _makeExchangeToken(\n        string memory name,\n        string memory symbol\n    ) internal returns (IPrivateCompany) {\n        return _createCompany(address(this), name, symbol);\n    }\n\n    function _createCompany(\n        address companyOwner,\n        string memory name,\n        string memory symbol\n    ) \n    internal returns(IPrivateCompany) {\n        address c = _companyFactory.newCompany(companyOwner, name, symbol);\n        return IPrivateCompany(c); \n    }\n\n    function _updateCompanyPrice(address company, uint256 price) internal {\n        listedCompanyPrices[company] = price;\n        emit CompanyPriceUpdated(company, price);\n    }\n\n    function _listCompany(IPrivateCompany company) internal {\n        listedCompanies.push(company);\n        ownerCompanies[company.owner()].push(company);\n        emit CompanyListed(company.owner(), address(company));\n    }\n\n    function _delistCompany(IPrivateCompany company) internal {\n        listedCompanyPrices[address(company)] = 0;\n        for (uint i = 0; i < listedCompanies.length; i++ )\n        {\n            if (listedCompanies[i] == company)\n            {\n                listedCompanies[i] =\n                    listedCompanies[listedCompanies.length - 1];\n                listedCompanies.pop();\n                break;\n            }\n        }\n        IPrivateCompany[] storage ownedCompanies = \n            ownerCompanies[company.owner()];\n        for (uint i = 0; i < ownedCompanies.length; i++ )\n        {\n            if (ownedCompanies[i] == company)\n            {\n                ownedCompanies[i] = ownedCompanies[ownedCompanies.length - 1];\n                ownedCompanies.pop();\n                break;\n            }\n        }\n        emit CompanyDelisted(company.owner(), address(company));\n    }\n}",
  "sourcePath": "/home/shups/Code/entangle-exchange/contracts/PrivateExchangeLogic.sol",
  "compiler": {
    "name": "solc",
    "version": "0.5.12+commit.7709ece9.Emscripten.clang"
  },
  "schemaVersion": "3.0.16",
  "updatedAt": "2019-10-29T05:32:42.475Z",
  "devdoc": {
    "author": "Jordan Loh Shu Peng",
    "methods": {
      "buyCompanyShares(address,uint256)": {
        "details": "issue a buy transaction on the exchange. Note amount param! because we defined price as per ether unit of shares,  we must divide the price by 1 ether unit  when we calculate the cost to the buyer as amount is given in wei",
        "params": {
          "amount": "amount of shares to buy in wei units",
          "company": "address of company that MUST be listed in listedCompanies "
        }
      },
      "buyExchangeToken()": {
        "details": "allows user to use ether to exchange 1 to 1 for exchange tokens note that the ether must be carried in a msg.value "
      },
      "createCompanyAndList(string,string,uint256)": {
        "details": "allows user to create a company and list on exchange",
        "params": {
          "name": "of company cannot be empty string",
          "price": "in EE$ per ONE ETH unit of shares in uint256.  1 price = 1 wei EE$ per share OR 0.000000000000000001 EE$ per ONE ETH unit of shares",
          "symbol": "of company cannot be empty string"
        }
      },
      "delistCompany(address)": {
        "details": "allows owner to delist an entity on exchange",
        "params": {
          "company": "address of contract"
        }
      },
      "exchangeTokenBalance()": {
        "return": "the exchange token balance of a user"
      },
      "exchangeTokenStaked()": {
        "return": "the exchange token allowance given to the exchange"
      },
      "initialize(address,address,string,string)": {
        "details": "this function is called by the proxy on initialization NOTE: logic owner MUST be different from proxy owner  Read more at: https://blog.openzeppelin.com/proxy-patterns/",
        "params": {
          "companyFactory": "address of factory",
          "name": "token name for exchange-token",
          "owner": "logic owner of this exchange.",
          "symbol": "symbol name for exchange-token"
        }
      },
      "isOpen()": {
        "return": "whether exchange is open"
      },
      "isOwner()": {
        "details": "Returns true if the caller is the current owner."
      },
      "listCompany(address,uint256)": {
        "details": "allows owner to list an external ERC20-compliant entity on exchange",
        "params": {
          "company": "address of contract",
          "price": "in EE$ per ONE ETH unit of shares in uint256. "
        }
      },
      "numberOfListedCompanies()": {
        "return": "total number of listed companies"
      },
      "numberOfOwnedCompanies()": {
        "return": "number of companies the msg.sender owns on exchange"
      },
      "owner()": {
        "details": "Returns the address of the current owner."
      },
      "renounceOwnership()": {
        "details": "Leaves the contract without owner. It will not be possible to call `onlyOwner` functions anymore. Can only be called by the current owner.     * > Note: Renouncing ownership will leave the contract without an owner, thereby removing any functionality that is only available to the owner."
      },
      "sellExchangeToken(uint256)": {
        "details": "allows user to exchange their exchange tokens for ether user must provide an allowance for the exchange to transferFrom",
        "params": {
          "amount": "amount of exchange tokens to sell"
        }
      },
      "switchOpenMode(bool)": {
        "details": "emergency stop open function used by owner",
        "params": {
          "value": "true to open, false to close"
        }
      },
      "transferOwnership(address)": {
        "details": "Transfers ownership of the contract to a new account (`newOwner`). Can only be called by the current owner."
      },
      "updateCompanyPrice(address,uint256)": {
        "details": "updates the price of a listed company.",
        "params": {
          "company": "address of company that MUST be listed in listedCompanies ",
          "price": "in EE$ per ONE ETH unit of shares in uint256.  1 price = 1 wei EE$ per share OR 0.000000000000000001 EE$ per ONE ETH unit of shares"
        }
      },
      "upgradeCompanyFactory(address)": {
        "details": "allows owner to provide a new company factory ",
        "params": {
          "companyFactory": "address of new factory"
        }
      }
    },
    "title": "A Decentralized exchange of ERC20 Tokens (Private Securities) that uses an internal exchange Token for pricing between tokens"
  },
  "userdoc": {
    "methods": {}
  }
}