{
  "contractName": "PrivateExchangeProxy",
  "abi": [
    {
      "anonymous": false,
      "inputs": [
        {
          "indexed": false,
          "internalType": "address",
          "name": "previousAdmin",
          "type": "address"
        },
        {
          "indexed": false,
          "internalType": "address",
          "name": "newAdmin",
          "type": "address"
        }
      ],
      "name": "AdminChanged",
      "type": "event"
    },
    {
      "anonymous": false,
      "inputs": [
        {
          "indexed": true,
          "internalType": "address",
          "name": "implementation",
          "type": "address"
        }
      ],
      "name": "Upgraded",
      "type": "event"
    },
    {
      "anonymous": false,
      "inputs": [
        {
          "indexed": false,
          "internalType": "string",
          "name": "fileName",
          "type": "string"
        },
        {
          "indexed": false,
          "internalType": "uint256",
          "name": "branchId",
          "type": "uint256"
        }
      ],
      "name": "__AssertPostCoverageIPrivateExchangeProxy",
      "type": "event"
    },
    {
      "anonymous": false,
      "inputs": [
        {
          "indexed": false,
          "internalType": "string",
          "name": "fileName",
          "type": "string"
        },
        {
          "indexed": false,
          "internalType": "uint256",
          "name": "branchId",
          "type": "uint256"
        }
      ],
      "name": "__AssertPreCoverageIPrivateExchangeProxy",
      "type": "event"
    },
    {
      "anonymous": false,
      "inputs": [
        {
          "indexed": false,
          "internalType": "string",
          "name": "fileName",
          "type": "string"
        },
        {
          "indexed": false,
          "internalType": "uint256",
          "name": "branchId",
          "type": "uint256"
        },
        {
          "indexed": false,
          "internalType": "uint256",
          "name": "locationIdx",
          "type": "uint256"
        }
      ],
      "name": "__BranchCoverageIPrivateExchangeProxy",
      "type": "event"
    },
    {
      "anonymous": false,
      "inputs": [
        {
          "indexed": false,
          "internalType": "string",
          "name": "fileName",
          "type": "string"
        },
        {
          "indexed": false,
          "internalType": "uint256",
          "name": "lineNumber",
          "type": "uint256"
        }
      ],
      "name": "__CoverageIPrivateExchangeProxy",
      "type": "event"
    },
    {
      "anonymous": false,
      "inputs": [
        {
          "indexed": false,
          "internalType": "string",
          "name": "fileName",
          "type": "string"
        },
        {
          "indexed": false,
          "internalType": "uint256",
          "name": "fnId",
          "type": "uint256"
        }
      ],
      "name": "__FunctionCoverageIPrivateExchangeProxy",
      "type": "event"
    },
    {
      "anonymous": false,
      "inputs": [
        {
          "indexed": false,
          "internalType": "string",
          "name": "fileName",
          "type": "string"
        },
        {
          "indexed": false,
          "internalType": "uint256",
          "name": "statementId",
          "type": "uint256"
        }
      ],
      "name": "__StatementCoverageIPrivateExchangeProxy",
      "type": "event"
    },
    {
      "payable": true,
      "stateMutability": "payable",
      "type": "fallback"
    },
    {
      "constant": false,
      "inputs": [],
      "name": "admin",
      "outputs": [
        {
          "internalType": "address",
          "name": "",
          "type": "address"
        }
      ],
      "payable": false,
      "stateMutability": "nonpayable",
      "type": "function"
    },
    {
      "constant": false,
      "inputs": [
        {
          "internalType": "address",
          "name": "newAdmin",
          "type": "address"
        }
      ],
      "name": "changeAdmin",
      "outputs": [],
      "payable": false,
      "stateMutability": "nonpayable",
      "type": "function"
    },
    {
      "constant": false,
      "inputs": [],
      "name": "implementation",
      "outputs": [
        {
          "internalType": "address",
          "name": "",
          "type": "address"
        }
      ],
      "payable": false,
      "stateMutability": "nonpayable",
      "type": "function"
    },
    {
      "constant": false,
      "inputs": [
        {
          "internalType": "address",
          "name": "_logic",
          "type": "address"
        },
        {
          "internalType": "address",
          "name": "_admin",
          "type": "address"
        },
        {
          "internalType": "bytes",
          "name": "_data",
          "type": "bytes"
        }
      ],
      "name": "initialize",
      "outputs": [],
      "payable": true,
      "stateMutability": "payable",
      "type": "function"
    },
    {
      "constant": false,
      "inputs": [
        {
          "internalType": "address",
          "name": "_logic",
          "type": "address"
        },
        {
          "internalType": "bytes",
          "name": "_data",
          "type": "bytes"
        }
      ],
      "name": "initialize",
      "outputs": [],
      "payable": true,
      "stateMutability": "payable",
      "type": "function"
    },
    {
      "constant": false,
      "inputs": [
        {
          "internalType": "address",
          "name": "newImplementation",
          "type": "address"
        }
      ],
      "name": "upgradeTo",
      "outputs": [],
      "payable": false,
      "stateMutability": "nonpayable",
      "type": "function"
    },
    {
      "constant": false,
      "inputs": [
        {
          "internalType": "address",
          "name": "newImplementation",
          "type": "address"
        },
        {
          "internalType": "bytes",
          "name": "data",
          "type": "bytes"
        }
      ],
      "name": "upgradeToAndCall",
      "outputs": [],
      "payable": true,
      "stateMutability": "payable",
      "type": "function"
    }
  ],
  "bytecode": "0x608060405234801561001057600080fd5b5061097c806100206000396000f3fe6080604052600436106100705760003560e01c80638f2839701161004e5780638f2839701461015e578063cf7a1d7714610191578063d1f5789414610250578063f851a4401461030657610070565b80633659cfe61461007a5780634f1ef286146100ad5780635c60da1b1461012d575b61007861031b565b005b34801561008657600080fd5b506100786004803603602081101561009d57600080fd5b50356001600160a01b0316610335565b610078600480360360408110156100c357600080fd5b6001600160a01b0382351691908101906040810160208201356401000000008111156100ee57600080fd5b82018360208201111561010057600080fd5b8035906020019184600183028401116401000000008311171561012257600080fd5b50909250905061036f565b34801561013957600080fd5b5061014261041c565b604080516001600160a01b039092168252519081900360200190f35b34801561016a57600080fd5b506100786004803603602081101561018157600080fd5b50356001600160a01b0316610459565b610078600480360360608110156101a757600080fd5b6001600160a01b0382358116926020810135909116918101906060810160408201356401000000008111156101db57600080fd5b8201836020820111156101ed57600080fd5b8035906020019184600183028401116401000000008311171561020f57600080fd5b91908080601f016020809104026020016040519081016040528093929190818152602001838380828437600092019190915250929550610513945050505050565b6100786004803603604081101561026657600080fd5b6001600160a01b03823516919081019060408101602082013564010000000081111561029157600080fd5b8201836020820111156102a357600080fd5b803590602001918460018302840111640100000000831117156102c557600080fd5b91908080601f016020809104026020016040519081016040528093929190818152602001838380828437600092019190915250929550610599945050505050565b34801561031257600080fd5b506101426106d9565b610323610704565b61033361032e610764565b610789565b565b61033d6107ad565b6001600160a01b0316336001600160a01b031614156103645761035f816107d2565b61036c565b61036c61031b565b50565b6103776107ad565b6001600160a01b0316336001600160a01b0316141561040f57610399836107d2565b6000836001600160a01b031683836040518083838082843760405192019450600093509091505080830381855af49150503d80600081146103f6576040519150601f19603f3d011682016040523d82523d6000602084013e6103fb565b606091505b505090508061040957600080fd5b50610417565b61041761031b565b505050565b60006104266107ad565b6001600160a01b0316336001600160a01b0316141561044e57610447610764565b9050610456565b61045661031b565b90565b6104616107ad565b6001600160a01b0316336001600160a01b03161415610364576001600160a01b0381166104bf5760405162461bcd60e51b81526004018080602001828103825260368152602001806108d76036913960400191505060405180910390fd5b7f7e644d79422f17c01e4894b5f4f588d331ebfa28653d42ae832dc59e38c9798f6104e86107ad565b604080516001600160a01b03928316815291841660208301528051918290030190a161035f81610812565b600061051d610764565b6001600160a01b03161461053057600080fd5b61053a8382610599565b604080517232b4b8189c9b1b97383937bc3c9730b236b4b760691b815290519081900360130190207fb53127684a568b3173ae13b9f8a6016e243e63b6e8ee1178d6a717850b5d61036000199091011461059057fe5b61041782610812565b60006105a3610764565b6001600160a01b0316146105b657600080fd5b604080517f656970313936372e70726f78792e696d706c656d656e746174696f6e000000008152905190819003601c0190207f360894a13ba1a3210667c828492db98dca3e2076cc3735a920a3ca505d382bbc6000199091011461061657fe5b61061f82610836565b8051156106d5576000826001600160a01b0316826040518082805190602001908083835b602083106106625780518252601f199092019160209182019101610643565b6001836020036101000a038019825116818451168082178552505050505050905001915050600060405180830381855af49150503d80600081146106c2576040519150601f19603f3d011682016040523d82523d6000602084013e6106c7565b606091505b505090508061041757600080fd5b5050565b60006106e36107ad565b6001600160a01b0316336001600160a01b0316141561044e576104476107ad565b61070c6107ad565b6001600160a01b0316336001600160a01b0316141561075c5760405162461bcd60e51b81526004018080602001828103825260328152602001806108a56032913960400191505060405180910390fd5b610333610333565b7f360894a13ba1a3210667c828492db98dca3e2076cc3735a920a3ca505d382bbc5490565b3660008037600080366000845af43d6000803e8080156107a8573d6000f35b3d6000fd5b7fb53127684a568b3173ae13b9f8a6016e243e63b6e8ee1178d6a717850b5d61035490565b6107db81610836565b6040516001600160a01b038216907fbc7cd75a20ee27fd9adebab32041f755214dbc6bffa90cc0225b39da2e5c2d3b90600090a250565b7fb53127684a568b3173ae13b9f8a6016e243e63b6e8ee1178d6a717850b5d610355565b61083f8161089e565b61087a5760405162461bcd60e51b815260040180806020018281038252603b81526020018061090d603b913960400191505060405180910390fd5b7f360894a13ba1a3210667c828492db98dca3e2076cc3735a920a3ca505d382bbc55565b3b15159056fe43616e6e6f742063616c6c2066616c6c6261636b2066756e6374696f6e2066726f6d207468652070726f78792061646d696e43616e6e6f74206368616e6765207468652061646d696e206f6620612070726f787920746f20746865207a65726f206164647265737343616e6e6f742073657420612070726f787920696d706c656d656e746174696f6e20746f2061206e6f6e2d636f6e74726163742061646472657373a265627a7a72315820e05f9a84586f752493a5a3b442e67a0c5eb0d06f56c8ae2a32634295d4b0b28264736f6c634300050c0032",
  "source": "pragma solidity 0.5.12;\nimport \"@openzeppelin/upgrades/contracts/upgradeability/InitializableAdminUpgradeabilityProxy.sol\";\n\ninterface IPrivateExchangeProxy {event __CoverageIPrivateExchangeProxy(string fileName, uint256 lineNumber);\nevent __FunctionCoverageIPrivateExchangeProxy(string fileName, uint256 fnId);\nevent __StatementCoverageIPrivateExchangeProxy(string fileName, uint256 statementId);\nevent __BranchCoverageIPrivateExchangeProxy(string fileName, uint256 branchId, uint256 locationIdx);\nevent __AssertPreCoverageIPrivateExchangeProxy(string fileName, uint256 branchId);\nevent __AssertPostCoverageIPrivateExchangeProxy(string fileName, uint256 branchId);\n\n    /**\n    * Contract initializer.\n    * @param _logic address of the initial implementation.\n    * @param _admin Address of the proxy administrator.\n    * @param _data Data to send as msg.data to the implementation to initialize the proxied contract.\n    * It should include the signature and the parameters of the function to be called, as described in\n    * https://solidity.readthedocs.io/en/v0.5.12/abi-spec.html#function-selector-and-argument-encoding.\n    * This parameter is optional, if no data is given the initialization call to proxied contract will be skipped.\n    */\n    function initialize(address _logic, address _admin, bytes calldata _data) payable external;\n\n    /**\n    * @return The address of the proxy admin.\n    */\n    function admin() external returns (address);\n\n    /**\n    * @return The address of the implementation.\n    */\n    function implementation() external returns (address);\n\n    /**\n    * @dev Changes the admin of the proxy.\n    * Only the current admin can call this function.\n    * @param newAdmin Address to transfer proxy administration to.\n    */\n    function changeAdmin(address newAdmin) external;\n\n    /**\n    * @dev Upgrade the backing implementation of the proxy.\n    * Only the admin can call this function.\n    * @param newImplementation Address of the new implementation.\n    */\n    function upgradeTo(address newImplementation) external;\n\n    /**\n    * @dev Upgrade the backing implementation of the proxy and call a function\n    * on the new implementation.\n    * This is useful to initialize the proxied contract.\n    * @param newImplementation Address of the new implementation.\n    * @param data Data to send as msg.data in the low level call.\n    * It should include the signature and the parameters of the function to be called, as described in\n    * https://solidity.readthedocs.io/en/v0.5.12/abi-spec.html#function-selector-and-argument-encoding.\n    */\n    function upgradeToAndCall(address newImplementation, bytes calldata data) payable external;\n}\n\ncontract PrivateExchangeProxy is IPrivateExchangeProxy, InitializableAdminUpgradeabilityProxy {event __CoverageIPrivateExchangeProxy(string fileName, uint256 lineNumber);\nevent __FunctionCoverageIPrivateExchangeProxy(string fileName, uint256 fnId);\nevent __StatementCoverageIPrivateExchangeProxy(string fileName, uint256 statementId);\nevent __BranchCoverageIPrivateExchangeProxy(string fileName, uint256 branchId, uint256 locationIdx);\nevent __AssertPreCoverageIPrivateExchangeProxy(string fileName, uint256 branchId);\nevent __AssertPostCoverageIPrivateExchangeProxy(string fileName, uint256 branchId);\n\n\n}",
  "sourcePath": "/home/shuloh/Code/entangle-exchange/coverageEnv/contracts/PrivateExchangeProxy.sol",
  "compiler": {
    "name": "solc",
    "version": "0.5.12+commit.7709ece9.Emscripten.clang"
  },
  "schemaVersion": "3.0.16",
  "updatedAt": "2019-10-27T06:16:24.853Z",
  "devdoc": {
    "methods": {
      "admin()": {
        "return": "The address of the proxy admin."
      },
      "changeAdmin(address)": {
        "details": "Changes the admin of the proxy. Only the current admin can call this function.",
        "params": {
          "newAdmin": "Address to transfer proxy administration to."
        }
      },
      "implementation()": {
        "return": "The address of the implementation."
      },
      "initialize(address,address,bytes)": {
        "params": {
          "_admin": "Address of the proxy administrator.",
          "_data": "Data to send as msg.data to the implementation to initialize the proxied contract. It should include the signature and the parameters of the function to be called, as described in https://solidity.readthedocs.io/en/v0.4.24/abi-spec.html#function-selector-and-argument-encoding. This parameter is optional, if no data is given the initialization call to proxied contract will be skipped.",
          "_logic": "address of the initial implementation."
        }
      },
      "initialize(address,bytes)": {
        "details": "Contract initializer.",
        "params": {
          "_data": "Data to send as msg.data to the implementation to initialize the proxied contract. It should include the signature and the parameters of the function to be called, as described in https://solidity.readthedocs.io/en/v0.4.24/abi-spec.html#function-selector-and-argument-encoding. This parameter is optional, if no data is given the initialization call to proxied contract will be skipped.",
          "_logic": "Address of the initial implementation."
        }
      },
      "upgradeTo(address)": {
        "details": "Upgrade the backing implementation of the proxy. Only the admin can call this function.",
        "params": {
          "newImplementation": "Address of the new implementation."
        }
      },
      "upgradeToAndCall(address,bytes)": {
        "details": "Upgrade the backing implementation of the proxy and call a function on the new implementation. This is useful to initialize the proxied contract.",
        "params": {
          "data": "Data to send as msg.data in the low level call. It should include the signature and the parameters of the function to be called, as described in https://solidity.readthedocs.io/en/v0.4.24/abi-spec.html#function-selector-and-argument-encoding.",
          "newImplementation": "Address of the new implementation."
        }
      }
    }
  },
  "userdoc": {
    "methods": {
      "initialize(address,address,bytes)": {
        "notice": "Contract initializer."
      }
    }
  }
}