{
  "contractName": "PrivateExchangeLogic",
  "abi": [
    {
      "anonymous": false,
      "inputs": [
        {
          "indexed": true,
          "internalType": "address",
          "name": "owner",
          "type": "address"
        },
        {
          "indexed": true,
          "internalType": "address",
          "name": "company",
          "type": "address"
        }
      ],
      "name": "CompanyListed",
      "type": "event"
    },
    {
      "anonymous": false,
      "inputs": [
        {
          "indexed": true,
          "internalType": "address",
          "name": "company",
          "type": "address"
        },
        {
          "indexed": false,
          "internalType": "uint256",
          "name": "price",
          "type": "uint256"
        }
      ],
      "name": "CompanyPriceUpdated",
      "type": "event"
    },
    {
      "anonymous": false,
      "inputs": [],
      "name": "ExchangeClosed",
      "type": "event"
    },
    {
      "anonymous": false,
      "inputs": [],
      "name": "ExchangeOpened",
      "type": "event"
    },
    {
      "anonymous": false,
      "inputs": [
        {
          "indexed": true,
          "internalType": "address",
          "name": "account",
          "type": "address"
        },
        {
          "indexed": false,
          "internalType": "address",
          "name": "amount",
          "type": "address"
        }
      ],
      "name": "ExchangeTokenPurchased",
      "type": "event"
    },
    {
      "anonymous": false,
      "inputs": [
        {
          "indexed": true,
          "internalType": "address",
          "name": "previousOwner",
          "type": "address"
        },
        {
          "indexed": true,
          "internalType": "address",
          "name": "newOwner",
          "type": "address"
        }
      ],
      "name": "OwnershipTransferred",
      "type": "event"
    },
    {
      "anonymous": false,
      "inputs": [
        {
          "indexed": true,
          "internalType": "address",
          "name": "company",
          "type": "address"
        },
        {
          "indexed": true,
          "internalType": "address",
          "name": "buyer",
          "type": "address"
        },
        {
          "indexed": true,
          "internalType": "address",
          "name": "seller",
          "type": "address"
        },
        {
          "indexed": false,
          "internalType": "uint256",
          "name": "amount",
          "type": "uint256"
        },
        {
          "indexed": false,
          "internalType": "uint256",
          "name": "price",
          "type": "uint256"
        }
      ],
      "name": "ShareTransaction",
      "type": "event"
    },
    {
      "anonymous": false,
      "inputs": [
        {
          "indexed": false,
          "internalType": "string",
          "name": "fileName",
          "type": "string"
        },
        {
          "indexed": false,
          "internalType": "uint256",
          "name": "branchId",
          "type": "uint256"
        }
      ],
      "name": "__AssertPostCoveragePrivateExchangeLogic",
      "type": "event"
    },
    {
      "anonymous": false,
      "inputs": [
        {
          "indexed": false,
          "internalType": "string",
          "name": "fileName",
          "type": "string"
        },
        {
          "indexed": false,
          "internalType": "uint256",
          "name": "branchId",
          "type": "uint256"
        }
      ],
      "name": "__AssertPreCoveragePrivateExchangeLogic",
      "type": "event"
    },
    {
      "anonymous": false,
      "inputs": [
        {
          "indexed": false,
          "internalType": "string",
          "name": "fileName",
          "type": "string"
        },
        {
          "indexed": false,
          "internalType": "uint256",
          "name": "branchId",
          "type": "uint256"
        },
        {
          "indexed": false,
          "internalType": "uint256",
          "name": "locationIdx",
          "type": "uint256"
        }
      ],
      "name": "__BranchCoveragePrivateExchangeLogic",
      "type": "event"
    },
    {
      "anonymous": false,
      "inputs": [
        {
          "indexed": false,
          "internalType": "string",
          "name": "fileName",
          "type": "string"
        },
        {
          "indexed": false,
          "internalType": "uint256",
          "name": "lineNumber",
          "type": "uint256"
        }
      ],
      "name": "__CoveragePrivateExchangeLogic",
      "type": "event"
    },
    {
      "anonymous": false,
      "inputs": [
        {
          "indexed": false,
          "internalType": "string",
          "name": "fileName",
          "type": "string"
        },
        {
          "indexed": false,
          "internalType": "uint256",
          "name": "fnId",
          "type": "uint256"
        }
      ],
      "name": "__FunctionCoveragePrivateExchangeLogic",
      "type": "event"
    },
    {
      "anonymous": false,
      "inputs": [
        {
          "indexed": false,
          "internalType": "string",
          "name": "fileName",
          "type": "string"
        },
        {
          "indexed": false,
          "internalType": "uint256",
          "name": "statementId",
          "type": "uint256"
        }
      ],
      "name": "__StatementCoveragePrivateExchangeLogic",
      "type": "event"
    },
    {
      "constant": true,
      "inputs": [],
      "name": "exchangeToken",
      "outputs": [
        {
          "internalType": "contract IPrivateCompany",
          "name": "",
          "type": "address"
        }
      ],
      "payable": false,
      "stateMutability": "view",
      "type": "function"
    },
    {
      "constant": true,
      "inputs": [],
      "name": "isOwner",
      "outputs": [
        {
          "internalType": "bool",
          "name": "",
          "type": "bool"
        }
      ],
      "payable": false,
      "stateMutability": "view",
      "type": "function"
    },
    {
      "constant": true,
      "inputs": [
        {
          "internalType": "uint256",
          "name": "",
          "type": "uint256"
        }
      ],
      "name": "listedCompanies",
      "outputs": [
        {
          "internalType": "contract IPrivateCompany",
          "name": "",
          "type": "address"
        }
      ],
      "payable": false,
      "stateMutability": "view",
      "type": "function"
    },
    {
      "constant": true,
      "inputs": [
        {
          "internalType": "address",
          "name": "",
          "type": "address"
        }
      ],
      "name": "listedCompanyPrices",
      "outputs": [
        {
          "internalType": "uint256",
          "name": "",
          "type": "uint256"
        }
      ],
      "payable": false,
      "stateMutability": "view",
      "type": "function"
    },
    {
      "constant": true,
      "inputs": [],
      "name": "owner",
      "outputs": [
        {
          "internalType": "address",
          "name": "",
          "type": "address"
        }
      ],
      "payable": false,
      "stateMutability": "view",
      "type": "function"
    },
    {
      "constant": true,
      "inputs": [
        {
          "internalType": "address",
          "name": "",
          "type": "address"
        },
        {
          "internalType": "uint256",
          "name": "",
          "type": "uint256"
        }
      ],
      "name": "ownerCompanies",
      "outputs": [
        {
          "internalType": "contract IPrivateCompany",
          "name": "",
          "type": "address"
        }
      ],
      "payable": false,
      "stateMutability": "view",
      "type": "function"
    },
    {
      "constant": false,
      "inputs": [],
      "name": "renounceOwnership",
      "outputs": [],
      "payable": false,
      "stateMutability": "nonpayable",
      "type": "function"
    },
    {
      "constant": false,
      "inputs": [
        {
          "internalType": "address",
          "name": "newOwner",
          "type": "address"
        }
      ],
      "name": "transferOwnership",
      "outputs": [],
      "payable": false,
      "stateMutability": "nonpayable",
      "type": "function"
    },
    {
      "constant": false,
      "inputs": [
        {
          "internalType": "address",
          "name": "owner",
          "type": "address"
        },
        {
          "internalType": "address",
          "name": "companyFactory",
          "type": "address"
        },
        {
          "internalType": "string",
          "name": "name",
          "type": "string"
        },
        {
          "internalType": "string",
          "name": "symbol",
          "type": "string"
        }
      ],
      "name": "initialize",
      "outputs": [],
      "payable": false,
      "stateMutability": "nonpayable",
      "type": "function"
    },
    {
      "constant": false,
      "inputs": [
        {
          "internalType": "address",
          "name": "companyFactory",
          "type": "address"
        }
      ],
      "name": "upgradeCompanyFactory",
      "outputs": [],
      "payable": false,
      "stateMutability": "nonpayable",
      "type": "function"
    },
    {
      "constant": false,
      "inputs": [],
      "name": "numberOfListedCompanies",
      "outputs": [
        {
          "internalType": "uint256",
          "name": "",
          "type": "uint256"
        }
      ],
      "payable": false,
      "stateMutability": "nonpayable",
      "type": "function"
    },
    {
      "constant": false,
      "inputs": [],
      "name": "numberOfOwnedCompanies",
      "outputs": [
        {
          "internalType": "uint256",
          "name": "",
          "type": "uint256"
        }
      ],
      "payable": false,
      "stateMutability": "nonpayable",
      "type": "function"
    },
    {
      "constant": false,
      "inputs": [],
      "name": "isOpen",
      "outputs": [
        {
          "internalType": "bool",
          "name": "",
          "type": "bool"
        }
      ],
      "payable": false,
      "stateMutability": "nonpayable",
      "type": "function"
    },
    {
      "constant": false,
      "inputs": [
        {
          "internalType": "bool",
          "name": "value",
          "type": "bool"
        }
      ],
      "name": "switchOpenMode",
      "outputs": [],
      "payable": false,
      "stateMutability": "nonpayable",
      "type": "function"
    },
    {
      "constant": false,
      "inputs": [],
      "name": "exchangeTokenStaked",
      "outputs": [
        {
          "internalType": "uint256",
          "name": "",
          "type": "uint256"
        }
      ],
      "payable": false,
      "stateMutability": "nonpayable",
      "type": "function"
    },
    {
      "constant": false,
      "inputs": [],
      "name": "exchangeTokenBalance",
      "outputs": [
        {
          "internalType": "uint256",
          "name": "",
          "type": "uint256"
        }
      ],
      "payable": false,
      "stateMutability": "nonpayable",
      "type": "function"
    },
    {
      "constant": false,
      "inputs": [],
      "name": "buyExchangeToken",
      "outputs": [],
      "payable": true,
      "stateMutability": "payable",
      "type": "function"
    },
    {
      "constant": false,
      "inputs": [
        {
          "internalType": "address",
          "name": "company",
          "type": "address"
        },
        {
          "internalType": "uint256",
          "name": "amount",
          "type": "uint256"
        }
      ],
      "name": "buyCompanyShares",
      "outputs": [],
      "payable": false,
      "stateMutability": "nonpayable",
      "type": "function"
    },
    {
      "constant": false,
      "inputs": [
        {
          "internalType": "address",
          "name": "company",
          "type": "address"
        },
        {
          "internalType": "uint256",
          "name": "price",
          "type": "uint256"
        }
      ],
      "name": "updateCompanyPrice",
      "outputs": [],
      "payable": false,
      "stateMutability": "nonpayable",
      "type": "function"
    },
    {
      "constant": false,
      "inputs": [
        {
          "internalType": "string",
          "name": "name",
          "type": "string"
        },
        {
          "internalType": "string",
          "name": "symbol",
          "type": "string"
        },
        {
          "internalType": "uint256",
          "name": "price",
          "type": "uint256"
        }
      ],
      "name": "createCompanyAndList",
      "outputs": [],
      "payable": false,
      "stateMutability": "nonpayable",
      "type": "function"
    },
    {
      "constant": false,
      "inputs": [
        {
          "internalType": "address",
          "name": "company",
          "type": "address"
        },
        {
          "internalType": "uint256",
          "name": "price",
          "type": "uint256"
        }
      ],
      "name": "listCompany",
      "outputs": [],
      "payable": false,
      "stateMutability": "nonpayable",
      "type": "function"
    },
    {
      "constant": false,
      "inputs": [
        {
          "internalType": "address",
          "name": "company",
          "type": "address"
        }
      ],
      "name": "delistCompany",
      "outputs": [],
      "payable": false,
      "stateMutability": "nonpayable",
      "type": "function"
    }
  ],
  "bytecode": "0x60806040819052603380546001600160a01b0319163317908190556001600160a01b0316906000907f8be0079c531659141344cd1fd0a4f28419497f9722a3daafe3b4186f6b6457e0908290a36153de8061005b6000396000f3fe6080604052600436106101345760003560e01c806389da6927116100ab578063bbf25bdd1161006f578063bbf25bdd146105be578063bf65a37e146105d3578063de4b6aa5146105fd578063ea26674f14610630578063ec79966a14610663578063f2fde38b1461069c57610134565b806389da6927146105555780638a9ec2a91461056a5780638da5cb5b1461057f5780638f32d59b14610594578063a25eb5d9146105a957610134565b806347535d7b116100fd57806347535d7b1461031e57806350e95441146103475780635c73a9ac1461047f57806368b8e6cb146104d4578063715018a61461050d578063874ff6851461052257610134565b8062166d081461013957806315f2e7ec146101675780632016a0d21461016f578063386f6d6a146102be57806342c31b8e146102f7575b600080fd5b34801561014557600080fd5b506101656004803603602081101561015c57600080fd5b503515156106cf565b005b610165610a71565b34801561017b57600080fd5b506101656004803603608081101561019257600080fd5b6001600160a01b038235811692602081013590911691810190606081016040820135600160201b8111156101c557600080fd5b8201836020820111156101d757600080fd5b803590602001918460018302840111600160201b831117156101f857600080fd5b91908080601f0160208091040260200160405190810160405280939291908181526020018383808284376000920191909152509295949360208101935035915050600160201b81111561024a57600080fd5b82018360208201111561025c57600080fd5b803590602001918460018302840111600160201b8311171561027d57600080fd5b91908080601f016020809104026020016040519081016040528093929190818152602001838380828437600092019190915250929550610fd5945050505050565b3480156102ca57600080fd5b50610165600480360360408110156102e157600080fd5b506001600160a01b038135169060200135611335565b34801561030357600080fd5b5061030c611567565b60408051918252519081900360200190f35b34801561032a57600080fd5b50610333611643565b604080519115158252519081900360200190f35b34801561035357600080fd5b506101656004803603606081101561036a57600080fd5b810190602081018135600160201b81111561038457600080fd5b82018360208201111561039657600080fd5b803590602001918460018302840111600160201b831117156103b757600080fd5b91908080601f0160208091040260200160405190810160405280939291908181526020018383808284376000920191909152509295949360208101935035915050600160201b81111561040957600080fd5b82018360208201111561041b57600080fd5b803590602001918460018302840111600160201b8311171561043c57600080fd5b91908080601f0160208091040260200160405190810160405280939291908181526020018383808284376000920191909152509295505091359250611715915050565b34801561048b57600080fd5b506104b8600480360360408110156104a257600080fd5b506001600160a01b038135169060200135611f82565b604080516001600160a01b039092168252519081900360200190f35b3480156104e057600080fd5b50610165600480360360408110156104f757600080fd5b506001600160a01b038135169060200135611fb7565b34801561051957600080fd5b50610165612daf565b34801561052e57600080fd5b5061030c6004803603602081101561054557600080fd5b50356001600160a01b0316612e40565b34801561056157600080fd5b5061030c612e52565b34801561057657600080fd5b5061030c612f21565b34801561058b57600080fd5b506104b861306d565b3480156105a057600080fd5b5061033361307c565b3480156105b557600080fd5b506104b861308d565b3480156105ca57600080fd5b5061030c61309c565b3480156105df57600080fd5b506104b8600480360360208110156105f657600080fd5b50356131b1565b34801561060957600080fd5b506101656004803603602081101561062057600080fd5b50356001600160a01b03166131d8565b34801561063c57600080fd5b506101656004803603602081101561065357600080fd5b50356001600160a01b031661330d565b34801561066f57600080fd5b506101656004803603604081101561068657600080fd5b506001600160a01b038135169060200135613423565b3480156106a857600080fd5b50610165600480360360208110156106bf57600080fd5b50356001600160a01b0316613c62565b6106d761307c565b610716576040805162461bcd60e51b8152602060048201819052602482015260008051602061531c833981519152604482015290519081900360640190fd5b60008051602061524a833981519152600760405180806020018381526020018281038252604681526020018061528f604691396060019250505060405180910390a1600080516020615150833981519152604f60405180806020018381526020018281038252604681526020018061528f604691396060019250505060405180910390a160008051602061536a833981519152600a60405180806020018381526020018281038252604681526020018061528f604691396060019250505060405180910390a16038805460ff1916821515179055604080516050602082018190528282526046928201839052600080516020615150833981519152929091908190606082019061528f82396060019250505060405180910390a160008051602061536a833981519152600b60405180806020018381526020018281038252604681526020018061528f604691396060019250505060405180910390a18015610975576000805160206151908339815191526002600060405180806020018481526020018381526020018281038252604681526020018061528f60469139606001935050505060405180910390a1600080516020615150833981519152605160405180806020018381526020018281038252604681526020018061528f604691396060019250505060405180910390a160008051602061536a833981519152600c60405180806020018381526020018281038252604681526020018061528f604691396060019250505060405180910390a16040517fc2320542f27067faab4fb23c212d85b173ce523f95ed8fe6938a321d6855fee990600090a1610a6e565b6000805160206151908339815191526002600160405180806020018481526020018381526020018281038252604681526020018061528f60469139606001935050505060405180910390a1600080516020615150833981519152605460405180806020018381526020018281038252604681526020018061528f604691396060019250505060405180910390a160008051602061536a833981519152600d60405180806020018381526020018281038252604681526020018061528f604691396060019250505060405180910390a16040517fe3e6ecd3c9014a95ac75a3756472b14f530f21ac013840eff43cb402205fdb9c90600090a15b50565b60008051602061524a833981519152600560405180806020018381526020018281038252604681526020018061528f604691396060019250505060405180910390a1600080516020615150833981519152604660405180806020018381526020018281038252604681526020018061528f604691396060019250505060405180910390a160008051602061538a833981519152600160405180806020018381526020018281038252604681526020018061528f604691396060019250505060405180910390a160008051602061536a833981519152600860405180806020018381526020018281038252604681526020018061528f604691396060019250505060405180910390a1610b81611643565b610bc5576040805162461bcd60e51b815260206004820152601060248201526f6e6f7420696e206f70656e206d6f646560801b604482015290519081900360640190fd5b600080516020615170833981519152600160405180806020018381526020018281038252604681526020018061528f604691396060019250505060405180910390a1600080516020615150833981519152604760405180806020018381526020018281038252604681526020018061528f604691396060019250505060405180910390a160008051602061524a833981519152600a60405180806020018381526020018281038252604681526020018061528f604691396060019250505060405180910390a1600080516020615150833981519152606560405180806020018381526020018281038252604681526020018061528f604691396060019250505060405180910390a160008051602061538a833981519152600360405180806020018381526020018281038252604681526020018061528f604691396060019250505060405180910390a160008051602061536a833981519152601060405180806020018381526020018281038252604681526020018061528f604691396060019250505060405180910390a160003411610da6576040805162461bcd60e51b815260206004820152601a60248201527f76616c7565206e6565647320746f206265206e6f6e2d7a65726f000000000000604482015290519081900360640190fd5b600080516020615170833981519152600360405180806020018381526020018281038252604681526020018061528f604691396060019250505060405180910390a1600080516020615150833981519152606660405180806020018381526020018281038252604681526020018061528f604691396060019250505060405180910390a160008051602061536a833981519152601160405180806020018381526020018281038252604681526020018061528f604691396060019250505060405180910390a16034546040805163140e25ad60e31b815234600482015290516001600160a01b039092169163a0712d689160248082019260009290919082900301818387803b158015610eb857600080fd5b505af1158015610ecc573d6000803e3d6000fd5b50505050600080516020615150833981519152606760405180806020018381526020018281038252604681526020018061528f604691396060019250505060405180910390a160008051602061536a833981519152601260405180806020018381526020018281038252604681526020018061528f604691396060019250505060405180910390a16034546040805163a9059cbb60e01b815233600482015234602482015290516001600160a01b039092169163a9059cbb916044808201926020929091908290030181600087803b158015610fa757600080fd5b505af1158015610fbb573d6000803e3d6000fd5b505050506040513d6020811015610fd157600080fd5b5050565b600054610100900460ff1680610fee5750610fee613cb2565b80610ffc575060005460ff16155b6110375760405162461bcd60e51b815260040180806020018281038252602e81526020018061533c602e913960400191505060405180910390fd5b600054610100900460ff16158015611062576000805460ff1961ff0019909116610100171660011790555b60008051602061524a833981519152600160405180806020018381526020018281038252604681526020018061528f604691396060019250505060405180910390a1600080516020615150833981519152603260405180806020018381526020018281038252604681526020018061528f604691396060019250505060405180910390a160008051602061536a833981519152600160405180806020018381526020018281038252604681526020018061528f604691396060019250505060405180910390a161113185613cb8565b600080516020615150833981519152603360405180806020018381526020018281038252604681526020018061528f604691396060019250505060405180910390a160008051602061536a833981519152600260405180806020018381526020018281038252604681526020018061528f604691396060019250505060405180910390a16038805460ff19169055604080516034602082018190528282526046928201839052600080516020615150833981519152929091908190606082019061528f82396060019250505060405180910390a160008051602061536a833981519152600360405180806020018381526020018281038252604681526020018061528f604691396060019250505060405180910390a183603860016101000a8154816001600160a01b0302191690836001600160a01b03160217905550600080516020615150833981519152603560405180806020018381526020018281038252604681526020018061528f604691396060019250505060405180910390a160008051602061536a833981519152600460405180806020018381526020018281038252604681526020018061528f604691396060019250505060405180910390a16112fc8383613d59565b603480546001600160a01b0319166001600160a01b0392909216919091179055801561132e576000805461ff00191690555b5050505050565b61133d61307c565b61137c576040805162461bcd60e51b8152602060048201819052602482015260008051602061531c833981519152604482015290519081900360640190fd5b60008051602061524a833981519152600f60405180806020018381526020018281038252604681526020018061528f604691396060019250505060405180910390a160008051602061515083398151915260a860405180806020018381526020018281038252604681526020018061528f604691396060019250505060405180910390a160008051602061536a833981519152602e60405180806020018381526020018281038252604681526020018061528f604691396060019250505060405180910390a1600082905060008051602061515083398151915260a960405180806020018381526020018281038252604681526020018061528f604691396060019250505060405180910390a160008051602061536a833981519152602f60405180806020018381526020018281038252604681526020018061528f604691396060019250505060405180910390a16114d58383613e35565b60008051602061515083398151915260aa60405180806020018381526020018281038252604681526020018061528f604691396060019250505060405180910390a160008051602061536a833981519152603060405180806020018381526020018281038252604681526020018061528f604691396060019250505060405180910390a161156281613fdf565b505050565b600060008051602061524a833981519152600460405180806020018381526020018281038252604681526020018061528f604691396060019250505060405180910390a1600080516020615150833981519152604260405180806020018381526020018281038252604681526020018061528f604691396060019250505060405180910390a160008051602061536a833981519152600760405180806020018381526020018281038252604681526020018061528f604691396060019250505060405180910390a1503360009081526037602052604090205490565b600060008051602061524a833981519152600660405180806020018381526020018281038252604681526020018061528f604691396060019250505060405180910390a1600080516020615150833981519152604b60405180806020018381526020018281038252604681526020018061528f604691396060019250505060405180910390a160008051602061536a833981519152600960405180806020018381526020018281038252604681526020018061528f604691396060019250505060405180910390a15060385460ff1690565b60008051602061524a833981519152600560405180806020018381526020018281038252604681526020018061528f604691396060019250505060405180910390a1600080516020615150833981519152604660405180806020018381526020018281038252604681526020018061528f604691396060019250505060405180910390a160008051602061538a833981519152600160405180806020018381526020018281038252604681526020018061528f604691396060019250505060405180910390a160008051602061536a833981519152600860405180806020018381526020018281038252604681526020018061528f604691396060019250505060405180910390a1611825611643565b611869576040805162461bcd60e51b815260206004820152601060248201526f6e6f7420696e206f70656e206d6f646560801b604482015290519081900360640190fd5b600080516020615170833981519152600160405180806020018381526020018281038252604681526020018061528f604691396060019250505060405180910390a1600080516020615150833981519152604760405180806020018381526020018281038252604681526020018061528f604691396060019250505060405180910390a160008051602061524a833981519152600e60405180806020018381526020018281038252604681526020018061528f604691396060019250505060405180910390a1600080516020615150833981519152609e60405180806020018381526020018281038252604681526020018061528f604691396060019250505060405180910390a160008051602061536a833981519152602760405180806020018381526020018281038252604681526020018061528f604691396060019250505060405180910390a160408051600081526020810180835281518120609f83850181905293825260466060840181905290936000805160206151508339815191529390929182916080019061528f82396060019250505060405180910390a160008051602061538a833981519152600a60405180806020018381526020018281038252604681526020018061528f604691396060019250505060405180910390a160008051602061536a833981519152602860405180806020018381526020018281038252604681526020018061528f604691396060019250505060405180910390a180846040516020018082805190602001908083835b60208310611ac15780518252601f199092019160209182019101611aa2565b6001836020036101000a038019825116818451168082178552505050505050905001915050604051602081830303815290604052805190602001201415611b42576040805162461bcd60e51b815260206004820152601060248201526f32b6b83a3c903730b6b29033b4bb32b760811b604482015290519081900360640190fd5b600080516020615170833981519152600a60405180806020018381526020018281038252604681526020018061528f604691396060019250505060405180910390a160008051602061515083398151915260a060405180806020018381526020018281038252604681526020018061528f604691396060019250505060405180910390a160008051602061538a833981519152600b60405180806020018381526020018281038252604681526020018061528f604691396060019250505060405180910390a160008051602061536a833981519152602960405180806020018381526020018281038252604681526020018061528f604691396060019250505060405180910390a180836040516020018082805190602001908083835b60208310611c7e5780518252601f199092019160209182019101611c5f565b6001836020036101000a038019825116818451168082178552505050505050905001915050604051602081830303815290604052805190602001201415611d01576040805162461bcd60e51b815260206004820152601260248201527132b6b83a3c9039bcb6b137b61033b4bb32b760711b604482015290519081900360640190fd5b600080516020615170833981519152600b60405180806020018381526020018281038252604681526020018061528f604691396060019250505060405180910390a160008051602061515083398151915260a160405180806020018381526020018281038252604681526020018061528f604691396060019250505060405180910390a160008051602061536a833981519152602a60405180806020018381526020018281038252604681526020018061528f604691396060019250505060405180910390a1600033905060008051602061515083398151915260a260405180806020018381526020018281038252604681526020018061528f604691396060019250505060405180910390a160008051602061536a833981519152602b60405180806020018381526020018281038252604681526020018061528f604691396060019250505060405180910390a16000611e5d828787614354565b905060008051602061515083398151915260a360405180806020018381526020018281038252604681526020018061528f604691396060019250505060405180910390a160008051602061536a833981519152602c60405180806020018381526020018281038252604681526020018061528f604691396060019250505060405180910390a1611eec81613fdf565b60008051602061515083398151915260a460405180806020018381526020018281038252604681526020018061528f604691396060019250505060405180910390a160008051602061536a833981519152602d60405180806020018381526020018281038252604681526020018061528f604691396060019250505060405180910390a1611f7a8185613e35565b505050505050565b60376020528160005260406000208181548110611f9b57fe5b6000918252602090912001546001600160a01b03169150829050565b60008051602061524a833981519152600560405180806020018381526020018281038252604681526020018061528f604691396060019250505060405180910390a1600080516020615150833981519152604660405180806020018381526020018281038252604681526020018061528f604691396060019250505060405180910390a160008051602061538a833981519152600160405180806020018381526020018281038252604681526020018061528f604691396060019250505060405180910390a160008051602061536a833981519152600860405180806020018381526020018281038252604681526020018061528f604691396060019250505060405180910390a16120c7611643565b61210b576040805162461bcd60e51b815260206004820152601060248201526f6e6f7420696e206f70656e206d6f646560801b604482015290519081900360640190fd5b600080516020615170833981519152600160405180806020018381526020018281038252604681526020018061528f604691396060019250505060405180910390a1600080516020615150833981519152604760405180806020018381526020018281038252604681526020018061528f604691396060019250505060405180910390a160008051602061524a833981519152600b60405180806020018381526020018281038252604681526020018061528f604691396060019250505060405180910390a1600080516020615150833981519152607360405180806020018381526020018281038252604681526020018061528f604691396060019250505060405180910390a160008051602061538a833981519152600460405180806020018381526020018281038252604681526020018061528f604691396060019250505060405180910390a160008051602061536a833981519152601360405180806020018381526020018281038252604681526020018061528f604691396060019250505060405180910390a16122a082614619565b6122e8576040805162461bcd60e51b81526020600482015260146024820152736e6f742061206c697374656420636f6d70616e7960601b604482015290519081900360640190fd5b600080516020615170833981519152600460405180806020018381526020018281038252604681526020018061528f604691396060019250505060405180910390a1600080516020615150833981519152607460405180806020018381526020018281038252604681526020018061528f604691396060019250505060405180910390a160008051602061536a833981519152601460405180806020018381526020018281038252604681526020018061528f604691396060019250505060405180910390a1600060356000846001600160a01b03166001600160a01b03168152602001908152602001600020549050600080516020615150833981519152607560405180806020018381526020018281038252604681526020018061528f604691396060019250505060405180910390a160008051602061536a833981519152601560405180806020018381526020018281038252604681526020018061528f604691396060019250505060405180910390a16000339050600080516020615150833981519152607660405180806020018381526020018281038252604681526020018061528f604691396060019250505060405180910390a160008051602061536a833981519152601660405180806020018381526020018281038252604681526020018061528f604691396060019250505060405180910390a16000849050600080516020615150833981519152607760405180806020018381526020018281038252604681526020018061528f604691396060019250505060405180910390a160008051602061536a833981519152601760405180806020018381526020018281038252604681526020018061528f604691396060019250505060405180910390a16000816001600160a01b0316638da5cb5b6040518163ffffffff1660e01b8152600401602060405180830381600087803b1580156125ab57600080fd5b505af11580156125bf573d6000803e3d6000fd5b505050506040513d60208110156125d557600080fd5b505160408051607860208201819052828252604692820183905292935060008051602061515083398151915292918190606082019061528f82396060019250505060405180910390a160008051602061536a833981519152601860405180806020018381526020018281038252604681526020018061528f604691396060019250505060405180910390a1600061268a670de0b6b3a764000061267e888863ffffffff6146ff16565b9063ffffffff61475816565b9050600080516020615150833981519152607960405180806020018381526020018281038252604681526020018061528f604691396060019250505060405180910390a160008051602061536a833981519152601960405180806020018381526020018281038252604681526020018061528f604691396060019250505060405180910390a160408051636eb1769f60e11b81526001600160a01b038481166004830152306024830152915160009286169163dd62ed3e91604480830192602092919082900301818787803b15801561276257600080fd5b505af1158015612776573d6000803e3d6000fd5b505050506040513d602081101561278c57600080fd5b505160408051607a60208201819052828252604692820183905292935060008051602061515083398151915292918190606082019061528f82396060019250505060405180910390a160008051602061538a833981519152600560405180806020018381526020018281038252604681526020018061528f604691396060019250505060405180910390a160008051602061536a833981519152601a60405180806020018381526020018281038252604681526020018061528f604691396060019250505060405180910390a1868110156128985760405162461bcd60e51b81526004018080602001828103825260368152602001806151d66036913960400191505060405180910390fd5b600080516020615170833981519152600560405180806020018381526020018281038252604681526020018061528f604691396060019250505060405180910390a1600080516020615150833981519152607d60405180806020018381526020018281038252604681526020018061528f604691396060019250505060405180910390a160008051602061538a833981519152600660405180806020018381526020018281038252604681526020018061528f604691396060019250505060405180910390a160008051602061536a833981519152601b60405180806020018381526020018281038252604681526020018061528f604691396060019250505060405180910390a160345460408051636eb1769f60e11b81526001600160a01b03888116600483015230602483015291518593929092169163dd62ed3e916044808201926020929091908290030181600087803b1580156129f857600080fd5b505af1158015612a0c573d6000803e3d6000fd5b505050506040513d6020811015612a2257600080fd5b50511015612a615760405162461bcd60e51b815260040180806020018281038252603e81526020018061520c603e913960400191505060405180910390fd5b600080516020615170833981519152600660405180806020018381526020018281038252604681526020018061528f604691396060019250505060405180910390a1600080516020615150833981519152608060405180806020018381526020018281038252604681526020018061528f604691396060019250505060405180910390a160008051602061536a833981519152601c60405180806020018381526020018281038252604681526020018061528f604691396060019250505060405180910390a1604080516323b872dd60e01b81526001600160a01b0385811660048301528781166024830152604482018a90529151918616916323b872dd916064808201926020929091908290030181600087803b158015612b8257600080fd5b505af1158015612b96573d6000803e3d6000fd5b505050506040513d6020811015612bac57600080fd5b5050604080516081602082018190528282526046928201839052600080516020615150833981519152929091908190606082019061528f82396060019250505060405180910390a160008051602061536a833981519152601d60405180806020018381526020018281038252604681526020018061528f604691396060019250505060405180910390a1603454604080516323b872dd60e01b81526001600160a01b038881166004830152868116602483015260448201869052915191909216916323b872dd9160648083019260209291908290030181600087803b158015612c9457600080fd5b505af1158015612ca8573d6000803e3d6000fd5b505050506040513d6020811015612cbe57600080fd5b5050604080516082602082018190528282526046928201839052600080516020615150833981519152929091908190606082019061528f82396060019250505060405180910390a160008051602061536a833981519152601e60405180806020018381526020018281038252604681526020018061528f604691396060019250505060405180910390a1826001600160a01b0316856001600160a01b0316896001600160a01b03167f520d7599dc1568f101febb1a97b5297f877f744199a603449874ae8826f57c9e8a8a604051808381526020018281526020019250505060405180910390a45050505050505050565b612db761307c565b612df6576040805162461bcd60e51b8152602060048201819052602482015260008051602061531c833981519152604482015290519081900360640190fd5b6033546040516000916001600160a01b0316907f8be0079c531659141344cd1fd0a4f28419497f9722a3daafe3b4186f6b6457e0908390a3603380546001600160a01b0319169055565b60356020526000908152604090205481565b600060008051602061524a833981519152600360405180806020018381526020018281038252604681526020018061528f604691396060019250505060405180910390a1600080516020615150833981519152603e60405180806020018381526020018281038252604681526020018061528f604691396060019250505060405180910390a160008051602061536a833981519152600660405180806020018381526020018281038252604681526020018061528f604691396060019250505060405180910390a15060365490565b600060008051602061524a833981519152600860405180806020018381526020018281038252604681526020018061528f604691396060019250505060405180910390a1600080516020615150833981519152605960405180806020018381526020018281038252604681526020018061528f604691396060019250505060405180910390a160008051602061536a833981519152600e60405180806020018381526020018281038252604681526020018061528f604691396060019250505060405180910390a160345460408051636eb1769f60e11b815233600482015230602482015290516001600160a01b039092169163dd62ed3e916044808201926020929091908290030181600087803b15801561303c57600080fd5b505af1158015613050573d6000803e3d6000fd5b505050506040513d602081101561306657600080fd5b5051905090565b6033546001600160a01b031690565b6033546001600160a01b0316331490565b6034546001600160a01b031681565b600060008051602061524a833981519152600960405180806020018381526020018281038252604681526020018061528f604691396060019250505060405180910390a1600080516020615150833981519152605d60405180806020018381526020018281038252604681526020018061528f604691396060019250505060405180910390a160008051602061536a833981519152600f60405180806020018381526020018281038252604681526020018061528f604691396060019250505060405180910390a1603454604080516370a0823160e01b815233600482015290516001600160a01b03909216916370a08231916024808201926020929091908290030181600087803b15801561303c57600080fd5b603681815481106131be57fe5b6000918252602090912001546001600160a01b0316905081565b6131e061307c565b61321f576040805162461bcd60e51b8152602060048201819052602482015260008051602061531c833981519152604482015290519081900360640190fd5b60008051602061524a833981519152600260405180806020018381526020018281038252604681526020018061528f604691396060019250505060405180910390a1600080516020615150833981519152603960405180806020018381526020018281038252604681526020018061528f604691396060019250505060405180910390a160008051602061536a833981519152600560405180806020018381526020018281038252604681526020018061528f604691396060019250505060405180910390a1603880546001600160a01b0390921661010002610100600160a81b0319909216919091179055565b61331561307c565b613354576040805162461bcd60e51b8152602060048201819052602482015260008051602061531c833981519152604482015290519081900360640190fd5b60008051602061524a833981519152601060405180806020018381526020018281038252604681526020018061528f604691396060019250505060405180910390a160008051602061515083398151915260ae60405180806020018381526020018281038252604681526020018061528f604691396060019250505060405180910390a160008051602061536a833981519152603160405180806020018381526020018281038252604681526020018061528f604691396060019250505060405180910390a1610a6e816147c2565b60008051602061524a833981519152600560405180806020018381526020018281038252604681526020018061528f604691396060019250505060405180910390a1600080516020615150833981519152604660405180806020018381526020018281038252604681526020018061528f604691396060019250505060405180910390a160008051602061538a833981519152600160405180806020018381526020018281038252604681526020018061528f604691396060019250505060405180910390a160008051602061536a833981519152600860405180806020018381526020018281038252604681526020018061528f604691396060019250505060405180910390a1613533611643565b613577576040805162461bcd60e51b815260206004820152601060248201526f6e6f7420696e206f70656e206d6f646560801b604482015290519081900360640190fd5b600080516020615170833981519152600160405180806020018381526020018281038252604681526020018061528f604691396060019250505060405180910390a1600080516020615150833981519152604760405180806020018381526020018281038252604681526020018061528f604691396060019250505060405180910390a160008051602061524a833981519152600c60405180806020018381526020018281038252604681526020018061528f604691396060019250505060405180910390a1600080516020615150833981519152608c60405180806020018381526020018281038252604681526020018061528f604691396060019250505060405180910390a160008051602061536a833981519152601f60405180806020018381526020018281038252604681526020018061528f604691396060019250505060405180910390a1600060356000846001600160a01b03166001600160a01b03168152602001908152602001600020549050600080516020615150833981519152608d60405180806020018381526020018281038252604681526020018061528f604691396060019250505060405180910390a160008051602061538a833981519152600760405180806020018381526020018281038252604681526020018061528f604691396060019250505060405180910390a160008051602061536a833981519152602060405180806020018381526020018281038252604681526020018061528f604691396060019250505060405180910390a1600081116137fe576040805162461bcd60e51b815260206004820152601560248201527418dbdb5c185b9e481a5cc81b9bdd081b1a5cdd1959605a1b604482015290519081900360640190fd5b600080516020615170833981519152600760405180806020018381526020018281038252604681526020018061528f604691396060019250505060405180910390a1600080516020615150833981519152608e60405180806020018381526020018281038252604681526020018061528f604691396060019250505060405180910390a160008051602061536a833981519152602160405180806020018381526020018281038252604681526020018061528f604691396060019250505060405180910390a16000839050600080516020615150833981519152608f60405180806020018381526020018281038252604681526020018061528f604691396060019250505060405180910390a160008051602061538a833981519152600860405180806020018381526020018281038252604681526020018061528f604691396060019250505060405180910390a160008051602061536a833981519152602260405180806020018381526020018281038252604681526020018061528f604691396060019250505060405180910390a1336001600160a01b0316816001600160a01b0316638da5cb5b6040518163ffffffff1660e01b8152600401602060405180830381600087803b1580156139d457600080fd5b505af11580156139e8573d6000803e3d6000fd5b505050506040513d60208110156139fe57600080fd5b50516001600160a01b031614613a455760405162461bcd60e51b815260040180806020018281038252602581526020018061526a6025913960400191505060405180910390fd5b600080516020615170833981519152600860405180806020018381526020018281038252604681526020018061528f604691396060019250505060405180910390a1600080516020615150833981519152609060405180806020018381526020018281038252604681526020018061528f604691396060019250505060405180910390a160008051602061538a833981519152600960405180806020018381526020018281038252604681526020018061528f604691396060019250505060405180910390a160008051602061536a833981519152602360405180806020018381526020018281038252604681526020018061528f604691396060019250505060405180910390a160008311613b8c5760405162461bcd60e51b81526004018080602001828103825260268152602001806152f66026913960400191505060405180910390fd5b600080516020615170833981519152600960405180806020018381526020018281038252604681526020018061528f604691396060019250505060405180910390a1600080516020615150833981519152609160405180806020018381526020018281038252604681526020018061528f604691396060019250505060405180910390a160008051602061536a833981519152602460405180806020018381526020018281038252604681526020018061528f604691396060019250505060405180910390a1613c5c8484613e35565b50505050565b613c6a61307c565b613ca9576040805162461bcd60e51b8152602060048201819052602482015260008051602061531c833981519152604482015290519081900360640190fd5b610a6e81613cb8565b303b1590565b6001600160a01b038116613cfd5760405162461bcd60e51b81526004018080602001828103825260268152602001806151b06026913960400191505060405180910390fd5b6033546040516001600160a01b038084169216907f8be0079c531659141344cd1fd0a4f28419497f9722a3daafe3b4186f6b6457e090600090a3603380546001600160a01b0319166001600160a01b0392909216919091179055565b600060008051602061524a833981519152601160405180806020018381526020018281038252604681526020018061528f604691396060019250505060405180910390a160008051602061515083398151915260b560405180806020018381526020018281038252604681526020018061528f604691396060019250505060405180910390a160008051602061536a833981519152603260405180806020018381526020018281038252604681526020018061528f604691396060019250505060405180910390a1613e2c308484614354565b90505b92915050565b60008051602061524a833981519152600d60405180806020018381526020018281038252604681526020018061528f604691396060019250505060405180910390a1600080516020615150833981519152609560405180806020018381526020018281038252604681526020018061528f604691396060019250505060405180910390a160008051602061536a833981519152602560405180806020018381526020018281038252604681526020018061528f604691396060019250505060405180910390a16001600160a01b038216600090815260356020908152604091829020839055815160969181018290528281526046928101839052600080516020615150833981519152928190606082019061528f82396060019250505060405180910390a160008051602061536a833981519152602660405180806020018381526020018281038252604681526020018061528f604691396060019250505060405180910390a16040805182815290516001600160a01b038416917fec8e3a2619b5eaca43073fc46aa092d4c9d58e3332506a2f6967bda9578933a0919081900360200190a25050565b60008051602061524a833981519152601460405180806020018381526020018281038252604681526020018061528f604691396060019250505060405180910390a160008051602061515083398151915260c760405180806020018381526020018281038252604681526020018061528f604691396060019250505060405180910390a160008051602061536a833981519152603660405180806020018381526020018281038252604681526020018061528f604691396060019250505060405180910390a1603680546001810182556000919091527f4a11f94e20a93c79f6ec743a1954ec4fc2c08429ae2122118bf234b2185c81b80180546001600160a01b0319166001600160a01b0383161790556040805160c8602082018190528282526046928201839052600080516020615150833981519152929091908190606082019061528f82396060019250505060405180910390a160008051602061536a833981519152603760405180806020018381526020018281038252604681526020018061528f604691396060019250505060405180910390a160376000826001600160a01b0316638da5cb5b6040518163ffffffff1660e01b8152600401602060405180830381600087803b1580156141b757600080fd5b505af11580156141cb573d6000803e3d6000fd5b505050506040513d60208110156141e157600080fd5b50516001600160a01b039081168252602080830193909352604091820160009081208054600181018255908252908490200180546001600160a01b031916918516919091179055805160c9928101839052818152604691810182905260008051602061515083398151915292918190606082019061528f82396060019250505060405180910390a160008051602061536a833981519152603860405180806020018381526020018281038252604681526020018061528f604691396060019250505060405180910390a1806001600160a01b0316816001600160a01b0316638da5cb5b6040518163ffffffff1660e01b8152600401602060405180830381600087803b1580156142f057600080fd5b505af1158015614304573d6000803e3d6000fd5b505050506040513d602081101561431a57600080fd5b50516040516001600160a01b03909116907ff4ce8b96113eecaf9c3e4e02dc4345eb4fd136a5ba35ab5dba6c7ae82f7d5d7290600090a350565b600060008051602061524a833981519152601260405180806020018381526020018281038252604681526020018061528f604691396060019250505060405180910390a160008051602061515083398151915260bf60405180806020018381526020018281038252604681526020018061528f604691396060019250505060405180910390a160008051602061536a833981519152603360405180806020018381526020018281038252604681526020018061528f604691396060019250505060405180910390a16000603860019054906101000a90046001600160a01b03166001600160a01b0316634b3c465c8686866040518463ffffffff1660e01b815260040180846001600160a01b03166001600160a01b031681526020018060200180602001838103835285818151815260200191508051906020019080838360005b838110156144ad578181015183820152602001614495565b50505050905090810190601f1680156144da5780820380516001836020036101000a031916815260200191505b50838103825284518152845160209182019186019080838360005b8381101561450d5781810151838201526020016144f5565b50505050905090810190601f16801561453a5780820380516001836020036101000a031916815260200191505b5095505050505050602060405180830381600087803b15801561455c57600080fd5b505af1158015614570573d6000803e3d6000fd5b505050506040513d602081101561458657600080fd5b50516040805160c060208201819052828252604692820183905292935060008051602061515083398151915292918190606082019061528f82396060019250505060405180910390a160008051602061536a833981519152603460405180806020018381526020018281038252604681526020018061528f604691396060019250505060405180910390a1949350505050565b600060008051602061524a833981519152601360405180806020018381526020018281038252604681526020018061528f604691396060019250505060405180910390a160008051602061515083398151915260c460405180806020018381526020018281038252604681526020018061528f604691396060019250505060405180910390a160008051602061536a833981519152603560405180806020018381526020018281038252604681526020018061528f604691396060019250505060405180910390a1506001600160a01b0316600090815260356020526040902054151590565b60008261470e57506000613e2f565b8282028284828161471b57fe5b0414613e2c5760405162461bcd60e51b81526004018080602001828103825260218152602001806152d56021913960400191505060405180910390fd5b60008082116147ae576040805162461bcd60e51b815260206004820152601a60248201527f536166654d6174683a206469766973696f6e206279207a65726f000000000000604482015290519081900360640190fd5b60008284816147b957fe5b04949350505050565b60008051602061524a833981519152601560405180806020018381526020018281038252604681526020018061528f604691396060019250505060405180910390a160008051602061515083398151915260cd60405180806020018381526020018281038252604681526020018061528f604691396060019250505060405180910390a160008051602061536a833981519152603960405180806020018381526020018281038252604681526020018061528f604691396060019250505060405180910390a16001600160a01b038116600090815260356020908152604080832092909255815160ce9181018290528281526046928101839052600080516020615150833981519152928190606082019061528f82396060019250505060405180910390a160008051602061536a833981519152603a60405180806020018381526020018281038252604681526020018061528f604691396060019250505060405180910390a160005b603654811015614c725760008051602061515083398151915260d060405180806020018381526020018281038252604681526020018061528f604691396060019250505060405180910390a160008051602061536a833981519152603b60405180806020018381526020018281038252604681526020018061528f604691396060019250505060405180910390a1816001600160a01b0316603682815481106149d157fe5b6000918252602090912001546001600160a01b03161415614c1f57600080516020615190833981519152600c600060405180806020018481526020018381526020018281038252604681526020018061528f60469139606001935050505060405180910390a160008051602061515083398151915260d260405180806020018381526020018281038252604681526020018061528f604691396060019250505060405180910390a160008051602061536a833981519152603c60405180806020018381526020018281038252604681526020018061528f604691396060019250505060405180910390a1603680546000198101908110614acd57fe5b600091825260209091200154603680546001600160a01b039092169183908110614af357fe5b9060005260206000200160006101000a8154816001600160a01b0302191690836001600160a01b0316021790555060008051602061515083398151915260d360405180806020018381526020018281038252604681526020018061528f604691396060019250505060405180910390a160008051602061536a833981519152603d60405180806020018381526020018281038252604681526020018061528f604691396060019250505060405180910390a16036805480614bb057fe5b6001900381819060005260206000200160006101000a8154906001600160a01b030219169055905560008051602061515083398151915260d460405180806020018381526020018281038252604681526020018061528f604691396060019250505060405180910390a1614c72565b600080516020615190833981519152600c600160405180806020018481526020018381526020018281038252604681526020018061528f60469139606001935050505060405180910390a160010161492c565b5060008051602061515083398151915260d760405180806020018381526020018281038252604681526020018061528f604691396060019250505060405180910390a160008051602061536a833981519152603e60405180806020018381526020018281038252604681526020018061528f604691396060019250505060405180910390a1600060376000836001600160a01b0316638da5cb5b6040518163ffffffff1660e01b8152600401602060405180830381600087803b158015614d3857600080fd5b505af1158015614d4c573d6000803e3d6000fd5b505050506040513d6020811015614d6257600080fd5b50516001600160a01b031681526020818101929092526040908101600020815160d8938101849052828152604692810183905290935060008051602061515083398151915292918190606082019061528f82396060019250505060405180910390a160008051602061536a833981519152603f60405180806020018381526020018281038252604681526020018061528f604691396060019250505060405180910390a160005b81548110156115625760008051602061515083398151915260da60405180806020018381526020018281038252604681526020018061528f604691396060019250505060405180910390a160008051602061536a8339815191526040805180806020018381526020018281038252604681526020018061528f604691396060019250505060405180910390a1826001600160a01b0316828281548110614eab57fe5b6000918252602090912001546001600160a01b031614156150fc57600080516020615190833981519152600d600060405180806020018481526020018381526020018281038252604681526020018061528f60469139606001935050505060405180910390a160008051602061515083398151915260dc60405180806020018381526020018281038252604681526020018061528f604691396060019250505060405180910390a160008051602061536a833981519152604160405180806020018381526020018281038252604681526020018061528f604691396060019250505060405180910390a1815482906000198101908110614fa757fe5b9060005260206000200160009054906101000a90046001600160a01b0316828281548110614fd157fe5b9060005260206000200160006101000a8154816001600160a01b0302191690836001600160a01b0316021790555060008051602061515083398151915260dd60405180806020018381526020018281038252604681526020018061528f604691396060019250505060405180910390a160008051602061536a833981519152604260405180806020018381526020018281038252604681526020018061528f604691396060019250505060405180910390a18180548061508d57fe5b6001900381819060005260206000200160006101000a8154906001600160a01b030219169055905560008051602061515083398151915260de60405180806020018381526020018281038252604681526020018061528f604691396060019250505060405180910390a1611562565b600080516020615190833981519152600d600160405180806020018481526020018381526020018281038252604681526020018061528f60469139606001935050505060405180910390a1600101614e0956fea13e231caa5fc45a6f2c3f8564c4fb6a8868bd712de386be562fc90d9e36ebacd162ff039d3416dcebec07374a0f635f43ccef20d3813347b865a37ee75f97ef48115eba26cac3834d3f76447fffa16dc21afd87e145032dae44c8876fcd2ff04f776e61626c653a206e6577206f776e657220697320746865207a65726f206164647265737373656c6c657220646f6573206e6f74206861766520656e6f7567682073686172657320746f2066696c6c207472616e73616374696f6e627579657220646f6573206e6f74206861766520656e6f7567682065786368616e676520746f6b656e7320746f2066696c6c207472616e73616374696f6e6d7a174c1d9f9fb244a9aea53ca7df032feb7365c9980704408d314341962c0570726963652d736574746572206973206e6f742074686520636f6d70616e79206f776e65722f686f6d652f7368756c6f682f436f64652f656e74616e676c652d65786368616e67652f636f6e7472616374732f5072697661746545786368616e67654c6f6769632e736f6c536166654d6174683a206d756c7469706c69636174696f6e206f766572666c6f777072696365206973206e6f7420736574206173206120706f73697469766520696e74656765724f776e61626c653a2063616c6c6572206973206e6f7420746865206f776e6572436f6e747261637420696e7374616e63652068617320616c7265616479206265656e20696e697469616c697a656419329edcaa7b5f57cff0e7e0ec5b4291917a8ecb296c9cb973e5799ddb1674d3715040c31ac159ae858a1c00b66334b8288675b1469be1fdf64f0f61293208caa265627a7a723158201fe615997fa849f3ec7ddf33c7823b06cc526feae54122b4c6ed72f35e29062264736f6c634300050c0032",
  "source": "pragma solidity 0.5.12;\nimport \"@openzeppelin/contracts/ownership/Ownable.sol\";\nimport \"@openzeppelin/upgrades/contracts/Initializable.sol\";\nimport \"@openzeppelin/contracts/math/SafeMath.sol\";\nimport \"./IPrivateCompany.sol\";\nimport \"./IPrivateCompanyFactory.sol\";\n\n\ncontract PrivateExchangeLogic is Initializable, Ownable {event __CoveragePrivateExchangeLogic(string fileName, uint256 lineNumber);\nevent __FunctionCoveragePrivateExchangeLogic(string fileName, uint256 fnId);\nevent __StatementCoveragePrivateExchangeLogic(string fileName, uint256 statementId);\nevent __BranchCoveragePrivateExchangeLogic(string fileName, uint256 branchId, uint256 locationIdx);\nevent __AssertPreCoveragePrivateExchangeLogic(string fileName, uint256 branchId);\nevent __AssertPostCoveragePrivateExchangeLogic(string fileName, uint256 branchId);\n\n    using SafeMath for uint256;\n\n    IPrivateCompany public exchangeToken;\n\n    mapping(address => uint256) public listedCompanyPrices;\n\n    IPrivateCompany[] public listedCompanies;\n\n    mapping(address => IPrivateCompany[]) public ownerCompanies;\n\n    bool private _openMode;\n\n    IPrivateCompanyFactory private _companyFactory;\n\n    event ExchangeClosed();\n\n    event ExchangeOpened();\n\n    event CompanyListed(address indexed owner, address indexed company);\n\n    event ExchangeTokenPurchased(address indexed account, address amount);\n\n    event ShareTransaction(\n        address indexed company,\n        address indexed buyer,\n        address indexed seller,\n        uint256 amount,\n        uint256 price\n    );\n\n    event CompanyPriceUpdated(address indexed company, uint256 price);\n\n    //We must set the owner in the initializer func due to the proxy pattern.\n    //State in this contract is meaningless through a proxy.\n    function initialize(\n        address owner,\n        address companyFactory,\n        string memory name,\n        string memory symbol\n    ) public initializer {emit __FunctionCoveragePrivateExchangeLogic('/home/shuloh/Code/entangle-exchange/contracts/PrivateExchangeLogic.sol',1);\n\nemit __CoveragePrivateExchangeLogic('/home/shuloh/Code/entangle-exchange/contracts/PrivateExchangeLogic.sol',50);\n        emit __StatementCoveragePrivateExchangeLogic('/home/shuloh/Code/entangle-exchange/contracts/PrivateExchangeLogic.sol',1);\n_transferOwnership(owner);\nemit __CoveragePrivateExchangeLogic('/home/shuloh/Code/entangle-exchange/contracts/PrivateExchangeLogic.sol',51);\n        emit __StatementCoveragePrivateExchangeLogic('/home/shuloh/Code/entangle-exchange/contracts/PrivateExchangeLogic.sol',2);\n_openMode = false;\nemit __CoveragePrivateExchangeLogic('/home/shuloh/Code/entangle-exchange/contracts/PrivateExchangeLogic.sol',52);\n        emit __StatementCoveragePrivateExchangeLogic('/home/shuloh/Code/entangle-exchange/contracts/PrivateExchangeLogic.sol',3);\n_companyFactory = IPrivateCompanyFactory(companyFactory);\nemit __CoveragePrivateExchangeLogic('/home/shuloh/Code/entangle-exchange/contracts/PrivateExchangeLogic.sol',53);\n        emit __StatementCoveragePrivateExchangeLogic('/home/shuloh/Code/entangle-exchange/contracts/PrivateExchangeLogic.sol',4);\nexchangeToken = _makeExchangeToken(name, symbol);\n    }\n\n    function upgradeCompanyFactory(address companyFactory) public onlyOwner {emit __FunctionCoveragePrivateExchangeLogic('/home/shuloh/Code/entangle-exchange/contracts/PrivateExchangeLogic.sol',2);\n\nemit __CoveragePrivateExchangeLogic('/home/shuloh/Code/entangle-exchange/contracts/PrivateExchangeLogic.sol',57);\n        emit __StatementCoveragePrivateExchangeLogic('/home/shuloh/Code/entangle-exchange/contracts/PrivateExchangeLogic.sol',5);\n_companyFactory = IPrivateCompanyFactory(companyFactory);\n    }\n\n\n    function numberOfListedCompanies()      public returns(uint256) {emit __FunctionCoveragePrivateExchangeLogic('/home/shuloh/Code/entangle-exchange/contracts/PrivateExchangeLogic.sol',3);\n\nemit __CoveragePrivateExchangeLogic('/home/shuloh/Code/entangle-exchange/contracts/PrivateExchangeLogic.sol',62);\n        emit __StatementCoveragePrivateExchangeLogic('/home/shuloh/Code/entangle-exchange/contracts/PrivateExchangeLogic.sol',6);\nreturn listedCompanies.length;\n    }\n\n    function numberOfOwnedCompanies()      public returns(uint256) {emit __FunctionCoveragePrivateExchangeLogic('/home/shuloh/Code/entangle-exchange/contracts/PrivateExchangeLogic.sol',4);\n\nemit __CoveragePrivateExchangeLogic('/home/shuloh/Code/entangle-exchange/contracts/PrivateExchangeLogic.sol',66);\n        emit __StatementCoveragePrivateExchangeLogic('/home/shuloh/Code/entangle-exchange/contracts/PrivateExchangeLogic.sol',7);\nreturn ownerCompanies[msg.sender].length;\n    }\n\n    modifier onlyOpen() {emit __FunctionCoveragePrivateExchangeLogic('/home/shuloh/Code/entangle-exchange/contracts/PrivateExchangeLogic.sol',5);\n\nemit __CoveragePrivateExchangeLogic('/home/shuloh/Code/entangle-exchange/contracts/PrivateExchangeLogic.sol',70);\n        emit __AssertPreCoveragePrivateExchangeLogic('/home/shuloh/Code/entangle-exchange/contracts/PrivateExchangeLogic.sol',1);\nemit __StatementCoveragePrivateExchangeLogic('/home/shuloh/Code/entangle-exchange/contracts/PrivateExchangeLogic.sol',8);\nrequire(isOpen(), \"not in open mode\");emit __AssertPostCoveragePrivateExchangeLogic('/home/shuloh/Code/entangle-exchange/contracts/PrivateExchangeLogic.sol',1);\n\nemit __CoveragePrivateExchangeLogic('/home/shuloh/Code/entangle-exchange/contracts/PrivateExchangeLogic.sol',71);\n        _;\n    }\n\n    function isOpen() public      returns (bool) {emit __FunctionCoveragePrivateExchangeLogic('/home/shuloh/Code/entangle-exchange/contracts/PrivateExchangeLogic.sol',6);\n\nemit __CoveragePrivateExchangeLogic('/home/shuloh/Code/entangle-exchange/contracts/PrivateExchangeLogic.sol',75);\n        emit __StatementCoveragePrivateExchangeLogic('/home/shuloh/Code/entangle-exchange/contracts/PrivateExchangeLogic.sol',9);\nreturn _openMode;\n    }\n\n    function switchOpenMode(bool value) public onlyOwner {emit __FunctionCoveragePrivateExchangeLogic('/home/shuloh/Code/entangle-exchange/contracts/PrivateExchangeLogic.sol',7);\n\nemit __CoveragePrivateExchangeLogic('/home/shuloh/Code/entangle-exchange/contracts/PrivateExchangeLogic.sol',79);\n        emit __StatementCoveragePrivateExchangeLogic('/home/shuloh/Code/entangle-exchange/contracts/PrivateExchangeLogic.sol',10);\n_openMode = value;\nemit __CoveragePrivateExchangeLogic('/home/shuloh/Code/entangle-exchange/contracts/PrivateExchangeLogic.sol',80);\n        emit __StatementCoveragePrivateExchangeLogic('/home/shuloh/Code/entangle-exchange/contracts/PrivateExchangeLogic.sol',11);\nif (value){emit __BranchCoveragePrivateExchangeLogic('/home/shuloh/Code/entangle-exchange/contracts/PrivateExchangeLogic.sol',2,0);\nemit __CoveragePrivateExchangeLogic('/home/shuloh/Code/entangle-exchange/contracts/PrivateExchangeLogic.sol',81);\n            emit __StatementCoveragePrivateExchangeLogic('/home/shuloh/Code/entangle-exchange/contracts/PrivateExchangeLogic.sol',12);\nemit ExchangeOpened();\n        }\n        else {emit __BranchCoveragePrivateExchangeLogic('/home/shuloh/Code/entangle-exchange/contracts/PrivateExchangeLogic.sol',2,1);\nemit __CoveragePrivateExchangeLogic('/home/shuloh/Code/entangle-exchange/contracts/PrivateExchangeLogic.sol',84);\n            emit __StatementCoveragePrivateExchangeLogic('/home/shuloh/Code/entangle-exchange/contracts/PrivateExchangeLogic.sol',13);\nemit ExchangeClosed();\n        }\n    }\n\n    function exchangeTokenStaked() public      returns(uint256) {emit __FunctionCoveragePrivateExchangeLogic('/home/shuloh/Code/entangle-exchange/contracts/PrivateExchangeLogic.sol',8);\n\nemit __CoveragePrivateExchangeLogic('/home/shuloh/Code/entangle-exchange/contracts/PrivateExchangeLogic.sol',89);\n        emit __StatementCoveragePrivateExchangeLogic('/home/shuloh/Code/entangle-exchange/contracts/PrivateExchangeLogic.sol',14);\nreturn exchangeToken.allowance(msg.sender, address(this));\n    }\n\n    function exchangeTokenBalance() public      returns(uint256) {emit __FunctionCoveragePrivateExchangeLogic('/home/shuloh/Code/entangle-exchange/contracts/PrivateExchangeLogic.sol',9);\n\nemit __CoveragePrivateExchangeLogic('/home/shuloh/Code/entangle-exchange/contracts/PrivateExchangeLogic.sol',93);\n        emit __StatementCoveragePrivateExchangeLogic('/home/shuloh/Code/entangle-exchange/contracts/PrivateExchangeLogic.sol',15);\nreturn exchangeToken.balanceOf(msg.sender);\n    }\n    \n    /**\n    * @dev buys the exchange token using ether carried in msg.value\n    *  \n    */\n    function buyExchangeToken() public payable onlyOpen {emit __FunctionCoveragePrivateExchangeLogic('/home/shuloh/Code/entangle-exchange/contracts/PrivateExchangeLogic.sol',10);\n\nemit __CoveragePrivateExchangeLogic('/home/shuloh/Code/entangle-exchange/contracts/PrivateExchangeLogic.sol',101);\n        emit __AssertPreCoveragePrivateExchangeLogic('/home/shuloh/Code/entangle-exchange/contracts/PrivateExchangeLogic.sol',3);\nemit __StatementCoveragePrivateExchangeLogic('/home/shuloh/Code/entangle-exchange/contracts/PrivateExchangeLogic.sol',16);\nrequire(msg.value>0, \"value needs to be non-zero\");emit __AssertPostCoveragePrivateExchangeLogic('/home/shuloh/Code/entangle-exchange/contracts/PrivateExchangeLogic.sol',3);\n\nemit __CoveragePrivateExchangeLogic('/home/shuloh/Code/entangle-exchange/contracts/PrivateExchangeLogic.sol',102);\n        emit __StatementCoveragePrivateExchangeLogic('/home/shuloh/Code/entangle-exchange/contracts/PrivateExchangeLogic.sol',17);\nexchangeToken.mint(msg.value);\nemit __CoveragePrivateExchangeLogic('/home/shuloh/Code/entangle-exchange/contracts/PrivateExchangeLogic.sol',103);\n        emit __StatementCoveragePrivateExchangeLogic('/home/shuloh/Code/entangle-exchange/contracts/PrivateExchangeLogic.sol',18);\nexchangeToken.transfer(msg.sender, msg.value);\n    }\n\n    /**\n    * @dev issue a buy transaction on the exchange. Note amount param!\n    * because we defined price as per ether unit of shares, \n    * we must divide the price by 1 ether unit \n    * when we calculate the cost to the buyer as amount is given in wei\n    * @param company address of company that MUST be listed in listedCompanies \n    * @param amount amount of shares to buy in wei units\n    */\n    function buyCompanyShares(address company, uint256 amount) public onlyOpen {emit __FunctionCoveragePrivateExchangeLogic('/home/shuloh/Code/entangle-exchange/contracts/PrivateExchangeLogic.sol',11);\n\nemit __CoveragePrivateExchangeLogic('/home/shuloh/Code/entangle-exchange/contracts/PrivateExchangeLogic.sol',115);\n        emit __AssertPreCoveragePrivateExchangeLogic('/home/shuloh/Code/entangle-exchange/contracts/PrivateExchangeLogic.sol',4);\nemit __StatementCoveragePrivateExchangeLogic('/home/shuloh/Code/entangle-exchange/contracts/PrivateExchangeLogic.sol',19);\nrequire(_isListedCompany(company), \"not a listed company\");emit __AssertPostCoveragePrivateExchangeLogic('/home/shuloh/Code/entangle-exchange/contracts/PrivateExchangeLogic.sol',4);\n\nemit __CoveragePrivateExchangeLogic('/home/shuloh/Code/entangle-exchange/contracts/PrivateExchangeLogic.sol',116);\n        emit __StatementCoveragePrivateExchangeLogic('/home/shuloh/Code/entangle-exchange/contracts/PrivateExchangeLogic.sol',20);\nuint256 price = listedCompanyPrices[company];\nemit __CoveragePrivateExchangeLogic('/home/shuloh/Code/entangle-exchange/contracts/PrivateExchangeLogic.sol',117);\n        emit __StatementCoveragePrivateExchangeLogic('/home/shuloh/Code/entangle-exchange/contracts/PrivateExchangeLogic.sol',21);\naddress buyer = msg.sender;\nemit __CoveragePrivateExchangeLogic('/home/shuloh/Code/entangle-exchange/contracts/PrivateExchangeLogic.sol',118);\n        emit __StatementCoveragePrivateExchangeLogic('/home/shuloh/Code/entangle-exchange/contracts/PrivateExchangeLogic.sol',22);\nIPrivateCompany pc = IPrivateCompany(company);\nemit __CoveragePrivateExchangeLogic('/home/shuloh/Code/entangle-exchange/contracts/PrivateExchangeLogic.sol',119);\n        emit __StatementCoveragePrivateExchangeLogic('/home/shuloh/Code/entangle-exchange/contracts/PrivateExchangeLogic.sol',23);\naddress seller = pc.owner();\nemit __CoveragePrivateExchangeLogic('/home/shuloh/Code/entangle-exchange/contracts/PrivateExchangeLogic.sol',120);\n        emit __StatementCoveragePrivateExchangeLogic('/home/shuloh/Code/entangle-exchange/contracts/PrivateExchangeLogic.sol',24);\nuint256 cost = amount.mul(price).div(1 ether);\nemit __CoveragePrivateExchangeLogic('/home/shuloh/Code/entangle-exchange/contracts/PrivateExchangeLogic.sol',121);\n        emit __StatementCoveragePrivateExchangeLogic('/home/shuloh/Code/entangle-exchange/contracts/PrivateExchangeLogic.sol',25);\nuint256 sharesAvailable = pc.allowance(seller, address(this));\nemit __CoveragePrivateExchangeLogic('/home/shuloh/Code/entangle-exchange/contracts/PrivateExchangeLogic.sol',122);\n        emit __AssertPreCoveragePrivateExchangeLogic('/home/shuloh/Code/entangle-exchange/contracts/PrivateExchangeLogic.sol',5);\nemit __StatementCoveragePrivateExchangeLogic('/home/shuloh/Code/entangle-exchange/contracts/PrivateExchangeLogic.sol',26);\nrequire(sharesAvailable >= amount, \n            \"seller does not have enough shares to fill transaction\"\n        );emit __AssertPostCoveragePrivateExchangeLogic('/home/shuloh/Code/entangle-exchange/contracts/PrivateExchangeLogic.sol',5);\n\nemit __CoveragePrivateExchangeLogic('/home/shuloh/Code/entangle-exchange/contracts/PrivateExchangeLogic.sol',125);\n        emit __AssertPreCoveragePrivateExchangeLogic('/home/shuloh/Code/entangle-exchange/contracts/PrivateExchangeLogic.sol',6);\nemit __StatementCoveragePrivateExchangeLogic('/home/shuloh/Code/entangle-exchange/contracts/PrivateExchangeLogic.sol',27);\nrequire(exchangeToken.allowance(buyer, address(this)) >= cost, \n            \"buyer does not have enough exchange tokens to fill transaction\"\n        );emit __AssertPostCoveragePrivateExchangeLogic('/home/shuloh/Code/entangle-exchange/contracts/PrivateExchangeLogic.sol',6);\n\nemit __CoveragePrivateExchangeLogic('/home/shuloh/Code/entangle-exchange/contracts/PrivateExchangeLogic.sol',128);\n        emit __StatementCoveragePrivateExchangeLogic('/home/shuloh/Code/entangle-exchange/contracts/PrivateExchangeLogic.sol',28);\npc.transferFrom(seller, buyer, amount);\nemit __CoveragePrivateExchangeLogic('/home/shuloh/Code/entangle-exchange/contracts/PrivateExchangeLogic.sol',129);\n        emit __StatementCoveragePrivateExchangeLogic('/home/shuloh/Code/entangle-exchange/contracts/PrivateExchangeLogic.sol',29);\nexchangeToken.transferFrom(buyer, seller, cost);\nemit __CoveragePrivateExchangeLogic('/home/shuloh/Code/entangle-exchange/contracts/PrivateExchangeLogic.sol',130);\n        emit __StatementCoveragePrivateExchangeLogic('/home/shuloh/Code/entangle-exchange/contracts/PrivateExchangeLogic.sol',30);\nemit ShareTransaction(company, buyer, seller, amount, price);\n    }\n\n    /**\n    * @dev updates the price of a listed company.\n    * @param company address of company that MUST be listed in listedCompanies \n    * @param price per ONE ETH unit of shares. min = uint256 1. \n    * OR 0.000000000000000001 EE$ per ONE ETH unit of shares\n    */\n    function updateCompanyPrice(address company, uint256 price) public onlyOpen {emit __FunctionCoveragePrivateExchangeLogic('/home/shuloh/Code/entangle-exchange/contracts/PrivateExchangeLogic.sol',12);\n\nemit __CoveragePrivateExchangeLogic('/home/shuloh/Code/entangle-exchange/contracts/PrivateExchangeLogic.sol',140);\n        emit __StatementCoveragePrivateExchangeLogic('/home/shuloh/Code/entangle-exchange/contracts/PrivateExchangeLogic.sol',31);\nuint256 _price = listedCompanyPrices[company];\nemit __CoveragePrivateExchangeLogic('/home/shuloh/Code/entangle-exchange/contracts/PrivateExchangeLogic.sol',141);\n        emit __AssertPreCoveragePrivateExchangeLogic('/home/shuloh/Code/entangle-exchange/contracts/PrivateExchangeLogic.sol',7);\nemit __StatementCoveragePrivateExchangeLogic('/home/shuloh/Code/entangle-exchange/contracts/PrivateExchangeLogic.sol',32);\nrequire(_price > 0, \"company is not listed\");emit __AssertPostCoveragePrivateExchangeLogic('/home/shuloh/Code/entangle-exchange/contracts/PrivateExchangeLogic.sol',7);\n\nemit __CoveragePrivateExchangeLogic('/home/shuloh/Code/entangle-exchange/contracts/PrivateExchangeLogic.sol',142);\n        emit __StatementCoveragePrivateExchangeLogic('/home/shuloh/Code/entangle-exchange/contracts/PrivateExchangeLogic.sol',33);\nIPrivateCompany pc = IPrivateCompany(company);\nemit __CoveragePrivateExchangeLogic('/home/shuloh/Code/entangle-exchange/contracts/PrivateExchangeLogic.sol',143);\n        emit __AssertPreCoveragePrivateExchangeLogic('/home/shuloh/Code/entangle-exchange/contracts/PrivateExchangeLogic.sol',8);\nemit __StatementCoveragePrivateExchangeLogic('/home/shuloh/Code/entangle-exchange/contracts/PrivateExchangeLogic.sol',34);\nrequire(pc.owner() == msg.sender, \"price-setter is not the company owner\");emit __AssertPostCoveragePrivateExchangeLogic('/home/shuloh/Code/entangle-exchange/contracts/PrivateExchangeLogic.sol',8);\n\nemit __CoveragePrivateExchangeLogic('/home/shuloh/Code/entangle-exchange/contracts/PrivateExchangeLogic.sol',144);\n        emit __AssertPreCoveragePrivateExchangeLogic('/home/shuloh/Code/entangle-exchange/contracts/PrivateExchangeLogic.sol',9);\nemit __StatementCoveragePrivateExchangeLogic('/home/shuloh/Code/entangle-exchange/contracts/PrivateExchangeLogic.sol',35);\nrequire(price > 0 , \"price is not set as a positive integer\");emit __AssertPostCoveragePrivateExchangeLogic('/home/shuloh/Code/entangle-exchange/contracts/PrivateExchangeLogic.sol',9);\n\nemit __CoveragePrivateExchangeLogic('/home/shuloh/Code/entangle-exchange/contracts/PrivateExchangeLogic.sol',145);\n        emit __StatementCoveragePrivateExchangeLogic('/home/shuloh/Code/entangle-exchange/contracts/PrivateExchangeLogic.sol',36);\n_updateCompanyPrice(company, price);\n    }\n\n    function _updateCompanyPrice(address company, uint256 price) internal {emit __FunctionCoveragePrivateExchangeLogic('/home/shuloh/Code/entangle-exchange/contracts/PrivateExchangeLogic.sol',13);\n\nemit __CoveragePrivateExchangeLogic('/home/shuloh/Code/entangle-exchange/contracts/PrivateExchangeLogic.sol',149);\n        emit __StatementCoveragePrivateExchangeLogic('/home/shuloh/Code/entangle-exchange/contracts/PrivateExchangeLogic.sol',37);\nlistedCompanyPrices[company] = price;\nemit __CoveragePrivateExchangeLogic('/home/shuloh/Code/entangle-exchange/contracts/PrivateExchangeLogic.sol',150);\n        emit __StatementCoveragePrivateExchangeLogic('/home/shuloh/Code/entangle-exchange/contracts/PrivateExchangeLogic.sol',38);\nemit CompanyPriceUpdated(company, price);\n    }\n\n    function createCompanyAndList(\n        string memory name,\n        string memory symbol,\n        uint256 price\n    ) public onlyOpen {emit __FunctionCoveragePrivateExchangeLogic('/home/shuloh/Code/entangle-exchange/contracts/PrivateExchangeLogic.sol',14);\n\nemit __CoveragePrivateExchangeLogic('/home/shuloh/Code/entangle-exchange/contracts/PrivateExchangeLogic.sol',158);\n        emit __StatementCoveragePrivateExchangeLogic('/home/shuloh/Code/entangle-exchange/contracts/PrivateExchangeLogic.sol',39);\nbytes32 emptyString = keccak256(abi.encodePacked(\"\"));\nemit __CoveragePrivateExchangeLogic('/home/shuloh/Code/entangle-exchange/contracts/PrivateExchangeLogic.sol',159);\n        emit __AssertPreCoveragePrivateExchangeLogic('/home/shuloh/Code/entangle-exchange/contracts/PrivateExchangeLogic.sol',10);\nemit __StatementCoveragePrivateExchangeLogic('/home/shuloh/Code/entangle-exchange/contracts/PrivateExchangeLogic.sol',40);\nrequire(keccak256(abi.encodePacked(name)) != emptyString, \"empty name given\");emit __AssertPostCoveragePrivateExchangeLogic('/home/shuloh/Code/entangle-exchange/contracts/PrivateExchangeLogic.sol',10);\n\nemit __CoveragePrivateExchangeLogic('/home/shuloh/Code/entangle-exchange/contracts/PrivateExchangeLogic.sol',160);\n        emit __AssertPreCoveragePrivateExchangeLogic('/home/shuloh/Code/entangle-exchange/contracts/PrivateExchangeLogic.sol',11);\nemit __StatementCoveragePrivateExchangeLogic('/home/shuloh/Code/entangle-exchange/contracts/PrivateExchangeLogic.sol',41);\nrequire(keccak256(abi.encodePacked(symbol)) != emptyString, \"empty symbol given\");emit __AssertPostCoveragePrivateExchangeLogic('/home/shuloh/Code/entangle-exchange/contracts/PrivateExchangeLogic.sol',11);\n\nemit __CoveragePrivateExchangeLogic('/home/shuloh/Code/entangle-exchange/contracts/PrivateExchangeLogic.sol',161);\n        emit __StatementCoveragePrivateExchangeLogic('/home/shuloh/Code/entangle-exchange/contracts/PrivateExchangeLogic.sol',42);\naddress companyOwner = msg.sender;\nemit __CoveragePrivateExchangeLogic('/home/shuloh/Code/entangle-exchange/contracts/PrivateExchangeLogic.sol',162);\n        emit __StatementCoveragePrivateExchangeLogic('/home/shuloh/Code/entangle-exchange/contracts/PrivateExchangeLogic.sol',43);\nIPrivateCompany c = _createCompany(companyOwner, name, symbol);\nemit __CoveragePrivateExchangeLogic('/home/shuloh/Code/entangle-exchange/contracts/PrivateExchangeLogic.sol',163);\n        emit __StatementCoveragePrivateExchangeLogic('/home/shuloh/Code/entangle-exchange/contracts/PrivateExchangeLogic.sol',44);\n_listCompany(c);\nemit __CoveragePrivateExchangeLogic('/home/shuloh/Code/entangle-exchange/contracts/PrivateExchangeLogic.sol',164);\n        emit __StatementCoveragePrivateExchangeLogic('/home/shuloh/Code/entangle-exchange/contracts/PrivateExchangeLogic.sol',45);\n_updateCompanyPrice(address(c), price);\n    }\n\n    function listCompany(address company, uint256 price) public onlyOwner {emit __FunctionCoveragePrivateExchangeLogic('/home/shuloh/Code/entangle-exchange/contracts/PrivateExchangeLogic.sol',15);\n\nemit __CoveragePrivateExchangeLogic('/home/shuloh/Code/entangle-exchange/contracts/PrivateExchangeLogic.sol',168);\n        emit __StatementCoveragePrivateExchangeLogic('/home/shuloh/Code/entangle-exchange/contracts/PrivateExchangeLogic.sol',46);\nIPrivateCompany pc = IPrivateCompany(company);\nemit __CoveragePrivateExchangeLogic('/home/shuloh/Code/entangle-exchange/contracts/PrivateExchangeLogic.sol',169);\n        emit __StatementCoveragePrivateExchangeLogic('/home/shuloh/Code/entangle-exchange/contracts/PrivateExchangeLogic.sol',47);\n_updateCompanyPrice(company, price);\nemit __CoveragePrivateExchangeLogic('/home/shuloh/Code/entangle-exchange/contracts/PrivateExchangeLogic.sol',170);\n        emit __StatementCoveragePrivateExchangeLogic('/home/shuloh/Code/entangle-exchange/contracts/PrivateExchangeLogic.sol',48);\n_listCompany(pc);\n    }\n\n    function delistCompany(address company) public onlyOwner {emit __FunctionCoveragePrivateExchangeLogic('/home/shuloh/Code/entangle-exchange/contracts/PrivateExchangeLogic.sol',16);\n\nemit __CoveragePrivateExchangeLogic('/home/shuloh/Code/entangle-exchange/contracts/PrivateExchangeLogic.sol',174);\n        emit __StatementCoveragePrivateExchangeLogic('/home/shuloh/Code/entangle-exchange/contracts/PrivateExchangeLogic.sol',49);\n_delistCompany(IPrivateCompany(company));\n    }\n\n    function _makeExchangeToken(\n        string memory name,\n        string memory symbol\n    ) internal returns (IPrivateCompany) {emit __FunctionCoveragePrivateExchangeLogic('/home/shuloh/Code/entangle-exchange/contracts/PrivateExchangeLogic.sol',17);\n\nemit __CoveragePrivateExchangeLogic('/home/shuloh/Code/entangle-exchange/contracts/PrivateExchangeLogic.sol',181);\n        emit __StatementCoveragePrivateExchangeLogic('/home/shuloh/Code/entangle-exchange/contracts/PrivateExchangeLogic.sol',50);\nreturn _createCompany(address(this), name, symbol);\n    }\n\n    function _createCompany(\n        address companyOwner,\n        string memory name,\n        string memory symbol\n    ) \n    internal returns(IPrivateCompany) {emit __FunctionCoveragePrivateExchangeLogic('/home/shuloh/Code/entangle-exchange/contracts/PrivateExchangeLogic.sol',18);\n\n        //EXTERNAL CONTRACT CALL\nemit __CoveragePrivateExchangeLogic('/home/shuloh/Code/entangle-exchange/contracts/PrivateExchangeLogic.sol',191);\n        emit __StatementCoveragePrivateExchangeLogic('/home/shuloh/Code/entangle-exchange/contracts/PrivateExchangeLogic.sol',51);\naddress c = _companyFactory.newCompany(companyOwner, name, symbol);\nemit __CoveragePrivateExchangeLogic('/home/shuloh/Code/entangle-exchange/contracts/PrivateExchangeLogic.sol',192);\n        emit __StatementCoveragePrivateExchangeLogic('/home/shuloh/Code/entangle-exchange/contracts/PrivateExchangeLogic.sol',52);\nreturn IPrivateCompany(c); \n    }\n\n    function _isListedCompany(address company) internal      returns(bool) {emit __FunctionCoveragePrivateExchangeLogic('/home/shuloh/Code/entangle-exchange/contracts/PrivateExchangeLogic.sol',19);\n\nemit __CoveragePrivateExchangeLogic('/home/shuloh/Code/entangle-exchange/contracts/PrivateExchangeLogic.sol',196);\n        emit __StatementCoveragePrivateExchangeLogic('/home/shuloh/Code/entangle-exchange/contracts/PrivateExchangeLogic.sol',53);\nreturn listedCompanyPrices[company] > 0;\n    }\n    function _listCompany(IPrivateCompany company) internal {emit __FunctionCoveragePrivateExchangeLogic('/home/shuloh/Code/entangle-exchange/contracts/PrivateExchangeLogic.sol',20);\n\nemit __CoveragePrivateExchangeLogic('/home/shuloh/Code/entangle-exchange/contracts/PrivateExchangeLogic.sol',199);\n        emit __StatementCoveragePrivateExchangeLogic('/home/shuloh/Code/entangle-exchange/contracts/PrivateExchangeLogic.sol',54);\nlistedCompanies.push(company);\nemit __CoveragePrivateExchangeLogic('/home/shuloh/Code/entangle-exchange/contracts/PrivateExchangeLogic.sol',200);\n        emit __StatementCoveragePrivateExchangeLogic('/home/shuloh/Code/entangle-exchange/contracts/PrivateExchangeLogic.sol',55);\nownerCompanies[company.owner()].push(company);\nemit __CoveragePrivateExchangeLogic('/home/shuloh/Code/entangle-exchange/contracts/PrivateExchangeLogic.sol',201);\n        emit __StatementCoveragePrivateExchangeLogic('/home/shuloh/Code/entangle-exchange/contracts/PrivateExchangeLogic.sol',56);\nemit CompanyListed(company.owner(), address(company));\n    }\n\n    function _delistCompany(IPrivateCompany company) internal {emit __FunctionCoveragePrivateExchangeLogic('/home/shuloh/Code/entangle-exchange/contracts/PrivateExchangeLogic.sol',21);\n\nemit __CoveragePrivateExchangeLogic('/home/shuloh/Code/entangle-exchange/contracts/PrivateExchangeLogic.sol',205);\n        emit __StatementCoveragePrivateExchangeLogic('/home/shuloh/Code/entangle-exchange/contracts/PrivateExchangeLogic.sol',57);\nlistedCompanyPrices[address(company)] = 0;\nemit __CoveragePrivateExchangeLogic('/home/shuloh/Code/entangle-exchange/contracts/PrivateExchangeLogic.sol',206);\n        emit __StatementCoveragePrivateExchangeLogic('/home/shuloh/Code/entangle-exchange/contracts/PrivateExchangeLogic.sol',58);\nfor (uint i = 0; i < listedCompanies.length; i++ )\n        {\nemit __CoveragePrivateExchangeLogic('/home/shuloh/Code/entangle-exchange/contracts/PrivateExchangeLogic.sol',208);\n            emit __StatementCoveragePrivateExchangeLogic('/home/shuloh/Code/entangle-exchange/contracts/PrivateExchangeLogic.sol',59);\nif (listedCompanies[i] == company)\n            {emit __BranchCoveragePrivateExchangeLogic('/home/shuloh/Code/entangle-exchange/contracts/PrivateExchangeLogic.sol',12,0);\nemit __CoveragePrivateExchangeLogic('/home/shuloh/Code/entangle-exchange/contracts/PrivateExchangeLogic.sol',210);\n                emit __StatementCoveragePrivateExchangeLogic('/home/shuloh/Code/entangle-exchange/contracts/PrivateExchangeLogic.sol',60);\nlistedCompanies[i] = listedCompanies[listedCompanies.length - 1];\nemit __CoveragePrivateExchangeLogic('/home/shuloh/Code/entangle-exchange/contracts/PrivateExchangeLogic.sol',211);\n                emit __StatementCoveragePrivateExchangeLogic('/home/shuloh/Code/entangle-exchange/contracts/PrivateExchangeLogic.sol',61);\nlistedCompanies.pop();\nemit __CoveragePrivateExchangeLogic('/home/shuloh/Code/entangle-exchange/contracts/PrivateExchangeLogic.sol',212);\n                break;\n            }else { emit __BranchCoveragePrivateExchangeLogic('/home/shuloh/Code/entangle-exchange/contracts/PrivateExchangeLogic.sol',12,1);}\n\n        }\nemit __CoveragePrivateExchangeLogic('/home/shuloh/Code/entangle-exchange/contracts/PrivateExchangeLogic.sol',215);\n        emit __StatementCoveragePrivateExchangeLogic('/home/shuloh/Code/entangle-exchange/contracts/PrivateExchangeLogic.sol',62);\nIPrivateCompany[] storage ownedCompanies = ownerCompanies[company.owner()];\nemit __CoveragePrivateExchangeLogic('/home/shuloh/Code/entangle-exchange/contracts/PrivateExchangeLogic.sol',216);\n        emit __StatementCoveragePrivateExchangeLogic('/home/shuloh/Code/entangle-exchange/contracts/PrivateExchangeLogic.sol',63);\nfor (uint i = 0; i < ownedCompanies.length; i++ )\n        {\nemit __CoveragePrivateExchangeLogic('/home/shuloh/Code/entangle-exchange/contracts/PrivateExchangeLogic.sol',218);\n            emit __StatementCoveragePrivateExchangeLogic('/home/shuloh/Code/entangle-exchange/contracts/PrivateExchangeLogic.sol',64);\nif (ownedCompanies[i] == company)\n            {emit __BranchCoveragePrivateExchangeLogic('/home/shuloh/Code/entangle-exchange/contracts/PrivateExchangeLogic.sol',13,0);\nemit __CoveragePrivateExchangeLogic('/home/shuloh/Code/entangle-exchange/contracts/PrivateExchangeLogic.sol',220);\n                emit __StatementCoveragePrivateExchangeLogic('/home/shuloh/Code/entangle-exchange/contracts/PrivateExchangeLogic.sol',65);\nownedCompanies[i] = ownedCompanies[ownedCompanies.length - 1];\nemit __CoveragePrivateExchangeLogic('/home/shuloh/Code/entangle-exchange/contracts/PrivateExchangeLogic.sol',221);\n                emit __StatementCoveragePrivateExchangeLogic('/home/shuloh/Code/entangle-exchange/contracts/PrivateExchangeLogic.sol',66);\nownedCompanies.pop();\nemit __CoveragePrivateExchangeLogic('/home/shuloh/Code/entangle-exchange/contracts/PrivateExchangeLogic.sol',222);\n                break;\n            }else { emit __BranchCoveragePrivateExchangeLogic('/home/shuloh/Code/entangle-exchange/contracts/PrivateExchangeLogic.sol',13,1);}\n\n        }\n    }\n}",
  "sourcePath": "/home/shuloh/Code/entangle-exchange/coverageEnv/contracts/PrivateExchangeLogic.sol",
  "compiler": {
    "name": "solc",
    "version": "0.5.12+commit.7709ece9.Emscripten.clang"
  },
  "schemaVersion": "3.0.16",
  "updatedAt": "2019-10-27T06:16:24.832Z",
  "devdoc": {
    "methods": {
      "buyCompanyShares(address,uint256)": {
        "details": "issue a buy transaction on the exchange. Note amount param! because we defined price as per ether unit of shares,  we must divide the price by 1 ether unit  when we calculate the cost to the buyer as amount is given in wei",
        "params": {
          "amount": "amount of shares to buy in wei units",
          "company": "address of company that MUST be listed in listedCompanies "
        }
      },
      "buyExchangeToken()": {
        "details": "buys the exchange token using ether carried in msg.value "
      },
      "isOwner()": {
        "details": "Returns true if the caller is the current owner."
      },
      "owner()": {
        "details": "Returns the address of the current owner."
      },
      "renounceOwnership()": {
        "details": "Leaves the contract without owner. It will not be possible to call `onlyOwner` functions anymore. Can only be called by the current owner.     * > Note: Renouncing ownership will leave the contract without an owner, thereby removing any functionality that is only available to the owner."
      },
      "transferOwnership(address)": {
        "details": "Transfers ownership of the contract to a new account (`newOwner`). Can only be called by the current owner."
      },
      "updateCompanyPrice(address,uint256)": {
        "details": "updates the price of a listed company.",
        "params": {
          "company": "address of company that MUST be listed in listedCompanies ",
          "price": "per ONE ETH unit of shares. min = uint256 1.  OR 0.000000000000000001 EE$ per ONE ETH unit of shares"
        }
      }
    }
  },
  "userdoc": {
    "methods": {}
  }
}