{
  "contractName": "PrivateExchangeLogic",
  "abi": [
    {
      "anonymous": false,
      "inputs": [
        {
          "indexed": true,
          "internalType": "address",
          "name": "owner",
          "type": "address"
        },
        {
          "indexed": true,
          "internalType": "address",
          "name": "company",
          "type": "address"
        }
      ],
      "name": "CompanyListed",
      "type": "event"
    },
    {
      "anonymous": false,
      "inputs": [
        {
          "indexed": true,
          "internalType": "address",
          "name": "company",
          "type": "address"
        },
        {
          "indexed": false,
          "internalType": "uint256",
          "name": "price",
          "type": "uint256"
        }
      ],
      "name": "CompanyPriceUpdated",
      "type": "event"
    },
    {
      "anonymous": false,
      "inputs": [],
      "name": "ExchangeClosed",
      "type": "event"
    },
    {
      "anonymous": false,
      "inputs": [],
      "name": "ExchangeOpened",
      "type": "event"
    },
    {
      "anonymous": false,
      "inputs": [
        {
          "indexed": true,
          "internalType": "address",
          "name": "account",
          "type": "address"
        },
        {
          "indexed": false,
          "internalType": "address",
          "name": "amount",
          "type": "address"
        }
      ],
      "name": "ExchangeTokenPurchased",
      "type": "event"
    },
    {
      "anonymous": false,
      "inputs": [
        {
          "indexed": true,
          "internalType": "address",
          "name": "previousOwner",
          "type": "address"
        },
        {
          "indexed": true,
          "internalType": "address",
          "name": "newOwner",
          "type": "address"
        }
      ],
      "name": "OwnershipTransferred",
      "type": "event"
    },
    {
      "anonymous": false,
      "inputs": [
        {
          "indexed": true,
          "internalType": "address",
          "name": "company",
          "type": "address"
        },
        {
          "indexed": true,
          "internalType": "address",
          "name": "buyer",
          "type": "address"
        },
        {
          "indexed": true,
          "internalType": "address",
          "name": "seller",
          "type": "address"
        },
        {
          "indexed": false,
          "internalType": "uint256",
          "name": "amount",
          "type": "uint256"
        },
        {
          "indexed": false,
          "internalType": "uint256",
          "name": "price",
          "type": "uint256"
        }
      ],
      "name": "ShareTransaction",
      "type": "event"
    },
    {
      "constant": true,
      "inputs": [],
      "name": "exchangeToken",
      "outputs": [
        {
          "internalType": "contract IPrivateCompany",
          "name": "",
          "type": "address"
        }
      ],
      "payable": false,
      "stateMutability": "view",
      "type": "function"
    },
    {
      "constant": true,
      "inputs": [],
      "name": "isOwner",
      "outputs": [
        {
          "internalType": "bool",
          "name": "",
          "type": "bool"
        }
      ],
      "payable": false,
      "stateMutability": "view",
      "type": "function"
    },
    {
      "constant": true,
      "inputs": [
        {
          "internalType": "uint256",
          "name": "",
          "type": "uint256"
        }
      ],
      "name": "listedCompanies",
      "outputs": [
        {
          "internalType": "contract IPrivateCompany",
          "name": "",
          "type": "address"
        }
      ],
      "payable": false,
      "stateMutability": "view",
      "type": "function"
    },
    {
      "constant": true,
      "inputs": [
        {
          "internalType": "address",
          "name": "",
          "type": "address"
        }
      ],
      "name": "listedCompanyPrices",
      "outputs": [
        {
          "internalType": "uint256",
          "name": "",
          "type": "uint256"
        }
      ],
      "payable": false,
      "stateMutability": "view",
      "type": "function"
    },
    {
      "constant": true,
      "inputs": [],
      "name": "owner",
      "outputs": [
        {
          "internalType": "address",
          "name": "",
          "type": "address"
        }
      ],
      "payable": false,
      "stateMutability": "view",
      "type": "function"
    },
    {
      "constant": true,
      "inputs": [
        {
          "internalType": "address",
          "name": "",
          "type": "address"
        },
        {
          "internalType": "uint256",
          "name": "",
          "type": "uint256"
        }
      ],
      "name": "ownerCompanies",
      "outputs": [
        {
          "internalType": "contract IPrivateCompany",
          "name": "",
          "type": "address"
        }
      ],
      "payable": false,
      "stateMutability": "view",
      "type": "function"
    },
    {
      "constant": false,
      "inputs": [],
      "name": "renounceOwnership",
      "outputs": [],
      "payable": false,
      "stateMutability": "nonpayable",
      "type": "function"
    },
    {
      "constant": false,
      "inputs": [
        {
          "internalType": "address",
          "name": "newOwner",
          "type": "address"
        }
      ],
      "name": "transferOwnership",
      "outputs": [],
      "payable": false,
      "stateMutability": "nonpayable",
      "type": "function"
    },
    {
      "constant": false,
      "inputs": [
        {
          "internalType": "address",
          "name": "owner",
          "type": "address"
        },
        {
          "internalType": "address",
          "name": "companyFactory",
          "type": "address"
        },
        {
          "internalType": "string",
          "name": "name",
          "type": "string"
        },
        {
          "internalType": "string",
          "name": "symbol",
          "type": "string"
        }
      ],
      "name": "initialize",
      "outputs": [],
      "payable": false,
      "stateMutability": "nonpayable",
      "type": "function"
    },
    {
      "constant": false,
      "inputs": [
        {
          "internalType": "address",
          "name": "companyFactory",
          "type": "address"
        }
      ],
      "name": "upgradeCompanyFactory",
      "outputs": [],
      "payable": false,
      "stateMutability": "nonpayable",
      "type": "function"
    },
    {
      "constant": true,
      "inputs": [],
      "name": "numberOfListedCompanies",
      "outputs": [
        {
          "internalType": "uint256",
          "name": "",
          "type": "uint256"
        }
      ],
      "payable": false,
      "stateMutability": "view",
      "type": "function"
    },
    {
      "constant": true,
      "inputs": [],
      "name": "numberOfOwnedCompanies",
      "outputs": [
        {
          "internalType": "uint256",
          "name": "",
          "type": "uint256"
        }
      ],
      "payable": false,
      "stateMutability": "view",
      "type": "function"
    },
    {
      "constant": true,
      "inputs": [],
      "name": "isOpen",
      "outputs": [
        {
          "internalType": "bool",
          "name": "",
          "type": "bool"
        }
      ],
      "payable": false,
      "stateMutability": "view",
      "type": "function"
    },
    {
      "constant": false,
      "inputs": [
        {
          "internalType": "bool",
          "name": "value",
          "type": "bool"
        }
      ],
      "name": "switchOpenMode",
      "outputs": [],
      "payable": false,
      "stateMutability": "nonpayable",
      "type": "function"
    },
    {
      "constant": true,
      "inputs": [],
      "name": "exchangeTokenBalance",
      "outputs": [
        {
          "internalType": "uint256",
          "name": "",
          "type": "uint256"
        }
      ],
      "payable": false,
      "stateMutability": "view",
      "type": "function"
    },
    {
      "constant": false,
      "inputs": [],
      "name": "buyExchangeToken",
      "outputs": [],
      "payable": true,
      "stateMutability": "payable",
      "type": "function"
    },
    {
      "constant": false,
      "inputs": [
        {
          "internalType": "address",
          "name": "company",
          "type": "address"
        },
        {
          "internalType": "uint256",
          "name": "amount",
          "type": "uint256"
        }
      ],
      "name": "buyCompanyShares",
      "outputs": [],
      "payable": false,
      "stateMutability": "nonpayable",
      "type": "function"
    },
    {
      "constant": false,
      "inputs": [
        {
          "internalType": "address",
          "name": "company",
          "type": "address"
        },
        {
          "internalType": "uint256",
          "name": "price",
          "type": "uint256"
        }
      ],
      "name": "updateCompanyPrice",
      "outputs": [],
      "payable": false,
      "stateMutability": "nonpayable",
      "type": "function"
    },
    {
      "constant": false,
      "inputs": [
        {
          "internalType": "string",
          "name": "name",
          "type": "string"
        },
        {
          "internalType": "string",
          "name": "symbol",
          "type": "string"
        },
        {
          "internalType": "uint256",
          "name": "price",
          "type": "uint256"
        }
      ],
      "name": "createCompanyAndList",
      "outputs": [],
      "payable": false,
      "stateMutability": "nonpayable",
      "type": "function"
    },
    {
      "constant": false,
      "inputs": [
        {
          "internalType": "address",
          "name": "company",
          "type": "address"
        },
        {
          "internalType": "uint256",
          "name": "price",
          "type": "uint256"
        }
      ],
      "name": "listCompany",
      "outputs": [],
      "payable": false,
      "stateMutability": "nonpayable",
      "type": "function"
    },
    {
      "constant": false,
      "inputs": [
        {
          "internalType": "address",
          "name": "company",
          "type": "address"
        }
      ],
      "name": "delistCompany",
      "outputs": [],
      "payable": false,
      "stateMutability": "nonpayable",
      "type": "function"
    }
  ],
  "bytecode": "0x60806040819052603380546001600160a01b0319163317908190556001600160a01b0316906000907f8be0079c531659141344cd1fd0a4f28419497f9722a3daafe3b4186f6b6457e0908290a3611c148061005b6000396000f3fe6080604052600436106101295760003560e01c8063874ff685116100ab578063bbf25bdd1161006f578063bbf25bdd1461059e578063bf65a37e146105b3578063de4b6aa5146105dd578063ea26674f14610610578063ec79966a14610643578063f2fde38b1461067c57610129565b8063874ff6851461051757806389da69271461054a5780638da5cb5b1461055f5780638f32d59b14610574578063a25eb5d91461058957610129565b806347535d7b116100f257806347535d7b1461031357806350e954411461033c5780635c73a9ac1461047457806368b8e6cb146104c9578063715018a61461050257610129565b8062166d081461012e57806315f2e7ec1461015c5780632016a0d214610164578063386f6d6a146102b357806342c31b8e146102ec575b600080fd5b34801561013a57600080fd5b5061015a6004803603602081101561015157600080fd5b503515156106af565b005b61015a610768565b34801561017057600080fd5b5061015a6004803603608081101561018757600080fd5b6001600160a01b038235811692602081013590911691810190606081016040820135600160201b8111156101ba57600080fd5b8201836020820111156101cc57600080fd5b803590602001918460018302840111600160201b831117156101ed57600080fd5b91908080601f0160208091040260200160405190810160405280939291908181526020018383808284376000920191909152509295949360208101935035915050600160201b81111561023f57600080fd5b82018360208201111561025157600080fd5b803590602001918460018302840111600160201b8311171561027257600080fd5b91908080601f0160208091040260200160405190810160405280939291908181526020018383808284376000920191909152509295506108ee945050505050565b3480156102bf57600080fd5b5061015a600480360360408110156102d657600080fd5b506001600160a01b0381351690602001356109e6565b3480156102f857600080fd5b50610301610a46565b60408051918252519081900360200190f35b34801561031f57600080fd5b50610328610a59565b604080519115158252519081900360200190f35b34801561034857600080fd5b5061015a6004803603606081101561035f57600080fd5b810190602081018135600160201b81111561037957600080fd5b82018360208201111561038b57600080fd5b803590602001918460018302840111600160201b831117156103ac57600080fd5b91908080601f0160208091040260200160405190810160405280939291908181526020018383808284376000920191909152509295949360208101935035915050600160201b8111156103fe57600080fd5b82018360208201111561041057600080fd5b803590602001918460018302840111600160201b8311171561043157600080fd5b91908080601f0160208091040260200160405190810160405280939291908181526020018383808284376000920191909152509295505091359250610a62915050565b34801561048057600080fd5b506104ad6004803603604081101561049757600080fd5b506001600160a01b038135169060200135610ad1565b604080516001600160a01b039092168252519081900360200190f35b3480156104d557600080fd5b5061015a600480360360408110156104ec57600080fd5b506001600160a01b038135169060200135610b06565b34801561050e57600080fd5b5061015a610f76565b34801561052357600080fd5b506103016004803603602081101561053a57600080fd5b50356001600160a01b0316611007565b34801561055657600080fd5b50610301611019565b34801561056b57600080fd5b506104ad61101f565b34801561058057600080fd5b5061032861102e565b34801561059557600080fd5b506104ad61103f565b3480156105aa57600080fd5b5061030161104e565b3480156105bf57600080fd5b506104ad600480360360208110156105d657600080fd5b50356110ca565b3480156105e957600080fd5b5061015a6004803603602081101561060057600080fd5b50356001600160a01b03166110f1565b34801561061c57600080fd5b5061015a6004803603602081101561063357600080fd5b50356001600160a01b0316611160565b34801561064f57600080fd5b5061015a6004803603604081101561066657600080fd5b506001600160a01b0381351690602001356111b0565b34801561068857600080fd5b5061015a6004803603602081101561069f57600080fd5b50356001600160a01b0316611367565b6106b761102e565b6106f6576040805162461bcd60e51b81526020600482018190526024820152600080516020611b92833981519152604482015290519081900360640190fd5b6038805460ff1916821580159190911790915561073b576040517fc2320542f27067faab4fb23c212d85b173ce523f95ed8fe6938a321d6855fee990600090a1610765565b6040517fe3e6ecd3c9014a95ac75a3756472b14f530f21ac013840eff43cb402205fdb9c90600090a15b50565b610770610a59565b6107b4576040805162461bcd60e51b815260206004820152601060248201526f6e6f7420696e206f70656e206d6f646560801b604482015290519081900360640190fd5b60003411610809576040805162461bcd60e51b815260206004820152601a60248201527f76616c7565206e6565647320746f206265206e6f6e2d7a65726f000000000000604482015290519081900360640190fd5b6034546040805163140e25ad60e31b815234600482015290516001600160a01b039092169163a0712d689160248082019260009290919082900301818387803b15801561085557600080fd5b505af1158015610869573d6000803e3d6000fd5b50506034546040805163a9059cbb60e01b815233600482015234602482015290516001600160a01b03909216935063a9059cbb92506044808201926020929091908290030181600087803b1580156108c057600080fd5b505af11580156108d4573d6000803e3d6000fd5b505050506040513d60208110156108ea57600080fd5b5050565b600054610100900460ff168061090757506109076113b7565b80610915575060005460ff16155b6109505760405162461bcd60e51b815260040180806020018281038252602e815260200180611bb2602e913960400191505060405180910390fd5b600054610100900460ff1615801561097b576000805460ff1961ff0019909116610100171660011790555b610984856113bd565b603880546001600160a81b0319166101006001600160a01b038716021790556109ad838361145e565b603480546001600160a01b0319166001600160a01b039290921691909117905580156109df576000805461ff00191690555b5050505050565b6109ee61102e565b610a2d576040805162461bcd60e51b81526020600482018190526024820152600080516020611b92833981519152604482015290519081900360640190fd5b81610a388183611474565b610a41816114c8565b505050565b3360009081526037602052604090205490565b60385460ff1690565b610a6a610a59565b610aae576040805162461bcd60e51b815260206004820152601060248201526f6e6f7420696e206f70656e206d6f646560801b604482015290519081900360640190fd5b336000610abc828686611656565b9050610ac7816114c8565b6109df8184611474565b60376020528160005260406000208181548110610aea57fe5b6000918252602090912001546001600160a01b03169150829050565b610b0e610a59565b610b52576040805162461bcd60e51b815260206004820152601060248201526f6e6f7420696e206f70656e206d6f646560801b604482015290519081900360640190fd5b610b5b826117b6565b610ba3576040805162461bcd60e51b81526020600482015260146024820152736e6f742061206c697374656420636f6d70616e7960601b604482015290519081900360640190fd5b6001600160a01b03821660009081526035602052604090205480610c06576040805162461bcd60e51b815260206004820152601560248201527418dbdb5c185b9e481c1c9a58d9481a5b9d985b1a59605a1b604482015290519081900360640190fd5b600033905060008490506000816001600160a01b0316638da5cb5b6040518163ffffffff1660e01b815260040160206040518083038186803b158015610c4b57600080fd5b505afa158015610c5f573d6000803e3d6000fd5b505050506040513d6020811015610c7557600080fd5b505190506000610c8b868663ffffffff6117d316565b60408051636eb1769f60e11b81526001600160a01b03858116600483015230602483015291519293506000929186169163dd62ed3e91604480820192602092909190829003018186803b158015610ce157600080fd5b505afa158015610cf5573d6000803e3d6000fd5b505050506040513d6020811015610d0b57600080fd5b5051905086811015610d4e5760405162461bcd60e51b8152600401808060200182810382526036815260200180611ab26036913960400191505060405180910390fd5b60345460408051636eb1769f60e11b81526001600160a01b03888116600483015230602483015291518593929092169163dd62ed3e91604480820192602092909190829003018186803b158015610da457600080fd5b505afa158015610db8573d6000803e3d6000fd5b505050506040513d6020811015610dce57600080fd5b50511015610e0d5760405162461bcd60e51b815260040180806020018281038252603e815260200180611ae8603e913960400191505060405180910390fd5b604080516323b872dd60e01b81526001600160a01b0385811660048301528781166024830152604482018a90529151918616916323b872dd916064808201926020929091908290030181600087803b158015610e6857600080fd5b505af1158015610e7c573d6000803e3d6000fd5b505050506040513d6020811015610e9257600080fd5b5050603454604080516323b872dd60e01b81526001600160a01b038881166004830152868116602483015260448201869052915191909216916323b872dd9160648083019260209291908290030181600087803b158015610ef257600080fd5b505af1158015610f06573d6000803e3d6000fd5b505050506040513d6020811015610f1c57600080fd5b5050604080518881526020810188905281516001600160a01b038087169389821693918d16927f520d7599dc1568f101febb1a97b5297f877f744199a603449874ae8826f57c9e9281900390910190a45050505050505050565b610f7e61102e565b610fbd576040805162461bcd60e51b81526020600482018190526024820152600080516020611b92833981519152604482015290519081900360640190fd5b6033546040516000916001600160a01b0316907f8be0079c531659141344cd1fd0a4f28419497f9722a3daafe3b4186f6b6457e0908390a3603380546001600160a01b0319169055565b60356020526000908152604090205481565b60365490565b6033546001600160a01b031690565b6033546001600160a01b0316331490565b6034546001600160a01b031681565b603454604080516370a0823160e01b815233600482015290516000926001600160a01b0316916370a08231916024808301926020929190829003018186803b15801561109957600080fd5b505afa1580156110ad573d6000803e3d6000fd5b505050506040513d60208110156110c357600080fd5b5051905090565b603681815481106110d757fe5b6000918252602090912001546001600160a01b0316905081565b6110f961102e565b611138576040805162461bcd60e51b81526020600482018190526024820152600080516020611b92833981519152604482015290519081900360640190fd5b603880546001600160a01b0390921661010002610100600160a81b0319909216919091179055565b61116861102e565b6111a7576040805162461bcd60e51b81526020600482018190526024820152600080516020611b92833981519152604482015290519081900360640190fd5b6107658161182c565b6111b8610a59565b6111fc576040805162461bcd60e51b815260206004820152601060248201526f6e6f7420696e206f70656e206d6f646560801b604482015290519081900360640190fd5b6001600160a01b0382166000908152603560205260409020548061125f576040805162461bcd60e51b815260206004820152601560248201527418dbdb5c185b9e481a5cc81b9bdd081b1a5cdd1959605a1b604482015290519081900360640190fd5b6000839050336001600160a01b0316816001600160a01b0316638da5cb5b6040518163ffffffff1660e01b815260040160206040518083038186803b1580156112a757600080fd5b505afa1580156112bb573d6000803e3d6000fd5b505050506040513d60208110156112d157600080fd5b50516001600160a01b0316146113185760405162461bcd60e51b8152600401808060200182810382526025815260200180611b266025913960400191505060405180910390fd5b600083116113575760405162461bcd60e51b8152600401808060200182810382526026815260200180611b6c6026913960400191505060405180910390fd5b6113618484611474565b50505050565b61136f61102e565b6113ae576040805162461bcd60e51b81526020600482018190526024820152600080516020611b92833981519152604482015290519081900360640190fd5b610765816113bd565b303b1590565b6001600160a01b0381166114025760405162461bcd60e51b8152600401808060200182810382526026815260200180611a8c6026913960400191505060405180910390fd5b6033546040516001600160a01b038084169216907f8be0079c531659141344cd1fd0a4f28419497f9722a3daafe3b4186f6b6457e090600090a3603380546001600160a01b0319166001600160a01b0392909216919091179055565b600061146b308484611656565b90505b92915050565b6001600160a01b038216600081815260356020908152604091829020849055815184815291517fec8e3a2619b5eaca43073fc46aa092d4c9d58e3332506a2f6967bda9578933a09281900390910190a25050565b6036805460018101825560009182527f4a11f94e20a93c79f6ec743a1954ec4fc2c08429ae2122118bf234b2185c81b80180546001600160a01b0319166001600160a01b03841690811790915560408051638da5cb5b60e01b815290516037939291638da5cb5b916004808301926020929190829003018186803b15801561154f57600080fd5b505afa158015611563573d6000803e3d6000fd5b505050506040513d602081101561157957600080fd5b50516001600160a01b039081168252602080830193909352604091820160009081208054600181018255908252908490200180546001600160a01b03191691851691821790558151638da5cb5b60e01b8152915190928392638da5cb5b9260048083019392829003018186803b1580156115f257600080fd5b505afa158015611606573d6000803e3d6000fd5b505050506040513d602081101561161c57600080fd5b50516040516001600160a01b03909116907ff4ce8b96113eecaf9c3e4e02dc4345eb4fd136a5ba35ab5dba6c7ae82f7d5d7290600090a350565b6038546040516312cf119760e21b81526001600160a01b0385811660048301908152606060248401908152865160648501528651600095869561010090910490941693634b3c465c938a938a938a93604481019160849091019060208701908083838e5b838110156116d25781810151838201526020016116ba565b50505050905090810190601f1680156116ff5780820380516001836020036101000a031916815260200191505b50838103825284518152845160209182019186019080838360005b8381101561173257818101518382015260200161171a565b50505050905090810190601f16801561175f5780820380516001836020036101000a031916815260200191505b5095505050505050602060405180830381600087803b15801561178157600080fd5b505af1158015611795573d6000803e3d6000fd5b505050506040513d60208110156117ab57600080fd5b505195945050505050565b6001600160a01b0316600090815260356020526040902054151590565b6000826117e25750600061146e565b828202828482816117ef57fe5b041461146b5760405162461bcd60e51b8152600401808060200182810382526021815260200180611b4b6021913960400191505060405180910390fd5b6001600160a01b03811660009081526035602052604081208190555b60365481101561192457816001600160a01b03166036828154811061186957fe5b6000918252602090912001546001600160a01b0316141561191c5760368054600019810190811061189657fe5b600091825260209091200154603680546001600160a01b0390921691839081106118bc57fe5b9060005260206000200160006101000a8154816001600160a01b0302191690836001600160a01b0316021790555060368054806118f557fe5b600082815260209020810160001990810180546001600160a01b0319169055019055611924565b600101611848565b50600060376000836001600160a01b0316638da5cb5b6040518163ffffffff1660e01b815260040160206040518083038186803b15801561196457600080fd5b505afa158015611978573d6000803e3d6000fd5b505050506040513d602081101561198e57600080fd5b50516001600160a01b031681526020810191909152604001600090812091505b8154811015610a4157826001600160a01b03168282815481106119cd57fe5b6000918252602090912001546001600160a01b03161415611a83578154829060001981019081106119fa57fe5b9060005260206000200160009054906101000a90046001600160a01b0316828281548110611a2457fe5b9060005260206000200160006101000a8154816001600160a01b0302191690836001600160a01b0316021790555081805480611a5c57fe5b600082815260209020810160001990810180546001600160a01b0319169055019055610a41565b6001016119ae56fe4f776e61626c653a206e6577206f776e657220697320746865207a65726f206164647265737373656c6c657220646f6573206e6f74206861766520656e6f7567682073686172657320746f2066696c6c207472616e73616374696f6e627579657220646f6573206e6f74206861766520656e6f7567682065786368616e676520746f6b656e7320746f2066696c6c207472616e73616374696f6e70726963652d736574746572206973206e6f742074686520636f6d70616e79206f776e6572536166654d6174683a206d756c7469706c69636174696f6e206f766572666c6f777072696365206973206e6f7420736574206173206120706f73697469766520696e74656765724f776e61626c653a2063616c6c6572206973206e6f7420746865206f776e6572436f6e747261637420696e7374616e63652068617320616c7265616479206265656e20696e697469616c697a6564a265627a7a723158206eb660b923f747fced2e6ea8e740fce9c250aaf83fc94b94081c6b89984c81f664736f6c634300050c0032",
  "source": "pragma solidity 0.5.12;\nimport \"@openzeppelin/contracts/ownership/Ownable.sol\";\nimport \"@openzeppelin/upgrades/contracts/Initializable.sol\";\nimport \"@openzeppelin/contracts/math/SafeMath.sol\";\nimport \"./IPrivateCompany.sol\";\nimport \"./IPrivateCompanyFactory.sol\";\n\ncontract PrivateExchangeLogic is Initializable, Ownable {\n    using SafeMath for uint256;\n\n    IPrivateCompany public exchangeToken;\n\n    mapping(address => uint256) public listedCompanyPrices;\n\n    IPrivateCompany[] public listedCompanies;\n\n    mapping(address => IPrivateCompany[]) public ownerCompanies;\n\n    bool private _openMode;\n\n    IPrivateCompanyFactory private _companyFactory;\n\n    event ExchangeClosed();\n\n    event ExchangeOpened();\n\n    event CompanyListed(address indexed owner, address indexed company);\n\n    event ExchangeTokenPurchased(address indexed account, address amount);\n\n    event ShareTransaction(address indexed company, address indexed buyer, address indexed seller, uint256 amount, uint256 price);\n\n    event CompanyPriceUpdated(address indexed company, uint256 price);\n\n    //We must set the owner in the initializer func due to the proxy pattern.\n    //State in this contract is meaningless through a proxy.\n    function initialize(address owner, address companyFactory, string memory name, string memory symbol) public initializer {\n        _transferOwnership(owner);\n        _openMode = false;\n        _companyFactory = IPrivateCompanyFactory(companyFactory);\n        exchangeToken = _makeExchangeToken(name, symbol);\n    }\n\n    function upgradeCompanyFactory(address companyFactory) public onlyOwner {\n        _companyFactory = IPrivateCompanyFactory(companyFactory);\n    }\n\n\n    function numberOfListedCompanies() view public returns(uint256) {\n        return listedCompanies.length;\n    }\n\n    function numberOfOwnedCompanies() view public returns(uint256) {\n        return ownerCompanies[msg.sender].length;\n    }\n\n    modifier onlyOpen() {\n        require(isOpen(), \"not in open mode\");\n        _;\n    }\n\n    function isOpen() public view returns (bool) {\n        return _openMode;\n    }\n\n    function switchOpenMode(bool value) public onlyOwner {\n        _openMode = value;\n        if (value){\n            emit ExchangeOpened();\n        }\n        else {\n            emit ExchangeClosed();\n        }\n    }\n\n    function exchangeTokenBalance() public view returns(uint256) {\n        return exchangeToken.balanceOf(msg.sender);\n    }\n    \n    function buyExchangeToken() public payable onlyOpen {\n        require(msg.value>0, \"value needs to be non-zero\");\n        exchangeToken.mint(msg.value);\n        exchangeToken.transfer(msg.sender, msg.value);\n    }\n\n    function buyCompanyShares(address company, uint256 amount) public onlyOpen {\n        require(_isListedCompany(company), \"not a listed company\");\n        uint256 price = listedCompanyPrices[company];\n        require(price > 0, \"company price invalid\");\n        address buyer = msg.sender;\n        IPrivateCompany pc = IPrivateCompany(company);\n        address seller = pc.owner();\n        uint256 cost = amount.mul(price);\n        uint256 sharesAvailable = pc.allowance(seller, address(this));\n        require(sharesAvailable >= amount, \"seller does not have enough shares to fill transaction\");\n        require(exchangeToken.allowance(buyer, address(this)) >= cost, \"buyer does not have enough exchange tokens to fill transaction\");\n        pc.transferFrom(seller, buyer, amount);\n        exchangeToken.transferFrom(buyer, seller, cost);\n        emit ShareTransaction(company, buyer, seller, amount, price);\n    }\n\n    function updateCompanyPrice(address company, uint256 price) public onlyOpen {\n        uint256 _price = listedCompanyPrices[company];\n        require(_price > 0, \"company is not listed\");\n        IPrivateCompany pc = IPrivateCompany(company);\n        require(pc.owner() == msg.sender, \"price-setter is not the company owner\");\n        require(price > 0 , \"price is not set as a positive integer\");\n        _updateCompanyPrice(company, price);\n    }\n    function _updateCompanyPrice(address company, uint256 price) internal {\n        listedCompanyPrices[company] = price;\n        emit CompanyPriceUpdated(company, price);\n    }\n\n    function createCompanyAndList(string memory name, string memory symbol, uint256 price) public onlyOpen {\n        address companyOwner = msg.sender;\n        IPrivateCompany c = _createCompany(companyOwner, name, symbol);\n        _listCompany(c);\n        _updateCompanyPrice(address(c), price);\n    }\n\n    function listCompany(address company, uint256 price) public onlyOwner {\n        IPrivateCompany pc = IPrivateCompany(company);\n        _updateCompanyPrice(company, price);\n        _listCompany(pc);\n    }\n\n    function delistCompany(address company) public onlyOwner {\n        _delistCompany(IPrivateCompany(company));\n    }\n\n    function _makeExchangeToken(string memory name, string memory symbol) internal returns (IPrivateCompany) {\n        return _createCompany(address(this), name, symbol);\n    }\n\n    function _createCompany(\n        address companyOwner,\n        string memory name,\n        string memory symbol\n    ) \n    internal returns(IPrivateCompany) {\n        //EXTERNAL CONTRACT CALL\n        address c = _companyFactory.newCompany(companyOwner, name, symbol);\n        return IPrivateCompany(c); \n    }\n\n    function _isListedCompany(address company) internal view returns(bool) {\n        return listedCompanyPrices[company] > 0;\n    }\n    function _listCompany(IPrivateCompany company) internal {\n        listedCompanies.push(company);\n        ownerCompanies[company.owner()].push(company);\n        emit CompanyListed(company.owner(), address(company));\n    }\n\n    function _delistCompany(IPrivateCompany company) internal {\n        listedCompanyPrices[address(company)] = 0;\n        for (uint i = 0; i < listedCompanies.length; i++ )\n        {\n            if (listedCompanies[i] == company)\n            {\n                listedCompanies[i] = listedCompanies[listedCompanies.length - 1];\n                listedCompanies.pop();\n                break;\n            }\n        }\n        IPrivateCompany[] storage ownedCompanies = ownerCompanies[company.owner()];\n        for (uint i = 0; i < ownedCompanies.length; i++ )\n        {\n            if (ownedCompanies[i] == company)\n            {\n                ownedCompanies[i] = ownedCompanies[ownedCompanies.length - 1];\n                ownedCompanies.pop();\n                break;\n            }\n        }\n    }\n}",
  "sourcePath": "/home/shups/Code/entangle-exchange/contracts/PrivateExchangeLogic.sol",
  "compiler": {
    "name": "solc",
    "version": "0.5.12+commit.7709ece9.Emscripten.clang"
  },
  "schemaVersion": "3.0.16",
  "updatedAt": "2019-10-25T02:26:54.800Z",
  "devdoc": {
    "methods": {
      "isOwner()": {
        "details": "Returns true if the caller is the current owner."
      },
      "owner()": {
        "details": "Returns the address of the current owner."
      },
      "renounceOwnership()": {
        "details": "Leaves the contract without owner. It will not be possible to call `onlyOwner` functions anymore. Can only be called by the current owner.     * > Note: Renouncing ownership will leave the contract without an owner, thereby removing any functionality that is only available to the owner."
      },
      "transferOwnership(address)": {
        "details": "Transfers ownership of the contract to a new account (`newOwner`). Can only be called by the current owner."
      }
    }
  },
  "userdoc": {
    "methods": {}
  }
}